:020000040800F2
:10000000A862002459040008DD3B000823380008DA
:10001000D93B00085D190008D14D00080000000020
:100020000000000000000000000000009D03000828
:100030007D19000800000000F103000809400008D5
:1000400073040008730400087304000873040008B4
:1000500073040008730400087304000873040008A4
:100060007304000873040008730400087304000894
:100070007304000873040008730400087304000884
:100080007304000873040008730400087304000874
:100090007304000873040008730400087304000864
:1000A0007304000873040008730400087304000854
:1000B0007304000873040008730400087304000844
:1000C0007304000873040008730400087304000834
:1000D00073040008814D00087304000873040008CD
:1000E0007304000873040008000000007304000893
:1000F0007304000873040008730400087304000804
:1001000073040008730400087304000873040008F3
:1001100073040008730400087304000873040008E3
:1001200073040008730400087304000873040008D3
:1001300073040008730400087304000873040008C3
:1001400000000000000000000000000000000000AF
:1001500073040008730400087304000873040008A3
:100160007304000873040008730400087304000893
:100170007304000873040008730400087304000883
:100180007304000873040008730400087304000873
:100190007304000873040008730400087304000863
:1001A0007304000873040008730400087304000853
:1001B0007304000873040008730400087304000843
:1001C0007304000873040008730400087304000833
:1001D0007304000873040008730400087304000823
:1001E0007304000873040008730400087304000813
:1001F0007304000873040008730400087304000803
:1002000073040008730400087304000873040008F2
:1002100073040008730400087304000873040008E2
:100220007304000873040008730400080000000051
:100230007304000873040008000000007304000841
:1002400073040008730400087304000873040008B2
:1002500073040008730400087304000873040008A2
:100260007304000873040008730400087304000892
:100270007304000873040008730400080000000001
:1002800073040008730400087304000800000000F1
:10029000000000007304000800F002F800F06FF89E
:1002A0000AA090E8000C82448344AAF10107DA45D1
:1002B00001D100F064F8AFF2090EBAE80F0013F0B4
:1002C000010F18BFFB1A43F001031847B88A00005A
:1002D000D88A00000A444FF0000C10F8013B13F0DC
:1002E000070408BF10F8014B1D1108BF10F8015B8F
:1002F000641E05D010F8016B641E01F8016BF9D182
:1003000013F0080F1EBF10F8014BAD1C0C1B09D1D8
:100310006D1E58BF01F801CBFAD505E014F8016B4A
:1003200001F8016B6D1EF9D59142D6D370470000DC
:100330000023002400250026103A28BF78C1FBD8EE
:10034000520728BF30C148BF0B607047662908F0CC
:100350001A84642900F08881732900F062850020E6
:1003600070471FB508F00AFC00F0C6FD040000202D
:10037000002108F0EDFBE0601FBD10B510BD00F0DE
:10038000C3FE1146FFF7EDFF06F016F900F0E1FE9F
:1003900003B4FFF7F2FF03BC05F0C9F82B4B196853
:1003A0000868B0E8F04F80F30988BFF36F8F4FF013
:1003B000000080F3118870470000000006480068C4
:1003C000006880F3088862B661B6BFF34F8FBFF351
:1003D0006F8F00DF00BF00BF08ED00E0DFF80C000A
:1003E000016841F470010160704700BF88ED00E0D2
:1003F000EFF30980BFF36F8F144B1A681EF0100FD4
:1004000008BF20ED108A20E9F04F106008B44FF0CB
:10041000500072B680F31188BFF34F8FBFF36F8F18
:1004200062B607F08FFC4FF0000080F3118808BC23
:1004300019680868B0E8F04F1EF0100F08BFB0EC64
:10044000108A80F30988BFF36F8F7047580000242B
:10045000EFF30580704700000948804709480047CE
:10046000FEE7FEE7FEE7FEE7FEE7FEE7FEE7FEE764
:10047000FEE7FEE704480549054A064B70470000C1
:100480001940000899020008A85C0024A862002412
:10049000A85E0024A85E002453EA020C00F06980E4
:1004A0002DE9F04B4FF00006002B1FBFB3FA83F588
:1004B00003FA05F424FA05F65E4012BF1643B2FAB9
:1004C00082F502FA05F4C5F120051EBF22FA05FCEB
:1004D00044EA0C04203556EA044C4FEA144418BF91
:1004E000641C4FF000084FF00009904271EB030CC0
:1004F00039D3002919BFB1FA81F701FA07F6B0FA2A
:1005000080F700FA07F6C7F120071EBF20FA07FCA4
:1005100046EA0C062037B6FBF4FCA7EB0507103FB4
:1005200007F01F0BCBF120060CFA0BFB2CFA06F69A
:1005300044BFB3460026202FA4BF5E464FF0000BF9
:100540005BEA060C08BF4FF0010B19EB0B09ABFB84
:10055000027C48EB0608C01B06FB02CC0BFB03CC5D
:1005600071EB0C01C1E70B46024641464846BDE827
:10057000F08B13B54FF000004FF00001AFF3008097
:10058000BDE81C40704700000FB4044910B503AA31
:10059000029800F04BFC10BC5DF814FB44000024F2
:1005A0000FB41CB5074B06AA7B446946009005981A
:1005B00000F00DFC0020694600F01CFC1CBC5DF83E
:1005C00014FB00004908000070B504468569006806
:1005D000C10601D5302600E02026C00707D070BD37
:1005E000D4E9012130469047206A401C20626D1EEC
:1005F000F6D570BD70B5044685690078C00707D18F
:1006000070BDD4E9012120209047206A401C20625F
:100610006D1EF6D570BD70B50C460546012A05D095
:100620002878800600D5EA69002302E0012305E06E
:100630005B1C934202D2E05C0028F9D1A869E6185D
:10064000C01AA861286A184428622846FFF7BCFF30
:1006500004E0D5E9012114F8010B9047B442F8D326
:100660002846FFF7C7FF70BD2DE9F041064600247C
:1006700010687529314616A510D0AFF30080002808
:1006800002DA404213A507E031688A0701D512A5B6
:1006900002E0490704D511A5012401E0AFF3008071
:1006A00000210A2206F1240709E0B0FBF2FCB0FBAE
:1006B000F2F302FB1C00303078541846491C002825
:1006C000F3D123462A463046BDE8F04100F011B987
:1006D000000000002D0000002B00000020000000A2
:1006E0002DE9F0474FF0000A89460446C0F820A0E3
:1006F0002046E1688847002876D0252806D0D4E92E
:1007000001219047206A401C2062F1E7E168204601
:1007100000258847C4F81CA006460027C4F818A086
:100720002A2E09D0304604F0FBFE38B304EB8708CC
:10073000303EC8F8186019E059F8041B204604EB55
:1007400087029161E1688847012F064618D1E06968
:10075000002820DA25F020051DE0D8F8180000EB6D
:10076000800006EB40003038C8F818002046E168E9
:100770008847064604F0D4FE0028EED1012F0AD0A7
:100780002E2E08D12046E16888477F1C0646022F9E
:1007900045F02005C4DBA069002803DA404245F09B
:1007A0000105A061E80701D025F01005B6B1A6F15A
:1007B0004100192802D8203645F400654A463146E2
:1007C000204625604D46FFF7C1FD58B1012806D0EF
:1007D000ED1D25F0070000F1080989E704E005F1A7
:1007E000040985E730468AE7206ABDE8F087032AD6
:1007F00040F2308010F0030C00F0158011F8013B3E
:10080000BCF1020F624498BF11F801CB00F8013B24
:1008100038BF11F8013BA2F1040298BF00F801CBE8
:1008200038BF00F8013B11F0030300F01183083AD0
:10083000C0F0088051F8043B083A51F804CBA0E816
:100840000810F5E7121D5CBF51F8043B40F8043B6B
:10085000AFF30080D20724BF11F8013B11F801CBA0
:1008600048BF11F8012B24BF00F8013B00F801CB71
:1008700048BF00F8012B704702F0FF0343EA032250
:1008800042EA024200F018BB4FF0000200B51346E6
:1008900094469646203922BFA0E80C50A0E80C50A0
:1008A000B1F12001BFF4F7AF090728BFA0E80C5051
:1008B00048BF0CC05DF804EB890028BF40F8042B4A
:1008C00008BF704748BF20F8022B11F0804F18BFB7
:1008D00000F8012B704770477047704710B500F063
:1008E0000FFB006810BD10B5044600F009FB046062
:1008F00010BD2DE9F0470D4699469246044600F199
:1009000024080168880604D5E06921F010012160FF
:1009100000E00120A84201DD471B00E00027A1699B
:100920007A1902EB0900081AA0612078C00602D4E7
:100930002046FFF749FE002608E0D4E901211AF815
:1009400006009047206A401C761C20624E45F4DB6E
:100950002078C0060AD52046FFF736FE06E0D4E927
:10096000012130209047206A401C2062381EA7F1E8
:100970000107F4DC07E0D4E9012118F805009047ED
:10098000206A401C2062281EA5F10105F3DC2046E8
:10099000FFF730FE2078000602D50220BDE8F08780
:1009A0000120FBE770472DE9FF4F0C461E464FF034
:1009B000FF378BB0D2E90001DDF860800A908A46EB
:1009C000C1F30A5505B93D46002108464FF0000025
:1009D000BAF1000F00F4400005DA00EB80004FF49C
:1009E000400101EA50004FEA9059B9F1010F00DDD2
:1009F000B9460A9850EA4A000ED044F61050A5F2C3
:100A0000FF3545432F14B8F1000F1ED07542291E43
:100A10001EDDC9F100021CE0B8F1010F4FF000002B
:100A200001D0302103E0F24305E02154401CB042E4
:100A3000FBDB30460022002121540B99C1F80880CD
:100A4000C1E900200FB0BDE8F08FBD1B6D1CDEE7D3
:100A50004A4600DA694206A800F0DCFA06AB93E8E1
:100A6000070003AB83E8070050460A9900F0AEFB8D
:100A70008DE80700A0F500501F3800900398002D66
:100A80000ADD42F21F014A460844002303A90390ED
:100A9000684600F017FE09E0A0F500504A461F38EE
:100AA000002303A90390684600F021FE8DE80700AB
:100AB0000004000C03D04FF0FF30410800E0104666
:100AC000B8F1000F03D00022009215461EE0751EFB
:100AD00005D400F019FA303262556D1EF9D5B346CF
:100AE0000122084302D000227F1C04E02078302835
:100AF00001D100227F1E002A099784D01DE0112D0C
:100B000007DA00F001FA303262556D1C50EA01023A
:100B1000F5D1084302D00098C8B10EE00021681E4C
:100B200005E0235C625C63542254401E491C8142F0
:100B3000F7DBAB46A81B401E0990002004F80B0011
:100B40000B98099AC0F80880C0E9002B7AE71126B3
:100B50004FF0000857E72DE9F04F88460446D21DB4
:100B600022F0070191B0D1E90001CDE90A0104F0BA
:100B700031F902460B98C00F01D02D2007E0206804
:100B8000810701D52B2002E0202101EAC000032AC1
:100B9000099001D0072A05DB03464146204600F0B4
:100BA000F9F90BE12078800601D5E06900E0062024
:100BB000B8F1650F814606D0B8F1660F18D0B8F1CC
:100BC000670F70D131E00020B9F1110F009001DB07
:100BD000112301E009F101030AAA01A90CA8FFF7FA
:100BE000E2FEDDE90C70002609F10105834647E0CD
:100BF00001204B4600904FF000470AAA01A90CA81B
:100C0000FFF7D1FEDDE90DB00C995D46002610B965
:100C100009F101000D18B9EB050003D4C0F1FF364E
:100C200009F10105A5EB09002BE0B9F1010F01DA8B
:100C30004FF001090020B9F1110F0090484601DD85
:100C4000112300E003460AAA01A90CA8FFF7ABFE96
:100C5000DDE90C704D4600268346207800070AD453
:100C6000AB4500DA5D4601A8012D04DD411911F8FC
:100C7000011C302907D04F4502DA17F1040F04DABE
:100C8000012082460FE06D1EEEE7002F02DCED1B17
:100C90003E4403E0781CA84200DD7D1CB81B00F137
:100CA000010A4FF000472078000703D4AA4501DB72
:100CB0004FF0FF3A0021B7F1004F0DF143088DF8D6
:100CC000431024D002202B23002F01DA7F422D2352
:100CD0000A21021EA0F1010000DC5FB197FBF1FCCC
:100CE00097FBF1F201FB1C7C17460CF1300C08F865
:100CF00001CDEEE7A8F1010003702188090501D5B7
:100D0000452100E06521A0F1010800F8011C0998C7
:100D10000FA9A1EB0807FF1D00B10120411901EB4C
:100D2000EA70A1693844081A401EA0612078C00604
:100D300002D42046FFF748FC099828B1D4E90121E4
:100D40009047206A401C20622078C00622D52046A9
:100D5000FFF73AFC1EE0002E04DBB34502DD01A8DC
:100D6000805D00E03020D4E901219047206A401CDA
:100D70002062761CAAF101005FEA000A0AD100F0A5
:100D8000BBF8C0680168405CD4E901219047206A43
:100D9000401C2062281EA5F10105DCDC07E0D4E937
:100DA000012118F8010B9047206A401C2062381E70
:100DB000A7F10107F3DC2046FFF71CFC032011B06C
:100DC00041E6000001694A1C02610878704700B5DD
:100DD0008FB0CDE901310021059105497944CDE974
:100DE000031011466846FFF77BFC0FB000BD000002
:100DF000E5FFFFFF0A6802F8010B0A60704710B5B3
:100E0000436913B1AFF3008001E0FFF704FC012058
:100E100010BD127800F124010A7000224A700122EC
:100E2000EDE711684FF0FF32E9E70000074B70B5BE
:100E30000D467B44FFF7CBFF0446284600F05CF9E3
:100E400010B14FF0FF3070BD204670BD0B4F000059
:100E500010B5203AC0F00B80B1E81850203AA0E855
:100E60001850B1E81850A0E81850BFF4F5AF5FEA89
:100E7000027C24BFB1E81850A0E8185044BF18C93C
:100E800018C0BDE810405FEA827C24BF51F8043BE3
:100E900040F8043B08BF7047D20728BF31F8023B37
:100EA00048BF11F8012B28BF20F8023B48BF00F8CB
:100EB000012B70474FF000020429C0F0128010F09F
:100EC000030C3FF4E3ACCCF1040CBCF1020F18BFEF
:100ED00000F8012BA8BF20F8022BA1EB0C01FFF7B3
:100EE000D5BC5FEAC17C24BF00F8012B00F8012BC0
:100EF00048BF00F8012B704700487047685C002429
:100F000000487047485C002430B5B0F10A024FEA4F
:100F1000900E71F100034EEA817EB0EB0E0061EBA2
:100F200091014FEA101E4EEA017E10EB0E0041EBDC
:100F300011114FEA102E4EEA016E10EB0E0041EB3C
:100F400011214FEA104E4EEA014E10EB0E0041EB1C
:100F50001141401841F100014FEAD00040EA4170D0
:100F60004FEAD10110EB80054FEA810444EA907406
:100F700044EB01046D1944EB0404521BA3414FF0F0
:100F8000000348BF0A3200D530BD401C41F10001CA
:100F900030BD00002DE9F0411F46044603260168DC
:100FA000072A01F4006004DB08B116A505E016A5C8
:100FB00003E008B115A500E015A521F010002060A0
:100FC000A069C01EA0610FB1401EA0612046FFF7BE
:100FD000FBFA4FB1D4E9012138469047206A401C02
:100FE0002062C01C206206E0206AFAE7D4E90121F1
:100FF00015F8010B9047761EF8D22046FFF7FAFA53
:10100000BDE8F0814E414E006E616E00494E4600D3
:10101000696E66002DE9F047814616468AB035486C
:1010200078440DC88DE80D0032487844801C03AC2C
:101030000DC884E80D0041F69B300844372190FB31
:10104000F1F290FBF1F5A5F1800501FB12041B3CC8
:1010500002D56442012000E00020DFF898A080461D
:101060000027FA44AAF1BE0A0EE0E0070AD0324691
:10107000684607EB470101230AEB810100F037FBCB
:101080008DE8070064107F1C002CEED1194F7F44BF
:10109000AE3F19E0E80715D007EB04100DF1180A70
:1010A00090E80E008AE80E00C068F04201D198195D
:1010B00008903246012306A903A800F018FB03ABF1
:1010C00083E807006D10641C002DE3D14FF001038D
:1010D00032466946B8F1000F03A802D000F0F2FAD8
:1010E00001E000F004FBC9E90001C9F808200AB0DA
:1010F000BDE8F087487D0000007B00F0800070476D
:1011000000487047485C00247546FFF7F9FFAE467B
:1011100005006946534620F00700854618B020B503
:10112000FFF7A8F9BDE820404FF000064FF0000798
:101130004FF000084FF0000B21F00701AC46ACE87F
:10114000C009ACE8C009ACE8C009ACE8C0098D46EC
:10115000704710B50446AFF300802046BDE810404C
:10116000FFF716B94FF0013C50F8042B51F8043B3F
:101170009A4215D1A2EB0C03934313EACC130BD183
:1011800050F8042B51F8043B9A4209D1A2EB0C030E
:10119000934313EACC13E7D04FF00000704700BF31
:1011A000D01A01BAB1FA81F101F0180122FA01F066
:1011B000CB40C1F12001DBB2C0B2C01A2CFA01F35E
:1011C000D11A914311EAC311E6D170475FEA400C8E
:1011D00008BF91F0000F4FEA8C234FEAC12243EA87
:1011E00051514FEA1C5018BF00F5F0404FEA300053
:1011F00018BF41F000415FEA6C5C00F02980BCF14F
:10120000FF3F08BF40F080407047130C06BF120438
:101210004FF0100C4FF0000C130E04BF12020CF133
:10122000080C130F04BF12010CF1040C930F04BF40
:1012300092000CF1020CD30F04BF52000CF1010C10
:1012400011464FF00002A0F11F00A0EB0C00704708
:1012500011F0004F08BF704731F000413FF4D5AFA7
:101260000B0C06BF09044FF0100C4FF0000C0B0ED6
:1012700004BF09020CF1080C0B0F04BF09010CF1AB
:10128000040C8B0F04BF89000CF1020CCB0F04BFC0
:1012900049000CF1010CCCF12003A0EB0C0022FA68
:1012A00003F302FA0CF241EA030100F10100704776
:1012B00020F07F4C80EA030023F07F47ACEB07036C
:1012C00003F57C5300F0004003F1FF032DE9804952
:1012D0004FEA154B09B44FEA144325EA0B4E24EAB2
:1012E00003480FF2042606EB132749083E785FEA0D
:1012F000320203FB0667C7F5000707FB06F64FEA55
:1013000054374FEAD64606F1020607FB066CCCF1CD
:10131000005C4FEA1C472CEA074C07FB06F40CFB69
:1013200006F504EB15464FEA961634BF00204FF041
:1013300000404FEAD13706FB07FC4FEA1C4C0CFB80
:101340000BF7D21B03FB0CF761EB07010CFB0EF74D
:10135000B0EB074072EB17420CFB08F734BFA2EB6F
:101360000742B2EB074261EB17414FEA0C444FEAE8
:10137000910706FB07FC4FEA1C4C0CFB0BF7B0EB8C
:10138000C74072EB573203FB0CF734BFA2EBC742E6
:10139000B2EBC74261EB57310CFB0EF7B0EBC70065
:1013A00072EB57720CFB08F734BFA2EBC702B2EB2B
:1013B000C70261EB5771039F4FEA816141EA9211C5
:1013C00004EBCC044FEAD1374FEA826206FB07FCFC
:1013D00042EA90124FEA80604FEA1C4C0CFB0BF77C
:1013E000D21B03FB0CF761EB07010CFB0EF7B0EB14
:1013F000074072EB17420CFB08F734BFA2EB074221
:10140000B2EB074261EB17414FEA8C554FEA910767
:1014100004EB9C2406FB07FC4FEA1C4C0CFB0BF76F
:10142000B0EBC74072EB573203FB0CF734BFA2EBB3
:10143000C742B2EBC74261EB57310CFB0EF7B0EB82
:10144000C70072EB57720CFB08F734BFA2EBC70260
:10145000B2EBC70261EB577115EB4C254FEA816186
:1014600041EA92114FEA82624FEAD13742EA901282
:1014700006FB07FC44F100044FEA80604FEA1C4C75
:101480000CFB0BF7D21B03FB0CF761EB07010CFB0A
:101490000EF7B0EB074072EB17420CFB08F734BFB6
:1014A000A2EB0742B2EB074261EB174115EB1C15AB
:1014B0004FEA813141EA92414FEA823242EA904258
:1014C0004FEA80304FEA0C7644F1000448EA0343C7
:1014D0004EEA0B484FF0000EB2EB080C71EB03071D
:1014E00024BF624639464EEB0E0E4FF0000B00183B
:1014F000524149414BEB0B0BB2EB080C71EB03076C
:101500007BF1000B24BF624639464EEB0E0E4FF0C6
:10151000000B0018524149414BEB0B0BB2EB080C8E
:1015200071EB03077BF1000B24BF624639464EEB9B
:101530000E0E51EA020718BF46F0010616EB0E76B2
:1015400055F1000254F1000103D5BDE88901BDE861
:101550000088BDE88901BDE80048B619524141EB59
:101560000101A3F10103704780807F7E7D7C7B7A3F
:101570007978777676757473727171706F6E6E6D3F
:101580006C6C6B6A6A6968686766666564646363E5
:1015900062616160605F5F5E5E5D5D5C5C5B5B5A6B
:1015A0005A595958585757565655555554545353D8
:1015B00052525251515050504F4F4F4E4E4D4D4D33
:1015C0004C4C4C4B4B4B4A4A4A494949484848477E
:1015D00047474746464645454544444444434343BC
:1015E0004342424242414141002B9C4630D4770065
:1015F0002BD01CB54FEA370703B44FF010004FF063
:101600001001BAF1000F06D0BCF1000FDCBF40F0B2
:10161000080040F008014FF000000FBCBDE810408A
:101620000BF1010BBBF1010F08BF5FEA170722BFE7
:1016300012F1010211F101014FF0004143F10003E9
:1016400000F0004043EA00007047F9D35708D0E7A4
:1016500046EA064613F1400F4FEA16461FDD13F126
:10166000200FDFBF16430A46002120335B42BED065
:10167000C3F1200746EA064602FA07F74FEA164684
:1016800046EA0706C3F1200722FA03F201FA07F738
:1016900021FA03F14FF0000342EA0702A7E746EA06
:1016A000020646EA06464FEA164646EA0106BCBF6F
:1016B00046EA0646360C4FF000034FF000024FF0AA
:1016C000000194E72DE9804C9A46934670B491E866
:1016D000380007C831EA400C48BF34EA430C03D550
:1016E000FFF7E6FDFFF780FFF0BCBDE8008C2DE9B9
:1016F000804C9A46934670B491E8380007C810F0C1
:10170000804F08BF13F0804F03D100F005F8FFF7BA
:101710006BFFF0BCBDE8008C20F07F4780EA03003F
:1017200023F07F4C07EB0C03A3F57C5300F0004043
:10173000A3F1FE0392F0000F00F0B38095F0000FCC
:1017400000F077802DE901494FEA11404FEA144635
:1017500021EA004800FB06FC24EA064708FB06F6DF
:1017600007FB08F800FB07F718EB06484CEB164C94
:101770004FEA124B18EB07484FEA15464CEB17405F
:1017800022EA0B4E0BFB06FC25EA06470EFB06F68B
:1017900007FB0EFE0BFB07F71EEB064E4CEB164C41
:1017A0004FF000061EEB074E4CEB174B18EB0B08E7
:1017B00040F1000018EB0E0B58EB000840F1000060
:1017C0008F1A4FF000013CBFC943661B14BFB5EB35
:1017D000040C00213CBFC943F61B4FEA17444EEAF4
:1017E0008E0E27EA04454FEA1C4704FB07622CEAE9
:1017F000074C05FB07F70CFB05F604FB0CFC16EB8E
:10180000074642EB174216EB0C4642EB1C421BEB21
:10181000060658EB0202414146EA9E0601D5BDE8A4
:101820000189B619524141EB0101A3F10103BDE861
:1018300001894FEA14454FEA114724EA054621EA97
:10184000074C05FB07F406FB07F70CFB06F105FB4D
:101850000CFC11EB074144EB17444FEA124711EB24
:101860000C4144EB1C4422EA074C05FB07F206FB43
:1018700007F70CFB06F605FB0CFC16EB074642EBE4
:10188000174216EB0C4642EB1C456A1854F1000156
:1018900048BF7047B619524141EB0101A3F1010362
:1018A000704795F0000F37D04FEA11424FEA1447C6
:1018B00021EA024624EA074C02FB07F106FB07F780
:1018C0000CFB06F402FB0CFC14EB074441EB174144
:1018D0004FEA154714EB0C4441EB1C4125EA074C39
:1018E00002FB07F506FB07F70CFB06F602FB0CFCF8
:1018F00016EB074645EB174516EB0C4645EB1C422D
:10190000121951F1000148BF7047B619524141EB1D
:101910000101A3F1010370474FEA14454FEA114753
:1019200024EA054621EA074C05FB07F106FB07F709
:101930000CFB06F24FF0000605FB0CFC12EB074215
:1019400041EB174112EB0C4251EB1C4148BF704771
:10195000921841EB0101A3F10103704700BFFEE7BC
:1019600010B502F08BF902F03BF90348006840F033
:1019700004000149086010BD9CEF00E070470000C2
:1019800010B504460CB9012010BD94F835000228AA
:1019900003D0802060650120F6E734492068884242
:1019A00005D333492068884201D8012000E0002097
:1019B000C0B1042084F835002C49206888420AD33D
:1019C0002B492068884206D82068006820F0010072
:1019D0002168086048E02068006820F00100216864
:1019E000086041E02068006820F00E00216808606F
:1019F0001E49206888420AD31D492068884206D8BB
:101A00002068006820F001002168086005E0206877
:101A1000006820F0010021680860206E006820F452
:101A20008070216E086094F85C1001208840114994
:101A30000860D4E919104860E06E40B1E06E0068BB
:101A400020F48070E16E0860D4E91C10486000BF8B
:101A5000002084F8340000BF012084F83500206D98
:101A600010B12046216D884700208DE7100002400C
:101A7000B8040240045402580348006840F00100D2
:101A8000014908607047000020040058F8B502467C
:101A90000B460021002600240020824D00BFFCE000
:101AA000012707FA01F61F6807EA0604B4427CD151
:101AB0005F68022F02D05F68122F1AD14FEAD10C53
:101AC00002F1200757F82C004F074FEAD76C0F2779
:101AD00007FA0CF7B8434FEA417C4FEADC6C1F6908
:101AE00007FA0CF738434FEAD10C02F1200747F808
:101AF0002C0010684FEA410C032707FA0CF7B84393
:101B00001F7907F003074FEA410C07FA0CF7384337
:101B100010605F68012F08D05F68022F05D05F68F2
:101B2000112F02D05F68122F17D190684FEA410C35
:101B3000032707FA0CF7B8434FEA410CDF6807FAAE
:101B40000CF738439060506801278F40B8431F79E5
:101B5000C7F300178F4038435060D0684FEA410CFC
:101B6000032707FA0CF7B8434FEA410C9F6807FABE
:101B70000CF73843D0605F6807F08057B7F1805F9B
:101B800095D100BF484F3F6847F00207DFF818C102
:101B9000CCF8007067463F6807F00207009700BF67
:101BA00000BF424F4FEA910C00E075E057F82C005F
:101BB0008F074FEA177C0F2707FA0CF7B8433C4F03
:101BC000BA4201D100272DE03A4FBA4201D1012794
:101BD00028E0394FBA4201D1022723E0374FBA42F9
:101BE00001D103271EE0364FBA4201D1042719E084
:101BF000344FBA4201D1052714E0334FBA4201D124
:101C000006270FE0314FBA4201D107270AE0304FD3
:101C1000BA4201D1082705E02E4FBA4201D1092767
:101C200000E00A274FEA817C4FEA1C7C07FA0CF798
:101C300038431E4F4FEA910C47F82C002868A04308
:101C40005F6807F48037B7F5803F00D120432860F4
:101C50006868A0435F6807F40037B7F5003F00D11C
:101C6000204368604FF0B0473868A0435F6807F4CE
:101C70008017B7F5801F00D120434FF0B047386080
:101C80007868A0435F6807F40017B7F5001F00D11C
:101C900020434FF0B0477860491C1029FFF400AF93
:101CA000F8BD000080000058F444025808040058B1
:101CB000000002580004025800080258000C0258A4
:101CC000001002580014025800180258001C025854
:101CD00000200258002402580AB1018300E0418329
:101CE0007047000001480068704700004C00002465
:101CF00010B504460CB9012010BD94F8410028B974
:101D0000002084F84000204600F00EFA242084F8D9
:101D100041002068006820F00100216808606068C8
:101D200020F07060216808612068806820F400401D
:101D300021688860E068012805D1A06840F400406F
:101D40002168886004E0A06840F40440216888604D
:101D5000E068022802D1800221684860206840685B
:101D600013490843216848602068C06820F4004097
:101D70002168C860D4E904010843A16940EA012050
:101D80002168C860D4E90701084321680860206819
:101D9000006840F001002168086000206064202095
:101DA00084F841000020206384F8420000BFA3E7CC
:101DB000008000022DE9FC5F0446894692469B465E
:101DC000DDE90C780E9E002594F8410020287DD195
:101DD00017B1B8F1000F02D10120BDE8FC9F00BF90
:101DE00094F84000012801D10220F6E7012084F890
:101DF000400000BFFFF776FF054619230122D103FB
:101E00002046009501F014FE08B10320E5E72220EA
:101E100084F84100402084F842000020606467623A
:101E2000A4F82A8060635B46524649462046CDE9C5
:101E3000006501F053FD80B1606C042806D100BF3D
:101E4000002084F8400000BF0120C6E700BF00204A
:101E500084F8400000BF0320BFE7608DFF280CD945
:101E6000FF2020854048009094F828204FF0807390
:101E70004946204601F0C2FD0BE0608D20853A48BE
:101E8000009094F828204FF000734946204601F056
:101E9000B5FD00BF3346002204212046009501F025
:101EA000C7FD08B1032098E72068406AC1B2626AA2
:101EB000501C60621170208D401E2085608D401E78
:101EC0006085208D48BB608D38B300E049E0334623
:101ED000002280212046009501F0AAFD08B10320D0
:101EE0007BE7608DFF280CD9FF2020850020009023
:101EF00094F828204FF080734946204601F07EFD7B
:101F00000BE0608D20850020009094F828204FF091
:101F100000734946204601F071FD608D0028B9D15B
:101F20002A463146204601F0AEFD30B1606C0428EF
:101F300001D1012051E703204FE720202168C8612B
:101F4000206840680949084021684860202084F8DA
:101F50004100002084F8420000BF84F8400000BF28
:101F60003BE7022039E700000024008000E800FE83
:101F70002DE9FC5F0446894692469B46DDE90C78D4
:101F80000E9E002594F8410020286ED117B1B8F1BB
:101F9000000F02D10120BDE8FC9F00BF94F8400073
:101FA000012801D10220F6E7012084F8400000BF9B
:101FB000FFF798FE054619230122D103204600951C
:101FC00001F036FD08B10320E5E7212084F8410047
:101FD000402084F84200002060646762A4F82A80F0
:101FE00060635B46524649462046CDE9006501F0F4
:101FF000BDFC80B1606C042806D100BF002084F8CD
:10200000400000BF0120C6E700BF002084F8400068
:1020100000BF0320BFE7608DFF280CD9FF2020857B
:102020000020009094F828204FF080734946204605
:1020300001F0E4FC0BE0608D20850020009094F816
:1020400028204FF000734946204601F0D7FC00BF1E
:102050002A463146204601F041FD38B1606C042823
:1020600001D1012097E7032095E759E0616A481CF8
:102070006062087821688862608D401E6085208DCE
:10208000401E2085208D38BB608D28B3334600224A
:1020900080212046009501F0CBFC08B103207AE7AF
:1020A000608DFF280CD9FF2020850020009094F837
:1020B00028204FF080734946204601F09FFC0BE03A
:1020C000608D20850020009094F828204FF0007348
:1020D0004946204601F092FC608D0028B8D12A467E
:1020E0003146204601F0CFFC30B1606C042801D1AC
:1020F000012050E703204EE720202168C8612068B6
:1021000040680849084021684860202084F8410060
:10211000002084F8420000BF84F8400000BF3AE786
:10212000022038E700E800FE10B586B0044614210E
:1021300001A8FEF7A9FB1949206888422CD100BFED
:102140001748006840F0020015490860084600681A
:1021500000F00200009000BF00BF4FF440700190FB
:102160001220029001200390032004900420059087
:1021700001A90C48FFF78AFC00BF09480830006835
:1021800040F400100649083108600846006800F471
:102190000010009000BF00BF06B010BD005400400A
:1021A000E04402580004025810B5032000F07EF805
:1021B0000F2000F007F808B1012010BD00F028F84A
:1021C0000020FAE770B504460E4800784FF47A71A3
:1021D000B1FBF0F00C490968B1FBF0F5284601F0BD
:1021E000DFF808B1012070BD102C07D20022214673
:1021F000501E00F01EF80548046001E00120F2E7DF
:102200000020F0E754000024340000245000002493
:10221000704701460846002809DB00F01F03012231
:102220009A4043099B0003F1E023C3F8002100BF5B
:1022300070472DE9F05F80460D46164602F0E2FD3C
:10224000074639462A46334601F00700C0F1070A1F
:10225000BAF1040F02D94FF0040A01E0C0F1070AF5
:10226000D14600F1040ABAF1070F02D24FF0000A7A
:1022700001E0A0F1030AD4464FF0010A0AFA09FA74
:10228000AAF1010A0AEA020A0AFA0CFA4FF0010B53
:102290000BFA0CFBABF1010B0BEA030B4AEA0B0444
:1022A0002146404602F0B6FDBDE8F09F00BF00F0B9
:1022B0000702064B19684FF6FF031940044B0B4306
:1022C00043EA0221014B196000BF70470CED00E0AA
:1022D0000000FA0510B500F0CBFB0949096801F4CC
:1022E00070614FF4807292FAA2F2B2FA82F2D14097
:1022F000044A515CC840044908600846006810BDA3
:1023000018440258BA8B00083400002410B500F0BD
:1023100067FB0749096801F07001102292FAA2F2E6
:10232000B2FA82F2D140034A515CC84010BD0000AD
:1023300020440258BA8B000870B5014600220120E3
:10234000002300249FED811AB0EE410A9FED7F1A11
:10235000F0EE410A7E4D2D6805F003027C4D2D689C
:10236000C5F305307A4D2D1D2D6805F01003784D0D
:1023700014352D68C5F3CC0515FB03F501EE105A95
:10238000B8EE411AB0EE410A22B1012A4DD0022A1C
:102390007DD169E06E4D283D2D68C5F340152DB304
:1023A0006B4D283D2D68C5F3C1066A4D25FA06F42C
:1023B000B4FBF0F501EE105AF8EE411A9FED661AE3
:1023C00080EE012A624D10352D68C5F3080501EE37
:1023D000105AB8EE411A32EE011AB7EE002A31EE69
:1023E000021A21EE811AF0EE410A1DE0594DB5FBAB
:1023F000F0F501EE105AF8EE411A9FED571A80EEF3
:10240000012A534D10352D68C5F3080501EE105A09
:10241000B8EE411A32EE011AB7EE002A31EE021A76
:1024200021EE811AF0EE410A5EE04C4DB5FBF0F56D
:1024300001EE105AB8EE412A9FED471AC0EE011A7C
:10244000434D10352D68C5F3080501EE105AB8EE5E
:10245000411A31EE811AF7EE001A31EE211A22EEFE
:10246000011AF0EE410A3FE03D4DB5FBF0F501EEFB
:10247000105AF8EE411A9FED381A80EE012A344DB9
:1024800010352D68C5F3080501EE105A00E00CE088
:10249000B8EE411A32EE011AB7EE002A31EE021AF6
:1024A00021EE811AF0EE410A1EE02C4DB5FBF0F54D
:1024B00001EE105AB8EE412A9FED271AC0EE011A1C
:1024C000234D10352D68C5F3080501EE105AB8EEFE
:1024D000411A31EE811AF7EE001A31EE211A22EE7E
:1024E000011AF0EE410A00BF00BF194D10352D68EA
:1024F000C5F346256D1C01EE105AB8EE411AC0EE28
:10250000811ABCEEE11A81ED001A114D10352D68CB
:10251000C5F306456D1C01EE105AB8EE411AC0EE27
:10252000811ABCEEE11A81ED011A094D10352D68B2
:10253000C5F306656D1C01EE105AB8EE411AC0EEE7
:10254000811ABCEEE11A81ED021A70BD0000000094
:10255000284402580090D0030000004600093D00C6
:1025600000127A0070B501460022012000230024E9
:102570009FED811AB0EE410A9FED7F1AF0EE410AFD
:102580007E4D2D6805F003027C4D2D68C5F3055086
:102590007A4D2D1D2D6805F48073784D1C352D68FE
:1025A000C5F3CC0515FB03F501EE105AB8EE411A40
:1025B000B0EE410A22B1012A4DD0022A7DD169E054
:1025C0006E4D283D2D68C5F340152DB36B4D283D4C
:1025D0002D68C5F3C1066A4D25FA06F4B4FBF0F583
:1025E00001EE105AF8EE411A9FED661A80EE012AAC
:1025F000624D18352D68C5F3080501EE105AB8EE86
:10260000411A32EE011AB7EE002A31EE021A21EE1B
:10261000811AF0EE410A1DE0594DB5FBF0F501EECF
:10262000105AF8EE411A9FED571A80EE012A534DC9
:1026300018352D68C5F3080501EE105AB8EE411A99
:1026400032EE011AB7EE002A31EE021A21EE811A9B
:10265000F0EE410A5EE04C4DB5FBF0F501EE105A8C
:10266000B8EE412A9FED471AC0EE011A434D1835C6
:102670002D68C5F3080501EE105AB8EE411A31EE87
:10268000811AF7EE001A31EE211A22EE011AF0EE4D
:10269000410A3FE03D4DB5FBF0F501EE105AF8EE72
:1026A000411A9FED381A80EE012A344D18352D68F5
:1026B000C5F3080501EE105A00E00CE0B8EE411A2F
:1026C00032EE011AB7EE002A31EE021A21EE811A1B
:1026D000F0EE410A1EE02C4DB5FBF0F501EE105A6C
:1026E000B8EE412A9FED271AC0EE011A234D183586
:1026F0002D68C5F3080501EE105AB8EE411A31EE07
:10270000811AF7EE001A31EE211A22EE011AF0EECC
:10271000410A00BF00BF194D18352D68C5F3462585
:102720006D1C01EE105AB8EE411AC0EE811ABCEED3
:10273000E11A81ED001A114D18352D68C5F30645D3
:102740006D1C01EE105AB8EE411AC0EE811ABCEEB3
:10275000E11A81ED011A094D18352D68C5F306659A
:102760006D1C01EE105AB8EE411AC0EE811ABCEE93
:10277000E11A81ED021A70BD0000000028440258E1
:102780000090D0030000004600093D0000127A00CE
:1027900070B504460D4600268D48006800F007001D
:1027A000A8420ED28A48006820F0070028438849D2
:1027B00008600846006800F00700A84201D0012028
:1027C00070BD207800F00200022807D1814800681F
:1027D00020F00F00E16808437E490860207800F08F
:1027E0000100002851D07B48006820F47060A16887
:1027F0000843784908606068022807D1754818388E
:102800000068C0F34040F8B90120D9E760680328A8
:1028100007D1704818380068C0F34060A0B90120A3
:10282000CEE76068012807D16A4818380068C0F30D
:10283000002048B90120C3E7664818380068C0F393
:10284000800008B90120BBE762480838006820F022
:102850000700616808435F4908390860FFF742FADA
:1028600006466068022811D108E0FFF73BFA801B9A
:1028700041F28831884201D90320A1E75548083840
:10288000006800F038001028EFD13AE060680328B3
:1028900011D108E0FFF726FA801B41F28831884207
:1028A00001D903208CE74B480838006800F0380055
:1028B0001828EFD125E06068012811D108E0FFF762
:1028C00011FA801B41F28831884201D9032077E751
:1028D00040480838006800F038000828EFD110E0C0
:1028E00008E0FFF7FFF9801B41F28831884201D9E7
:1028F000032065E737480838006800F038000028F2
:10290000EFD13348006800F00700A8420ED93048E4
:10291000006820F0070028432D4908600846006839
:1029200000F00700A84201D0012049E7207800F01C
:102930000400042807D12748006820F070002169AE
:10294000084324490860207800F00800082809D1CD
:102950002048001D006820F07000616908431D498F
:10296000091D0860207800F01000102809D11948CE
:10297000001D006820F4E060A16908431549091DA5
:102980000860207800F02000202809D11148083084
:10299000006820F07000E16908430E4908310860C2
:1029A00000F066F80B49096801F470614FF4807219
:1029B00092FAA2F2B2FA82F2D140074A515CC840C0
:1029C000064908600F20FFF7FDFB0020F8E6000035
:1029D0000020005218440258BA8B0008340000242A
:1029E00010B5FFF777FC0949096801F00F010122D2
:1029F00092FAA2F2B2FA82F2D140054A515CC84082
:102A0000044908600846006810BD000018440258D8
:102A1000BA8B00083800002410B5FFF7E1FF074922
:102A2000096801F07001102292FAA2F2B2FA82F261
:102A3000D140034A515CC84010BD00001C440258FC
:102A4000BA8B000810B5FFF7CBFF0749096801F4FE
:102A5000E0614FF4807292FAA2F2B2FA82F2D140AF
:102A6000024A515CC84010BD1C440258BA8B000891
:102A700070B5012500EE905A0022012100230024A8
:102A8000DFED861AB0EE610ADFED841AB0EE611A4E
:102A90000020834D2D6805F0380535B1082D15D07F
:102AA000102D15D0182D7CD114E07D4D103D2D68D2
:102AB000C5F3401545B17A4D103D2D68C5F3C106EB
:102AC000784D25FA06F000E07648E5E07648E3E048
:102AD0007648E1E0724D18352D6805F00302704D1F
:102AE00018352D68C5F305116D4D1C352D6805F0A1
:102AF00001036B4D24352D68C5F3CC0515FB03F59B
:102B000001EE905AF8EE611AB0EE610A22B1012A84
:102B10004FD0022A7DD16BE0614D103D2D68C5F389
:102B200040152DB35E4D103D2D68C5F3C1065D4DBA
:102B300025FA06F4B4FBF1F501EE905AB8EE612ADD
:102B4000DFED5B1AC0EE212A554D20352D68C5F307
:102B5000080501EE905AF8EE611A72EEA11AF7EE2E
:102B6000002A71EEA21A62EE211AB0EE611A1FE07D
:102B70004C4DB5FBF1F501EE905AB8EE612ADFED50
:102B80004C1AC0EE212A464D20352D68C5F30805A4
:102B900001EE905AF8EE611A72EEA11AF7EE002AD1
:102BA00000E077E071EEA21A62EE211AB0EE611A2F
:102BB0005EE03D4DB5FBF1F501EE905AB8EE612AAD
:102BC000DFED3B1AC0EE212A354D20352D68C5F3C7
:102BD000080501EE905AF8EE611A72EEA11AF7EEAE
:102BE000002A71EEA21A62EE211AB0EE611A3FE0DD
:102BF0002E4DB5FBF1F501EE905AB8EE612ADFEDEE
:102C00002C1AC0EE212A264D20352D68C5F3080563
:102C100000E00EE001EE905AF8EE611A72EEA11A91
:102C2000F7EE002A71EEA21A62EE211AB0EE611AD6
:102C30001EE01D4DB5FBF1F501EE905AF8EE612A4C
:102C4000DFED1B1A80EE212A154D20352D68C5F3C6
:102C5000080501EE905AF8EE611A72EE211AB7EEED
:102C6000002A71EE821A62EEA11AB0EE611A00BF5C
:102C700000BF0B4D20352D68C5F346256D1C00EEB9
:102C8000905AF8EE601A81EE212AFCEEC21A11EE7B
:102C9000900A01E0044800BF00BF70BD00000000C2
:102CA000104402580090D00300093D0000127A0041
:102CB0000000004670B504460025207800F00100B1
:102CC000002872D0F948006800F0380010280CD0B5
:102CD000F648006800F03800182812D1F348183080
:102CE000006800F0030002280BD1F048103800689B
:102CF000C0F3404000286DD0606800286AD10120F0
:102D000070BD00BF6068B0F5803F08D1E74810385B
:102D1000006840F48030E549103908602EE06068B2
:102D200068B9E2481038006820F48030DF49103973
:102D300008600846006820F4802008601EE0606893
:102D4000B0F5A02F0DD1D9481038006840F480208C
:102D5000D649103908600846006840F480300860A1
:102D60000CE0D2481038006820F48030CF49103988
:102D700008600846006820F48020086000BF606892
:102D8000A0B1FEF7AFFF054608E0FEF7ABFF401B22
:102D900041F28831884201D90320B1E7C348103895
:102DA0000068C0F340400028EFD013E0FEF79AFF20
:102DB000054608E0FEF796FF401B41F28831884245
:102DC00001D903209CE7B94810380068C0F340409F
:102DD0000028EFD1207800F00200022847D1B34844
:102DE000006800F0380058B1B048006800F03800C2
:102DF00018283ED1AD481830006800F00300B8BB79
:102E0000AA4810380068C0F3800018B1E06808B91B
:102E1000012075E7A5481038006820F01900E16826
:102E20000843A24910390860FEF75CFF054606E03A
:102E3000FEF758FF401B022801D9032060E79B489A
:102E400010380068C0F380000028F1D097480C3893
:102E5000006820F47C304FF47C3292FAA2F2B2FA8D
:102E600082F221699140084390490C3908604AE098
:102E7000FFE7E06868B38D481038006820F019005B
:102E8000E1680843894910390860FEF72BFF0546C1
:102E900006E0FEF727FF401B022801D903202FE799
:102EA000824810380068C0F380000028F1D07F48C5
:102EB0000C38006820F47C304FF47C3292FAA2F295
:102EC000B2FA82F221699140084378490C390860CE
:102ED00019E076481038006820F001007349103975
:102EE0000860FEF7FFFE054606E0FEF7FBFE401B0E
:102EF000022801D9032003E76C4810380068C0F3AA
:102F000080000028F1D1207800F01000102877D13F
:102F10006648006800F0380008280CD06348006854
:102F200000F03800182823D160481830006800F0FD
:102F3000030001281CD15D4810380068C0F3002050
:102F400020B1E069802801D00120D9E657480C382B
:102F5000006820F0F8404FF0F84292FAA2F2B2FA7C
:102F600082F2216A9140084350490C39086047E0D9
:102F7000E06958B34D481038006840F080004B4974
:102F800010390860FEF7AEFE054606E0FEF7AAFE21
:102F9000401B022801D90320B2E6444810380068DB
:102FA000C0F300200028F1D040480C38006820F021
:102FB000F8404FF0F84292FAA2F2B2FA82F2216A95
:102FC0009140084339490C39086019E037481038F6
:102FD000006820F08000354910390860FEF782FE55
:102FE000054606E0FEF77EFE401B022801D90320BD
:102FF00086E62E4810380068C0F300200028F1D182
:10300000207800F00800082836D16069D0B1274840
:103010006430006840F00100244964310860FEF724
:1030200061FE054606E0FEF75DFE401B022801D961
:10303000032065E61D4864300068C0F340000028A6
:10304000F1D019E019486430006820F001001749F8
:1030500064310860FEF746FE054606E0FEF742FED4
:10306000401B022801D903204AE61048643000685A
:10307000C0F340000028F1D1207800F02000202883
:1030800034D1A069D8B109481038006840F48050A4
:10309000064910390860FEF725FE054608E0FEF7F0
:1030A00021FE401B022803D9032029E610440258C0
:1030B000AF480068C0F340300028F0D016E0AC48BC
:1030C000006820F48050AA490860FEF70BFE054610
:1030D00006E0FEF707FE401B022801D903200FE699
:1030E000A3480068C0F340300028F2D1207800F0F7
:1030F000040004287DD19F48006840F480709D49F9
:103100000860FEF7EFFD054606E0FEF7EBFD401B0D
:10311000642801D90320F3E59648006800F4807024
:103120000028F2D000BFA068012808D19048703074
:10313000006840F001008E49703108602DE0A06801
:1031400068B98B487030006820F001008849703100
:1031500008600846006820F0040008601DE0A068D0
:1031600005280DD182487030006840F00400804985
:10317000703108600846006840F0010008600CE00B
:103180007B487030006820F0010079497031086098
:103190000846006820F00400086000BFA068A0B1E5
:1031A000FEF7A0FD054608E0FEF79CFD401B41F23E
:1031B0008831884201D90320A2E56D48703000684B
:1031C000C0F340000028EFD013E0FEF78BFD05466A
:1031D00008E0FEF787FD401B41F28831884201D9A3
:1031E00003208DE5624870300068C0F3400000287D
:1031F000EFD1606A00287CD05D481030006800F094
:103200003800182876D0606A022874D158480068BF
:1032100020F0807056490860FEF764FD054606E020
:10322000FEF760FD401B022801D9032068E55048E5
:103230000068C0F340600028F2D100BFD4E90A1052
:1032400041EA00104A492831096840F2F3329143BB
:103250000843474928310860208E401EC0F308000B
:10326000616B491E4FF47E4202EA41210843218FDF
:10327000491ED20102EA014108433C21095D491E71
:10328000120202EA0161084339493031086000BF87
:10329000081D00684FF6F87188434FF6F87292FAED
:1032A000A2F2B2FA82F2A16C914008433049343163
:1032B00008602F482C30006820F00C00216C084377
:1032C0002B492C3108600846006820F00200616C30
:1032D000084327492C3108600846006840F48030D4
:1032E00008600846006840F400300860084600683E
:1032F00002E03BE038E01FE040F480200860084630
:10330000006840F0010008601948006840F08070D3
:1033100017490860FEF7E6FC054606E0FEF7E2FC0A
:10332000401B022801D90320EAE411480068C0F3D9
:1033300040600028F2D019E00D48006820F080704D
:103340000B490860FEF7CEFC054606E0FEF7CAFC16
:10335000401B022801D90320D2E405480068C0F3CD
:1033600040600028F2D101E00120C9E40020C7E458
:103370000044025800480258042808D14FF0E021C8
:10338000096941F004014FF0E022116107E04FF0BC
:10339000E021096921F004014FF0E022116170473A
:1033A00070B504462546681EB0F1807F01D3012028
:1033B0000FE0681E4FF0E02148610F214FF0FF3011
:1033C00001F028FD00204FF0E0218861072008610E
:1033D000002070BD7047704701460022002391F81D
:1033E000792091F87A3042EA030070472DE9F041E4
:1033F00004462068C569206807682068866805F06B
:103400000F08B8F1000F0DD105F0200050B107F002
:10341000200010B906F0805020B1204600F021FFB6
:10342000BDE8F081B8F1000F72D05D48304018B9A6
:1034300007F4907000287AD005F0010048B107F435
:10344000807030B1012021680862E06F40F0010017
:10345000E06705F0020048B106F0010030B102203B
:1034600021680862E06F40F00400E06705F00400A6
:1034700048B106F0010030B1042021680862E06F15
:1034800040F00200E06705F0080078B107F0200086
:1034900028B906F0805010B906F0010030B10820BC
:1034A00021680862E06F40F00800E067E06F70B3E9
:1034B00005F0200040B107F0200010B906F0805060
:1034C00010B1204600F0CDFEE06F00F0080020B9FA
:1034D0002068806800F0400018B3204600F0A1FE8C
:1034E0002068806800F04000B8B12068806820F053
:1034F000400021688860606F58B12A48616F086594
:10350000606FFEF73DFA10B1606F016D88470DE006
:103510000DE02046FFF75FFF08E02046FFF75BFF66
:1035200004E02046FFF757FF0020E06778E705F446
:10353000801078B106F4800060B14FF480102168EB
:103540000862202084F8790084F87A002046FFF78A
:1035500041FF65E705F0800048B107F0800010B931
:1035600006F4000018B1204601F092FB58E705F080
:10357000400030B107F0400018B1204600F061FE75
:103580004EE705F4000040B107F0804028B1206804
:10359000006820F080402168086000BF40E700001C
:1035A000010000100B42000810B504460CB90120C0
:1035B00010BDA06900B100E000BF94F8790028B9FF
:1035C000002084F87800204600F02AF8242084F8AF
:1035D00079002068006820F001002168086020461A
:1035E00000F084FE012800D1E2E7606B10B12046B4
:1035F00000F05CFD2068406820F49040216848603D
:103600002068806820F02A002168886020680068AF
:1036100040F0010021680860204600F0BCFDC7E7CB
:1036200010B586B004462149206888423BD100BFCE
:103630001F48006840F001001D4908600846006806
:1036400000F00100009000BF00BF00BF184810301C
:10365000006840F010001649103108600846006804
:1036600000F01000009000BF00BF4FF40070019008
:103670000220029001200390022004900720059070
:1036800001A90C48FEF702FA4FF48060019001A9ED
:103690000848FEF7FBF92520FEF7BBFD0322114683
:1036A0002520FEF7C6FD06B010BD00000010014049
:1036B000E04402580000025810B5034693F87A001F
:1036C000202867D101B10AB9012010BD00BF93F8CD
:1036D0007800012801D10220F7E7012083F8780063
:1036E00000BF5966A3F86820A3F86A2000BF986855
:1036F000B0F5805F0AD1186920B940F2FF10A3F835
:103700006C001CE0FF20A3F86C0018E0986848B932
:10371000186918B9FF20A3F86C0010E07F20A3F807
:103720006C000CE09868B0F1805F08D1186918B996
:103730007F20A3F86C0002E03F20A3F86C0000BFDC
:103740000020D867222083F87A0000BF002083F889
:10375000780000BF1868806840F001001C68A06015
:103760001868006800F0005060B11868006840F404
:1037700080701C6820601868806840F080501C6869
:10378000A06005E01868006840F490701C68206034
:1037900000209AE7022098E71D4A0168914236D13D
:1037A0001C49098801F4004189BB1A49098801F4C0
:1037B000804171B1184909780A2903D00021154ABE
:1037C000118024E01349098841F40041114A118015
:1037D0001DE0114909780D2906D10E49098841F4E7
:1037E00080410C4A118012E00B490978094A12887D
:1037F000C2F30D02094B995406490988491C054A30
:10380000118011460988C72901DD00211180704708
:1038100000100140480000244A000024D006002483
:10382000704700BFFEE701688969C1F3400111B12B
:103830000021026891620168896901F0010129B9DA
:103840000168896941F001010268916170470000D7
:1038500070B504460D46164620688069C0F3001016
:10386000002837D013E0681C88B125B1FEF73AFA7A
:10387000801BA8420BD9202084F84100002084F846
:10388000420000BF84F8400000BF032070BD2068E4
:103890008069C0F340100028E5D010202168C8617D
:1038A00020202168C8612046FFF7BDFF20684068DE
:1038B000094908402168486004206064202084F899
:1038C0004100002084F8420000BF84F8400000BF9F
:1038D0000120DBE70020D9E700E800FE2DE9F843EE
:1038E0000446894615461E46DDE908781E48F2B2B0
:1038F000002349460090204600F080F842463946B1
:10390000204600F0EBF838B1606C042802D10120A9
:10391000BDE8F8830320FBE7012E03D1E8B221685C
:10392000886213E0C5F30720216888624246394661
:10393000204600F0D3F830B1606C042801D101209A
:10394000E6E70320E4E7E8B2216888623B4600220C
:1039500040212046CDF8008000F06AF808B103202D
:10396000D6E70020D4E70000002000802DE9F843CE
:103970000446894615461E46DDE908781E48F2B21F
:10398000C30249460090204600F038F842463946C6
:10399000204600F0A3F838B1606C042802D1012061
:1039A000BDE8F8830320FBE7012E03D1E8B22168CC
:1039B000886213E0C5F307202168886242463946D1
:1039C000204600F08BF830B1606C042801D1012052
:1039D000E6E70320E4E7E8B2216888623B4600227C
:1039E00080212046CDF8008000F022F808B10320A5
:1039F000D6E70020D4E7000000200080F0B5059C49
:103A000005686D684FF4806606EA545666F0FC2639
:103A100046F4C046B543C1F309064FF47F0707EAF1
:103A200002473E431E432643354306687560F0BD9A
:103A30002DE9F04104460E4617461D46DDF8188074
:103A400015E0681C98B12DB1FEF74CF9A0EB080009
:103A5000A8420CD9202084F84100002084F84200BC
:103A600000BF84F8400000BF0320BDE8F08120685B
:103A700080693040B04201D1012000E00020B8420E
:103A8000DFD00020F1E770B504460D4616461DE074
:103A9000324629462046FFF7DBFE08B1012070BD03
:103AA00025B1FEF71FF9801BA8420FD9606C40F0CA
:103AB00020006064202084F84100002084F8420047
:103AC00000BF84F8400000BF0320E8E72068806959
:103AD000C0F340100028DBD00020E0E770B50446BA
:103AE0000D4616461FE0324629462046FFF7B0FE37
:103AF00008B1012070BD681CA8B125B1FEF7F2F82D
:103B0000801BA8420FD9606C40F020006064202028
:103B100084F84100002084F8420000BF84F840008F
:103B200000BF0320E6E720688069C0F3400000285A
:103B3000D9D00020DEE7000000B587B000BF1248F2
:103B4000006840F00200104908600846006800F074
:103B50000200019000BF00BF4FF4406002900120BE
:103B6000039004900320059002A90848FDF78EFFFA
:103B7000012291020548FEF7AFF80122D102034865
:103B8000FEF7AAF807B000BDE0440258000402584E
:103B900010B50A480A4908600021094881600121DE
:103BA000C160002101614161C1610162FEF7A0F8BD
:103BB00010B104A0FCF7E8FC10BD00000054004068
:103BC000645B002469696320696E697420657272A0
:103BD0006F720D0A0000000000BFFEE77047000092
:103BE00010B50023234C236000BF00BF00BFBFF30C
:103BF0004F8F00BF00BF00BF231F1868C0F34E31B6
:103C000000BFC0F3C90200BF43F6E07303EA4113EB
:103C10004FF0404404EA82742343174C236000BFF2
:103C200000BF131EA2F10102EED10B1EA1F1010192
:103C3000E7D100BF00BF00BFBFF34F8F00BF00BF81
:103C400000BF0C4B703B1B6843F48033094C703C45
:103C5000236000BF00BF00BFBFF34F8F00BF00BF96
:103C600000BF00BF00BF00BFBFF36F8F00BF00BF2A
:103C700000BF10BD84ED00E060EF00E000BF00BFBA
:103C800000BFBFF34F8F00BF00BF00BF00BF00BF2A
:103C900000BFBFF36F8F00BF00BF00BF00201449FB
:103CA000086000BF00BF00BFBFF34F8F00BF00BF61
:103CB00000BF00BF00BF00BFBFF36F8F00BF00BFDA
:103CC00000BF0C48006840F400300A49086000BF9B
:103CD00000BF00BFBFF34F8F00BF00BF00BF00BFDA
:103CE00000BF00BFBFF36F8F00BF00BF00BF7047B2
:103CF00050EF00E014ED00E08AB0C4E0624A63498E
:103D0000634802F05BFA6048407800F00100002848
:103D10007ED05D484078C0F340000028F8D05D4870
:103D20000021016081800146584802F09DF95949FF
:103D3000B1F9000002F066FA574880ED000A5549D3
:103D4000B1F9020002F05EFA534880ED010A5149D0
:103D5000B1F9040002F056FA4F4880ED020AD0EDA6
:103D6000000AB0EE600A01F0BFFE8DED070A4A4876
:103D7000D0ED010AB0EE600A01F01AFF8DED080ADD
:103D80004548D0ED020AB0EE600A01F075FF8DEDF6
:103D9000090ADDED091AB0EE611ADDED081AF0EE40
:103DA000610ADDED071AB0EE610A03F077FB3648D1
:103DB0000078C0F3C000002862D0384800210160BC
:103DC00081800146324802F058FB3449B1F90000C5
:103DD00002F00CFA324880ED000A3049B1F90200D5
:103DE00002F004FA2E4880ED010A2C49B1F90400D2
:103DF00002F0FCF92A4880ED020A90ED020AB7EEC3
:103E0000C00A8DED020B90ED010AB7EEC00A00E08A
:103E100036E08DED000B90ED001AB7EEC11AB0EE52
:103E2000410B53EC102B1FA12648FCF7B9FB254989
:103E300025A0FCF7A9FB00200490059006901648E9
:103E4000D0ED000AB0EE600A01F022FD8DED070A08
:103E50001148D0ED010AB0EE600A01F07DFD8DED54
:103E6000080A0D48D0ED020AB0EE600A01F0D8FD54
:103E70008DED090A04AA0A4907A801F06FFF00BFE7
:103E8000012003F063FD39E714000024C406002478
:103E9000B806002400000024AC0200240C0000241A
:103EA000C40200244D4147202D205B6D475D3A251B
:103EB000342E32660925342E32660925342E3266B8
:103EC0000D0A0000D0020024257300001CB5044632
:103ED00003F0C0FB0848022100233222CDE9001084
:103EE00006A1094804F05CFB0848006803F068FD7F
:103EF00003F0F8FB1CBD00001C0000244C454430BE
:103F00005461736B00000000F93C000818000024A5
:103F10002DE9F0419CB080460C4615461E46002710
:103F20003748006820F004003549086000BF0020D1
:103F3000009033480C30006840F4404030490C3168
:103F400008600846006800F44040009000BF00BFD1
:103F500000BF2B480C30006800F40050B0F5005F43
:103F6000F7D10120019000040290002004900890F5
:103F700002200A9002210B91CDF834800C940E950A
:103F80000F96002112910821119101A8FEF792FECF
:103F900007460FB100BFFEE73F20149003201590A5
:103FA00000201690082017904020199000011A90C8
:103FB0004020189050201B90022114A8FEF7E8FB27
:103FC00007460FB100BFFEE70E48006840F08000D2
:103FD0000C49086000BF0B48F430006840F0020054
:103FE0000849F43108600846006800F002000090BB
:103FF00000BF00BFFDF740FD1CB0BDE8F081000030
:104000000C4802580044025810B504F0F9FA01288F
:1040100001D003F077FF10BD2048006840F4700025
:104020001E4908601E48006840F001001C490860F5
:1040300000201B49103108601948006819490840E0
:10404000174908600020164918310860091D0860EA
:10405000091D0860124928310860091D0860091D02
:104060000860091D0860091D0860091D0860091D18
:104070000860091D08600A48006820F4802008498B
:104080000860002006496031086001200649086088
:10409000C0060249803908607047000088ED00E0E2
:1040A000004402587FEDF6EA0881005190F8341080
:1040B00001F0010139B10168496821F40031826BD6
:1040C00011430268516090F8341001F0020139B1D7
:1040D0000168496821F48031C26B11430268516064
:1040E00090F8341001F0040139B10168496821F4F5
:1040F0008021026C11430268516090F8341001F085
:10410000080139B10168496821F40041426C11434A
:104110000268516090F8341001F0100139B1016863
:10412000896821F48051826C11430268916090F893
:10413000341001F0200139B10168896821F400517F
:10414000C26C11430268916090F8341001F0400194
:1041500099B10168496821F48011026D1143026828
:104160005160016DB1F5801F07D10168496821F4E4
:10417000C001426D11430268516090F8341001F0A3
:10418000800139B10168496821F40021826D114331
:1041900002685160704738B5044600250020E0678A
:1041A000FDF7A0FD05462068006800F0080008281B
:1041B0000CD16FF07E402B4600224FF4001100908E
:1041C000204600F0A6FD08B1032038BD2068006835
:1041D00000F0040004280CD16FF07E402B46002232
:1041E0004FF480010090204600F093FD08B10320B9
:1041F000EBE7202084F8790084F87A0000BF0020E3
:1042000084F8780000BF00BFDFE770B50546AC6BEF
:104210000020A4F86A00A4F862002046FFF7DBF84B
:1042200070BD0168096821F490710268116001682D
:10423000896821F0010102689160202180F87A10DC
:10424000704710B504462068006820F040002168DF
:104250000860202084F879002046FFF7E1FA00206A
:1042600010BD2DE9F0410446B4F86C7094F87A0062
:10427000222833D12068858CA068B0F5805F09D1F1
:10428000206938B9666E05EA07003080606E801CD0
:10429000606605E0F8B22840626E511C61661070DD
:1042A000B4F86A00401E80B2A4F86A00A0B9206881
:1042B000006820F49070216808602068806820F011
:1042C000010021688860202084F87A002046FFF7EA
:1042D00063FA0020BDE8F0810020FBE72068008B36
:1042E00040F00800216808830220F3E72DE9F04F31
:1042F00089B0044600254FF08008A946AA46002050
:104300000890FA492068884201D1012000E000208D
:1043100000B100E000BFA06AB0F1005F00D100BFB3
:104320002169A068084361690843E16940EA010521
:10433000A06A054320680068ED49084028432168C9
:1043400008602068406820F44050E1680843216814
:104350004860A569E5492068884201D1012000E054
:10436000002008B9206A0543A06AB0F1005F03D1BC
:10437000D4E90B010843054320688068DD49084003
:104380002843216888602068C06A20F00F00616AB5
:1043900008432168C86200BFD7492068884224D1F9
:1043A000D648006800F03800182814D005DC48B161
:1043B00008280AD0102817D10AE020280ED0282873
:1043C00012D10EE04FF001080EE04FF004080BE0B0
:1043D0004FF0400808E04FF0080805E04FF01008E3
:1043E00002E04FF0200800BF17E1C549206888426D
:1043F0001DD1C248006800F00700062816D2DFE889
:1044000000F00306090C0F124FF000080EE04FF009
:1044100004080BE04FF0400808E04FF0080805E002
:104420004FF0100802E04FF0200800BFF5E0B5495A
:10443000206888421DD1B148006800F007000628B6
:1044400016D2DFE800F00306090C0F124FF0000847
:104450000EE04FF004080BE04FF0400808E04FF08A
:10446000080805E04FF0100802E04FF0200800BFF8
:10447000D3E0A549206888421DD1A048006800F01B
:104480000700062816D2DFE800F00306090C0F1219
:104490004FF000080EE04FF004080BE04FF040082A
:1044A00008E04FF0080805E04FF0100802E04FF078
:1044B000200800BFB1E09549206888421DD18F488F
:1044C000006800F00700062816D2DFE800F00306B7
:1044D000090C0F124FF000080EE04FF004080BE03B
:1044E0004FF0400808E04FF0080805E04FF01008D2
:1044F00002E04FF0200800BF8FE085492068884225
:1045000024D17E48006800F03800182814D005DC5B
:1045100048B108280AD0102817D10AE020280ED068
:10452000282812D10EE04FF001080EE04FF00408E9
:104530000BE04FF0400808E04FF0080805E04FF0AE
:10454000100802E04FF0200800BF66E071492068C3
:1045500088421DD16948006800F00700062816D27D
:10456000DFE800F00306090C0F124FF000080EE020
:104570004FF004080BE04FF0400808E04FF0080847
:1045800005E04FF0100802E04FF0200800BF44E0C3
:104590006149206888421DD15848006800F0070032
:1045A000062816D2DFE800F00306090C0F124FF0C0
:1045B00000080EE04FF004080BE04FF0400808E060
:1045C0004FF0080805E04FF0100802E04FF0200817
:1045D00000BF22E04549206888421ED14748001D9F
:1045E000006800F00700062816D2DFE800F0030696
:1045F000090C0F124FF002080EE04FF004080BE018
:104600004FF0400808E04FF0080805E04FF01008B0
:1046100002E04FF0200800BF00BF00BF3349206810
:10462000884201D1012000E0002000285DD0002553
:10463000B8F1100F33D009DCB8F1020F10D0B8F187
:10464000040F11D0B8F1080F2ED117E0B8F1200FE8
:1046500027D0B8F1400F0CD0B8F1800F24D124E05E
:10466000FDF754FE054623E005A8FDF765FE069D0F
:104670001EE002A8FDF776FF039D19E01F4854389D
:104680000068C0F3401040B11C4854380068C0F3C3
:10469000C101224820FA01F500E0204D08E0204D3C
:1046A00006E04FF4004503E000BF0120089000BF82
:1046B00000BF002D0AD0606800EB4000A84203D87C
:1046C00060680003A84202D201200890D4E2B8F149
:1046D000100F7CD026DCB8F1020F2DD0B8F1040FFA
:1046E00052D0B8F1080F73D19EE03FE1000C0058A2
:1046F000F369FFCFFFF4FF1100100140544402584A
:104700000044004000480040004C00400050004081
:104710000014014000780040007C00400090D0036D
:1047200000093D00B8F1200F7DD0B8F1400F54D002
:10473000B8F1800FD7D109E1FDF7E8FD0027064663
:10474000FB49606A31F810C062463B463046394644
:10475000FBF7A2FE4FF4807600220346A3FB060778
:1047600001FB067103FB02136168490806467118D4
:104770005A41CDE900126668324600230846019985
:10478000FBF78AFE0546E4E005A8FDF7D5FDDDF858
:1047900018C0E749606A31F810B05A4600236046F5
:1047A0001946FBF779FE4FF4807C0022A0FB0C3BFE
:1047B00001FB0CB100FB0210616849085E1840EB78
:1047C0000201D4F804C062460023304601E079E0DB
:1047D000BBE0FBF761FE0546BBE002A8FDF7C2FEA9
:1047E000DDF80CC0D249606A31F810B05A46002397
:1047F00060461946FBF750FE4FF4807C0022A0FB78
:104800000C3B01FB0CB100FB0210616849085E180B
:1048100040EB0201D4F804C0624600233046FBF7A7
:104820003BFE054695E06EE0C2480068C0F34010CC
:1048300038B3C0480068C0F3C101BF4820FA01FC8A
:10484000BB49606A31F810B05A46002360461946E9
:10485000FBF722FE4FF4807C0022A0FB0C3B01FB07
:104860000CB100FB0210616849085E1840EB0201C0
:10487000D4F804C0624600233046FBF70DFE05461F
:104880001FE0AB49606A31F810C062460023AA48B5
:104890001946FBF701FE4FF4807C0022A0FB0C3B85
:1048A00001FB0CB100FB0210616849085E1840EB87
:1048B0000201D4F804C0624600233046FBF7ECFD49
:1048C000054646E09A49606A31F810C06246002306
:1048D0009A481946FBF7E0FD4FF4807C0022A0FBCC
:1048E0000C3B01FB0CB100FB0210616849085E182B
:1048F00040EB0201D4F804C0624600233046FBF7C7
:10490000CBFD054625E08A49606A31F810C0624651
:1049100000234FF400401946FBF7BEFD4FF4807CA6
:104920000022A0FB0C3B01FB0CB100FB02106168F4
:1049300049085E1840EB0201D4F804C06246002327
:104940003046FBF7A9FD054603E000BF01200890B3
:1049500000BF00BFB5F5407F05D3B5F5801F02D27B
:104960002068C56088E10120089085E1E069B0F524
:10497000004F7CD1B8F1100F7AD00CDCB8F1000FE9
:1049800013D0B8F1010F21D0B8F1040F2FD0B8F136
:10499000080F6ED151E0B8F1200F6BD0B8F1400F85
:1049A00038D0B8F1800F64D197E0FEF735F8604A4F
:1049B000616A32F81110B0FBF1F04000616800EB61
:1049C0005100B0FBF1F01FFA80FA89E0FEF73AF8E7
:1049D000574A616A32F81110B0FBF1F0400061688B
:1049E00000EB5100B0FBF1F01FFA80FA78E005A867
:1049F000FDF7A2FC06994E4A606A32F81000B1FB3E
:104A0000F0F04000616800EB5100B0FBF1F01FFADC
:104A100080FA65E002A8FDF7A5FD0399444A606AA3
:104A200032F81000B1FBF0F04000616800EB51007B
:104A3000B0FBF1F01FFA80FA52E03E480068C0F384
:104A40004010C0B13B480068C0F3C1013A48C840BB
:104A5000374A616A32F81110B0FBF1F0400061682A
:104A600000EB5100B0FBF1F01FFA80FA12E044E0D5
:104A700011E031E01FE02E49606A31F810002E4944
:104A8000B1FBF0F04000616800EB5100B0FBF1F0C9
:104A90001FFA80FA24E02649606A31F8100027499D
:104AA000B1FBF0F04000616800EB5100B0FBF1F0A9
:104AB0001FFA80FA14E01E49606A31F810004FF4C2
:104AC0000041B1FBF0F04000616800EB5100B0FB29
:104AD000F1F01FFA80FA03E000BF0120089000BF48
:104AE00000BF4FF6F0700AEA0009CAF3420049EA33
:104AF00000092068C0F80C90BEE0B8F1100F7CD01F
:104B00000CDCB8F1000F1BD0B8F1010F29D0B8F1BF
:104B1000040F37D0B8F1080F70D159E0B8F1200F69
:104B20006DD0B8F1400F40D0B8F1800F66D19FE052
:104B3000CA8B0008004402580090D00300093D00D1
:104B4000FDF76AFF4E4A616A32F81110B0FBF1F0CE
:104B5000616800EB5100B0FBF1F080B22168C860E1
:104B600089E0FDF76FFF464A616A32F81110B0FB29
:104B7000F1F0616800EB5100B0FBF1F080B2216808
:104B8000C86078E005A8FDF7D7FB06993C4A606A43
:104B900032F81000B1FBF0F0616800EB5100B0FB9F
:104BA000F1F080B22168C86065E002A8FDF7DAFC88
:104BB0000399334A606A32F81000B1FBF0F0616883
:104BC00000EB5100B0FBF1F080B22168C86052E008
:104BD0002C480068C0F34010C0B12A480068C0F3F8
:104BE000C1012948C840264A616A32F81110B0FB59
:104BF000F1F0616800EB510002E017E037E025E0DA
:104C0000B0FBF1F080B22168C8600EE01C49606A18
:104C100031F810001C49B1FBF0F0616800EB510065
:104C2000B0FBF1F080B22168C86024E01449606AEA
:104C300031F810001549B1FBF0F0616800EB51004C
:104C4000B0FBF1F080B22168C86014E00C49606AE2
:104C500031F810004FF40041B1FBF0F0616800EB57
:104C60005100B0FBF1F080B22168C86003E000BFE2
:104C70000120089000BF00BF089809B0BDE8F08F80
:104C8000CA8B0008004402580090D00300093D0080
:104C9000014691F87900212839D1B1F86200C8B9EC
:104CA0000868006800F0005030B10868806820F49F
:104CB00000000B68986005E00868006820F080003C
:104CC0000B6818600868006840F040000B681860C6
:104CD000002070478868B0F5805F0BD1086948B93B
:104CE000CA6D1088C0F308000B681885C86D801C59
:104CF000C86505E0CB6D581CC86518780B68188529
:104D0000B1F86200401EA1F862000020E1E7022035
:104D1000DFE72DE9F04104460D4617469846069E0A
:104D200021E0701CF8B12EB1FCF7DCFFA0EB08000D
:104D3000B04218D92068006820F4D070216808605B
:104D40002068806820F0010021688860202084F8B5
:104D5000790084F87A0000BF002084F8780000BF52
:104D60000320BDE8F0812068C0692840A84201D135
:104D7000012000E00020B842D3D00020F1E700007D
:104D800070B500240F4D1048FEF730FB00BF03E064
:104D9000641CAC4200D904E00B48FEF71DFB202840
:104DA000F6D100BF002403E0641CAC4200D906E049
:104DB000012206490448FEF77FFC0028F4D100BF19
:104DC00070BD0000FFFF0100980700244A00002486
:104DD00000BFFEE703B401984100009850EAC120EB
:104DE00018BF04204A0D18BF40F0010040F2FF72C6
:104DF000B2EB515F08BF40F00200012808BF052058
:104E000002B0704702480068C0F3022070470000FB
:104E10000CED00E010B5002804DB0A07130E054A6C
:104E2000135406E00A07140E034A00F00F031B1F79
:104E3000D45410BD00E400E018ED00E000000000D4
:104E400070B56B482DED020B2DED0A8B82B00D9DD8
:104E500025F000449FED68BB9FED699B84422EDBEB
:104E6000A4F140510C98A1F17F6108430FD066482E
:104E7000844202DC18D10C98B0B19DED0C0B02B04D
:104E8000BDEC0A8B02B0BDE8704000F028BB9DED80
:104E90000C0B9DED0C1B20EE0B0B01EE090B02B071
:104EA000BDEC0A8B02B070BD0120FBF71CFD02B007
:104EB000BDEC0A8B02B0BDE8704000F019BB53484E
:104EC0009FED538B844230DA9DED0C0BB4F1795F8A
:104ED0000ADA51EC100BFFF77DFF042808BF00F041
:104EE00013FB9DED0C0BDAE720EE009B4A480621F0
:104EF000B0EE490B784400F0BAFA20EE09AB47480F
:104F0000B0EE490B0421784400F0B1FA09EE008BB1
:104F10008AEE080B8DED000B9DED0C0B9DED0C1B2F
:104F20009DED002B01EE020BB9E79DED0C0B51EC52
:104F3000100B00F0A1FC41EC100B9FED391B3A481F
:104F400038EE400B06218DED000B20EE01ABB0EEEC
:104F50004A0B784400F08BFA20EE0ACB3348B0EECF
:104F60004A0B0421784400F082FA0AEE008B51ECDF
:104F70001A0B02F0D3FA41EC110B2D489FED2E2BAA
:104F8000A0420EDC8CEE080B8DED000B9DED003B7E
:104F9000B0EE410B01EE030B10EE029B3BEE490B12
:104FA00021E08DED001B002000909DED000B9DED9C
:104FB000003B00EE43AB31EE000B21EE021B8AEE0C
:104FC000003B8CEE080B03EE429B9DED003B11EE87
:104FD000009B9FED1B1BB0EE410B03EE420B39EE25
:104FE000400B31EE400B002DD8BFB1EE400B56E721
:104FF0000000F03F00000000182D4454FB21F93F51
:10500000075C143326A6913C0000F07F0000E03FCF
:10501000000000000000F03F083D0000263D0000B9
:10502000000000000000E03FAA3C0000C83C000077
:105030003333EF3F0000000000000000000000409C
:10504000182D4454FB21E93F70B565482DED020B46
:105050002DED048B059D25F00044A04218DC61482D
:10506000844202DC0AD1049840B19DED040BBDECF2
:10507000048B02B0BDE8704000F031BA002DCCBF07
:105080009FED590B9FED5A0BBDEC048B02B070BD28
:105090005948A04215DD5948A042D8BF4FF0FF340F
:1050A00055DD9DED040B51EC100BFFF793FE04282A
:1050B00008BF00F029FA9DED040BBDEC048B02B093
:1050C00070BD9DED040B51EC100B00F0D5FBCDE94C
:1050D00004014B489FED4C0BA0421CDD4C48A04204
:1050E0000BDD9DED042B00249FED4B1B12EE010BFD
:1050F00032EE011B80EE012B27E09DED041B9DEDA0
:10510000042B012431EE401B32EE000B81EE002B0C
:105110008DED042B1BE04248A0420FDD9DED042BDA
:1051200002249FED411B9DED043B32EE412B03EE2B
:10513000010B82EE001B8DED041B08E09DED040BBE
:105140009FED3B1B032481EE002B8DED042B9DED89
:10515000040B3948062120EE009B29EE098BB0EEA6
:10516000480B784400F083F920EE099B3348B0EEF9
:10517000480B0521784400F07AF920EE080B002C4A
:105180000BDA9DED042B39EE001B9DED040BBDECFD
:10519000048B02B002EE410B70BD2948784439EE11
:1051A000000B00EBC4009DED042B90ED001B254887
:1051B00012EE001B9DED040B31EE400B784400EB2A
:1051C000C400002D90ED001B31EE400BB8BFB1EED6
:1051D000400BBDEC048B02B070BD0000000000006D
:1051E000000010440000F07F182D4454FB21F93FCB
:1051F000182D4454FB21F9BF0000DC3F0000203E85
:105200000000F33F00000000000000000000F03F3D
:105210000000E63F00000000000000000000004029
:105220000080034000000000000000000000F83F84
:10523000000000000000F0BF523B0000183B0000DF
:10524000D03A0000903A000070B55F4E2DED040B8F
:105250002DED028B82B0DDF81CC0DDE905235C4238
:105260002CF000411C4341EAD474049D22F000401C
:10527000B44205D86C422C4340EAD474B4420BD9F2
:105280009DED061B9DED040B02B0BDEC028B04B03E
:10529000BDE8704000F026B9ACF14054A4F17F6441
:1052A0001C430BD0022404EAAC7444EAD2740543D4
:1052B0009FED478B9FED482B0DD016E09DED040B25
:1052C00051EC100B00F035F941EC100B02B0BDECC5
:1052D000028B04B070BD002C14BF012C9DED040B9B
:1052E000F4D0022C2ED0032C2FD00B439FED3C1B6F
:1052F0009FED3D0B0AD0B1421DD1B04209D121F042
:10530000804120F080400791059014E0002ADDDA0A
:1053100015E0374B7B44002C08BF93ED000BD5D034
:10532000012C04BF93ED000BB1EE400BCED0022C4C
:1053300008D0032C09D0B0420AD1002AC6DAB0EE58
:10534000410BC3E7B0EE480BC0E7B0EE420BBDE740
:10535000401A00153C28C8BF8DED000B17DCBCF1CE
:10536000000FBEBF10F13C0F9FED230B8DED000B26
:105370000DDB9DED041B9DED062B81EE020B51EC28
:10538000100B00F079FA00F0D4F8CDE90001002C00
:1053900008BF9DED000B99D0012C0CD09DED001B9A
:1053A0009FED170B022C31EE400B0CBF38EE400B7B
:1053B00030EE480B8AE7019880F0004001909DEDA7
:1053C000000B83E7000000000000F07F00000000F9
:1053D000182D4454FB210940182D4454FB2109C0C9
:1053E000182D4454FB21F9BF182D4454FB21F93FDB
:1053F000D0390000000000000000000000000000A4
:10540000075C143326A6A13C00B52DED028BB1EE4E
:10541000C08B83B018EE100A18EE901A8DED008B39
:10542000002818BF0120084320F00040C0F17F6031
:1054300000F1E040C00F14D010EE101A10EE900AE8
:105440008DED000B002918BF0121084320F000401A
:10545000C0F17F6000F1E040C00F04BF0120FBF706
:1054600042FAB0EE480B03B0BDEC028B00BD491E02
:1054700000EBC102B0EE401B92ED000B31F00602D2
:105480000DD0491E00EBC102B0EE403B92ED002B67
:1054900031F00602B0EE420B03EE010BF1D102290E
:1054A00014D004290AD0062918BF704790ED0A2BA2
:1054B00000EE012B90ED080B02EE010B90ED062B98
:1054C00000EE012B90ED040B02EE010B90ED022B90
:1054D00000EE012B90ED000B02EE010B704730EE59
:1054E000000B704730EE010B704700000000000019
:1054F0009FED031B81EE010B7047000000000000D0
:1055000000000000000000009FED030B20EE000BE8
:1055100070470000000000000000000000000010C4
:1055200030380A2801D2012070470020704700BFA0
:10553000704710B541EC100BFFF786FD51EC100BD6
:1055400010BD00000246DFED300AB0EE600A002018
:1055500008E002EB8003D3ED000A70EE800AB0EEA3
:10556000600A401C8842F4DBF2EE000A80EE201A4A
:10557000B0EE410AF2EE000AB4EEE00AF1EE10FAE3
:1055800004DBDFED220AB0EE600A3CE0F1EE0C0A2B
:10559000B4EEE00AF1EE10FA0BDBF2EE000AB4EE24
:1055A000E00AF1EE10FA04D2DFED190AB0EE600A5B
:1055B00029E0F1EE000AB4EEE00AF1EE10FA0BDB9E
:1055C000F1EE0C0AB4EEE00AF1EE10FA04D2DFEDCF
:1055D000110AB0EE600A16E0F0EE080AB4EEE00A36
:1055E000F1EE10FA0BDBF1EE000AB4EEE00AF1EE98
:1055F00010FA04D2F0EE000AB0EE600A03E0DFED2C
:10560000060AB0EE600A7047000000009A998940CF
:1056100033335340333313406666A63F10B51A4800
:1056200000681A49086002F0FBFF17490860084645
:10563000006816490968401A42F2107188421FDC5E
:1056400013480068022805DA11480068401C104918
:10565000086018E00E48006802280BD10C4800686A
:10566000401C0B4908600B48006809680844094958
:10567000086008E007480068401C0649086002E02E
:1056800001200349086010BDA00200249C020024F0
:10569000980200249402002470B504460420FDF70B
:1056A0006BFE0C48046025464FF47A704543012098
:1056B000094908804FF0E020006940F002004FF0F7
:1056C000E021086108464561006940F00100086179
:1056D00070BD00003C0000244000002410B52DEDFA
:1056E000028BB0EE408A364890ED000AB5EEC00A53
:1056F000F1EE10FA02D180ED008A5BE03048D0ED87
:10570000000AB0EE480A00F06DF8002852D02D488B
:1057100000682D49086002F083FF2C4908600846A4
:10572000006829490968401A29490968884215DB37
:10573000284890ED000A2848D0ED000A30EE600AB3
:105740002648D0ED000AB4EEE00AF1EE10FA05DBCF
:105750001E4800681B490860FFF760FF1B4800688F
:1057600019490968401A1A490968884222DB194810
:1057700090ED000A1848D0ED000A30EE600A184893
:10578000D0ED000AB4EEE00AF1EE10FA12DB0F4899
:1057900000680C4908600F48D0ED000A0E4890EDF3
:1057A000001A70EEC10AB0EE600A00F0B7FF0B48B5
:1057B00080ED000A024880ED008ABDEC028B10BD2E
:1057C00060020024780200247C020024800200246D
:1057D0008402002470020024740200248802002441
:1057E0008C0200241E4800781E490870B4EEE00ABE
:1057F000F1EE10FA08DB0120194908701A48006818
:10580000401C1949086008E01748006817490860FB
:10581000002015490860124908701148007890B9B5
:105820001048007878B111480068022806DAB3EE13
:10583000041AF4EEC10AF1EE10FA04DB0C48C0EDD4
:10584000000A012070470748007838B904480078FA
:1058500020B10848C0ED000A0020F3E70020F1E77E
:105860006502002464020024680200246C02002403
:10587000700200247402002482B0CDE9000121F0FE
:10588000004001909DED000B02B051EC100B7047F1
:10589000F0EE400A274890ED000A274890ED001AE4
:1058A00020EE010A254880ED000A254890ED000A07
:1058B000244890ED001A30EE010A234880ED000ADA
:1058C00090ED000A214890ED001A30EE010A1E48C2
:1058D00090ED001AC1EE001A1D48C0ED001A1D48D7
:1058E00090ED001A1548D0ED001AB0EE600A01EEF6
:1058F000610A90ED001A1648D0ED001A01EE801AE8
:105900000D4880ED001A124890ED001A1148D0EDB4
:10591000001AB7EE000A01EE610A0B4890ED001A7A
:1059200020EE010A064880ED000A034890ED000AC7
:1059300070470000780100248801002480010024C1
:105940008C0100246C0100248401002470010024D7
:10595000900100247C010024F0EE400A274890EDDD
:10596000000A274890ED001A20EE010A254880ED34
:10597000000A254890ED000A244890ED001A30EE08
:10598000010A234880ED000A90ED000A214890EDBD
:10599000001A30EE010A1E4890ED001AC1EE001AFE
:1059A0001D48C0ED001A1D4890ED001A1548D0EDB5
:1059B000001AB0EE600A01EE610A90ED001A164876
:1059C000D0ED001A01EE801A0D4880ED001A124841
:1059D00090ED001A1148D0ED001AB7EE000A01EE62
:1059E000610A0B4890ED001A20EE010A064880ED8E
:1059F000000A034890ED000A70470000A00100244F
:105A0000B0010024A8010024B40100249401002462
:105A1000AC01002498010024B8010024A401002452
:105A2000F0EE400A274890ED000A274890ED001A52
:105A300020EE010A254880ED000A254890ED000A75
:105A4000244890ED001A30EE010A234880ED000A48
:105A500090ED000A214890ED001A30EE010A1E4830
:105A600090ED001AC1EE001A1D48C0ED001A1D4845
:105A700090ED001A1548D0ED001AB0EE600A01EE64
:105A8000610A90ED001A1648D0ED001A01EE801A56
:105A90000D4880ED001A124890ED001A1148D0ED23
:105AA000001AB7EE000A01EE610A0B4890ED001AE9
:105AB00020EE010A064880ED000A034890ED000A36
:105AC00070470000C8010024D8010024D001002440
:105AD000DC010024BC010024D4010024C001002406
