:020000040800F2
:10000000A05B00240504000895240008CF23000805
:1000100091240008B9090008DD3400080000000040
:10002000000000000000000000000000490300087C
:10003000D9090008000000009D03000815270008EA
:100040001F0400081F0400081F0400081F04000804
:100050001F0400081F0400081F0400081F040008F4
:100060001F0400081F0400081F0400081F040008E4
:100070001F0400081F0400081F0400081F040008D4
:100080001F0400081F0400081F0400081F040008C4
:100090001F0400081F0400081F0400081F040008B4
:1000A0001F0400081F0400081F0400081F040008A4
:1000B0001F0400081F0400081F0400081F04000894
:1000C0001F0400081F0400081F0400081F04000884
:1000D0001F0400088D3400081F0400081F040008D6
:1000E0001F0400081F040008000000001F0400088F
:1000F0001F0400081F0400081F0400081F04000854
:100100001F0400081F0400081F0400081F04000843
:100110001F0400081F0400081F0400081F04000833
:100120001F0400081F0400081F0400081F04000823
:100130001F0400081F0400081F0400081F04000813
:1001400000000000000000000000000000000000AF
:100150001F0400081F0400081F0400081F040008F3
:100160001F0400081F0400081F0400081F040008E3
:100170001F0400081F0400081F0400081F040008D3
:100180001F0400081F0400081F0400081F040008C3
:100190001F0400081F0400081F0400081F040008B3
:1001A0001F0400081F0400081F0400081F040008A3
:1001B0001F0400081F0400081F0400081F04000893
:1001C0001F0400081F0400081F0400081F04000883
:1001D0001F0400081F0400081F0400081F04000873
:1001E0001F0400081F0400081F0400081F04000863
:1001F0001F0400081F0400081F0400081F04000853
:100200001F0400081F0400081F0400081F04000842
:100210001F0400081F0400081F0400081F04000832
:100220001F0400081F0400081F040008000000004D
:100230001F0400081F040008000000001F0400083D
:100240001F0400081F0400081F0400081F04000802
:100250001F0400081F0400081F0400081F040008F2
:100260001F0400081F0400081F0400081F040008E2
:100270001F0400081F0400081F04000800000000FD
:100280001F0400081F0400081F04000800000000ED
:10029000000000001F04000800F002F800F044F81D
:1002A0000AA090E8000C82448344AAF10107DA45D1
:1002B00001D100F039F8AFF2090EBAE80F0013F0DF
:1002C000010F18BFFB1A43F001031847085600003E
:1002D00028560000103A24BF78C878C1FAD85207CF
:1002E00024BF30C830C144BF04680C6070470000B0
:1002F0000023002400250026103A28BF78C1FBD82F
:10030000520728BF30C148BF0B607047642900F016
:100310007B81732900F08882002070471FB505F0AB
:100320009BFA1FBD10B510BD00F013FB1146FFF77F
:10033000F5FF03F023F900F031FB03B4FFF7F2FF00
:1003400003BC03F0E9F800002B4B19680868B0E81B
:10035000F04F80F30988BFF36F8F4FF0000080F3F8
:10036000118870470000000006480068006880F3AC
:10037000088862B661B6BFF34F8FBFF36F8F00DF9F
:1003800000BF00BF08ED00E0DFF80C00016841F499
:1003900070010160704700BF88ED00E0EFF3098055
:1003A000BFF36F8F144B1A681EF0100F08BF20EDBB
:1003B000108A20E9F04F106008B44FF0500072B678
:1003C00080F31188BFF34F8FBFF36F8F62B604F0D5
:1003D0003DFB4FF0000080F3118808BC19680868E5
:1003E000B0E8F04F1EF0100F08BFB0EC108A80F399
:1003F0000988BFF36F8F704734000024EFF3058046
:10040000704700000948804709480047FEE7FEE7BB
:10041000FEE7FEE7FEE7FEE7FEE7FEE7FEE7FEE7B4
:1004200004480549054A064B704700002527000887
:1004300099020008A0550024A05B0024A0570024C6
:10044000A057002453EA020C00F069802DE9F04B1C
:100450004FF00006002B1FBFB3FA83F503FA05F433
:1004600024FA05F65E4012BF1643B2FA82F502FA8C
:1004700005F4C5F120051EBF22FA05FC44EA0C0470
:10048000203556EA044C4FEA144418BF641C4FF060
:1004900000084FF00009904271EB030C39D300299A
:1004A00019BFB1FA81F701FA07F6B0FA80F700FA3E
:1004B00007F6C7F120071EBF20FA07FC46EA0C0624
:1004C0002037B6FBF4FCA7EB0507103F07F01F0B26
:1004D000CBF120060CFA0BFB2CFA06F644BFB34610
:1004E0000026202FA4BF5E464FF0000B5BEA060CEF
:1004F00008BF4FF0010B19EB0B09ABFB027C48EB7B
:100500000608C01B06FB02CC0BFB03CC71EB0C01F5
:10051000C1E70B46024641464846BDE8F08B13B59D
:100520004FF000004FF00001AFF30080BDE81C4029
:10053000704700000FB4044910B503AA029800F0F8
:1005400077F910BC5DF814FB200000242DE9F04180
:100550000E460446002020622046E168884730B3FA
:10056000252805D0D4E901219047206A401CF2E7F4
:10057000E168204600278847050018D0A5F1410012
:10058000192802D820354FF4006732462946204604
:100590002760FFF7BBFE40B1012804D0F61D26F00E
:1005A00007060836D8E7361DD6E72846DAE7206A78
:1005B000BDE8F08170B50C460546012A05D02878C3
:1005C000800600D5EA69002302E0012305E05B1CF8
:1005D000934202D2E05C0028F9D1A869E618C01A5B
:1005E000A861286A184428622846AFF3008004E016
:1005F000D5E9012114F8010B9047B442F8D32846FD
:10060000AFF3008070BD00002DE9F04106460024E4
:1006100010687529314616A510D0AFF30080002868
:1006200002DA404213A507E031688A0701D512A516
:1006300002E0490704D511A5012401E0AFF30080D1
:1006400000210A2206F1240709E0B0FBF2FCB0FB0E
:10065000F2F302FB1C00303078541846491C002885
:10066000F3D123462A463046BDE8F04100F058B8A1
:10067000000000002D0000002B0000002000000002
:10068000032A40F2308010F0030C00F0158011F8BE
:10069000013BBCF1020F624498BF11F801CB00F896
:1006A000013B38BF11F8013BA2F1040298BF00F8EA
:1006B00001CB38BF00F8013B11F0030300F0CA8002
:1006C000083AC0F0088051F8043B083A51F804CBCE
:1006D000A0E80810F5E7121D5CBF51F8043B40F894
:1006E000043BAFF30080D20724BF11F8013B11F89F
:1006F00001CB48BF11F8012B24BF00F8013B00F8E3
:1007000001CB48BF00F8012B704702F0FF0343EA1A
:10071000032242EA024200F0D1B8704770477047A6
:100720002DE9F0470D4699469246044600F124080B
:100730000168880604D5E06921F01001216000E01D
:100740000120A84201DD471B00E00027A1697A19BA
:1007500002EB0900081AA0612078C00602D42046E6
:10076000AFF30080002608E0D4E901211AF8060062
:100770009047206A401C761C20624E45F4DB2078AE
:10078000C0060AD52046AFF3008006E0D4E9012177
:1007900030209047206A401C2062381EA7F10107D4
:1007A000F4DC07E0D4E9012118F805009047206A3D
:1007B000401C2062281EA5F10105F3DC2046AFF3A2
:1007C00000802078000602D50220BDE8F0870120D5
:1007D000FBE7000001694A1C02610878704700B518
:1007E0008FB0CDE901310021059105497944CDE96A
:1007F000031011466846FFF7A9FE0FB000BD0000C8
:10080000E5FFFFFF10B5436913B1AFF3008001E0CE
:10081000FFF7D0FE012010BD127800F124010A700C
:1008200000224A700122EDE711684FF0FF32E9E73C
:10083000074B70B50D467B44FFF7D1FF04462846B1
:1008400000F05CF810B14FF0FF3070BD204670BD75
:10085000272D000010B5203AC0F00B80B1E81850E9
:10086000203AA0E81850B1E81850A0E81850BFF49A
:10087000F5AF5FEA027C24BFB1E81850A0E8185039
:1008800044BF18C918C0BDE810405FEA827C24BF8D
:1008900051F8043B40F8043B08BF7047D20728BF1B
:1008A00031F8023B48BF11F8012B28BF20F8023B6A
:1008B00048BF00F8012B70474FF000020429C0F038
:1008C000128010F0030C00F01F80CCF1040CBCF17E
:1008D000020F18BF00F8012BA8BF20F8022BA1EBD4
:1008E0000C0100F011B85FEAC17C24BF00F8012BB5
:1008F00000F8012B48BF00F8012B7047007B00F087
:10090000800070474FF0000200B5134694469646AB
:10091000203922BFA0E80C50A0E80C50B1F1200112
:10092000BFF4F7AF090728BFA0E80C5048BF0CC0C0
:100930005DF804EB890028BF40F8042B08BF70471E
:1009400048BF20F8022B11F0804F18BF00F8012B90
:100950007047754600F02CF8AE46050069465346D0
:1009600020F00700854618B020B5FFF759FDBDE817
:1009700020404FF000064FF000074FF000084FF006
:10098000000B21F00701AC46ACE8C009ACE8C00997
:10099000ACE8C009ACE8C0098D46704710B5044604
:1009A000AFF300802046BDE81040FFF7C6BC000052
:1009B000004870473C55002400BFFEE710B501F029
:1009C000B9FD01F069FD0348006840F004000149E9
:1009D000086010BD9CEF00E07047000010B50446B1
:1009E0000CB9012010BD94F83500022803D08020F6
:1009F00060650120F6E734492068884205D3334911
:100A00002068884201D8012000E00020C0B1042005
:100A100084F835002C49206888420AD32B49206885
:100A2000884206D82068006820F00100216808602C
:100A300048E02068006820F001002168086041E07B
:100A40002068006820F00E00216808601E492068B8
:100A500088420AD31D492068884206D82068006869
:100A600020F001002168086005E02068006820F09F
:100A7000010021680860206E006820F48070216EFB
:100A8000086094F85C100120884011490860D4E99E
:100A900019104860E06E40B1E06E006820F480708C
:100AA000E16E0860D4E91C10486000BF002084F8A3
:100AB000340000BF012084F83500206D10B12046BD
:100AC000216D884700208DE710000240B8040240E5
:100AD000045402580348006840F0010001490860CE
:100AE0007047000020040058F8B502460B4600216C
:100AF000002600240020824D00BFFCE0012707FAF9
:100B000001F61F6807EA0604B4427CD15F68022F31
:100B100002D05F68122F1AD14FEAD10C02F12007E0
:100B200057F82C004F074FEAD76C0F2707FA0CF73E
:100B3000B8434FEA417C4FEADC6C1F6907FA0CF7B7
:100B400038434FEAD10C02F1200747F82C00106817
:100B50004FEA410C032707FA0CF7B8431F7907F057
:100B600003074FEA410C07FA0CF7384310605F683F
:100B7000012F08D05F68022F05D05F68112F02D0C7
:100B80005F68122F17D190684FEA410C032707FACC
:100B90000CF7B8434FEA410CDF6807FA0CF738430B
:100BA0009060506801278F40B8431F79C7F3001742
:100BB0008F4038435060D0684FEA410C032707FA52
:100BC0000CF7B8434FEA410C9F6807FA0CF738431B
:100BD000D0605F6807F08057B7F1805F95D100BFA4
:100BE000484F3F6847F00207DFF818C1CCF80070A3
:100BF00067463F6807F00207009700BF00BF424FFB
:100C00004FEA910C00E075E057F82C008F074FEA8F
:100C1000177C0F2707FA0CF7B8433C4FBA4201D1B3
:100C200000272DE03A4FBA4201D1012728E0394F81
:100C3000BA4201D1022723E0374FBA4201D103273C
:100C40001EE0364FBA4201D1042719E0344FBA42B0
:100C500001D1052714E0334FBA4201D106270FE036
:100C6000314FBA4201D107270AE0304FBA4201D1D1
:100C7000082705E02E4FBA4201D1092700E00A27D4
:100C80004FEA817C4FEA1C7C07FA0CF738431E4F71
:100C90004FEA910C47F82C002868A0435F6807F4DE
:100CA0008037B7F5803F00D1204328606868A043B3
:100CB0005F6807F40037B7F5003F00D12043686054
:100CC0004FF0B0473868A0435F6807F48017B7F566
:100CD000801F00D120434FF0B04738607868A043B0
:100CE0005F6807F40017B7F5001F00D120434FF0ED
:100CF000B0477860491C1029FFF400AFF8BD000030
:100D000080000058F44402580804005800000258BB
:100D10000004025800080258000C02580010025843
:100D20000014025800180258001C025800200258F3
:100D30000024025842694A40426170470AB1018367
:100D400000E04183704700000148006870470000E0
:100D50002800002410B5032000F07EF80F2000F0DA
:100D600007F808B1012010BD00F028F80020FAE7CC
:100D700070B504460E4800784FF47A71B1FBF0F07C
:100D80000C490968B1FBF0F5284601F0DFF808B11D
:100D9000012070BD102C07D200222146501E00F009
:100DA0001EF80548046001E00120F2E70020F0E7AA
:100DB00030000024100000242C000024704701465D
:100DC0000846002809DB00F01F0301229A4043096E
:100DD0009B0003F1E023C3F8002100BF70472DE919
:100DE000F05F80460D46164602F07AFB074639460C
:100DF0002A46334601F00700C0F1070ABAF1040F92
:100E000002D94FF0040A01E0C0F1070AD14600F10F
:100E1000040ABAF1070F02D24FF0000A01E0A0F174
:100E2000030AD4464FF0010A0AFA09FAAAF1010AA4
:100E30000AEA020A0AFA0CFA4FF0010B0BFA0CFB51
:100E4000ABF1010B0BEA030B4AEA0B0421464046C7
:100E500002F04EFBBDE8F09F00BF00F00702064B1A
:100E600019684FF6FF031940044B0B4343EA022174
:100E7000014B196000BF70470CED00E00000FA055F
:100E800010B500F0CBFB0949096801F470614FF41B
:100E9000807292FAA2F2B2FA82F2D140044A515C14
:100EA000C840044908600846006810BD184402584C
:100EB000925800081000002410B500F067FB0749A5
:100EC000096801F07001102292FAA2F2B2FA82F2DD
:100ED000D140034A515CC84010BD00002044025874
:100EE0009258000870B5014600220120002300241A
:100EF0009FED811AB0EE410A9FED7F1AF0EE410A94
:100F00007E4D2D6805F003027C4D2D68C5F305303C
:100F10007A4D2D1D2D6805F01003784D14352D6880
:100F2000C5F3CC0515FB03F501EE105AB8EE411AD6
:100F3000B0EE410A22B1012A4DD0022A7DD169E0EA
:100F40006E4D283D2D68C5F340152DB36B4D283DE2
:100F50002D68C5F3C1066A4D25FA06F4B4FBF0F519
:100F600001EE105AF8EE411A9FED661A80EE012A42
:100F7000624D10352D68C5F3080501EE105AB8EE24
:100F8000411A32EE011AB7EE002A31EE021A21EEB2
:100F9000811AF0EE410A1DE0594DB5FBF0F501EE66
:100FA000105AF8EE411A9FED571A80EE012A534D60
:100FB00010352D68C5F3080501EE105AB8EE411A38
:100FC00032EE011AB7EE002A31EE021A21EE811A32
:100FD000F0EE410A5EE04C4DB5FBF0F501EE105A23
:100FE000B8EE412A9FED471AC0EE011A434D103565
:100FF0002D68C5F3080501EE105AB8EE411A31EE1E
:10100000811AF7EE001A31EE211A22EE011AF0EEE3
:10101000410A3FE03D4DB5FBF0F501EE105AF8EE08
:10102000411A9FED381A80EE012A344D10352D6893
:10103000C5F3080501EE105A00E00CE0B8EE411AC5
:1010400032EE011AB7EE002A31EE021A21EE811AB1
:10105000F0EE410A1EE02C4DB5FBF0F501EE105A02
:10106000B8EE412A9FED271AC0EE011A234D103524
:101070002D68C5F3080501EE105AB8EE411A31EE9D
:10108000811AF7EE001A31EE211A22EE011AF0EE63
:10109000410A00BF00BF194D10352D68C5F3462524
:1010A0006D1C01EE105AB8EE411AC0EE811ABCEE6A
:1010B000E11A81ED001A114D10352D68C5F3064572
:1010C0006D1C01EE105AB8EE411AC0EE811ABCEE4A
:1010D000E11A81ED011A094D10352D68C5F3066539
:1010E0006D1C01EE105AB8EE411AC0EE811ABCEE2A
:1010F000E11A81ED021A70BD000000002844025878
:101100000090D0030000004600093D0000127A0064
:1011100070B5014600220120002300249FED811AB2
:10112000B0EE410A9FED7F1AF0EE410A7E4D2D6828
:1011300005F003027C4D2D68C5F305507A4D2D1D39
:101140002D6805F48073784D1C352D68C5F3CC05EA
:1011500015FB03F501EE105AB8EE411AB0EE410A44
:1011600022B1012A4DD0022A7DD169E06E4D283D81
:101170002D68C5F340152DB36B4D283D2D68C5F383
:10118000C1066A4D25FA06F4B4FBF0F501EE105ADB
:10119000F8EE411A9FED661A80EE012A624D18356D
:1011A0002D68C5F3080501EE105AB8EE411A32EE6B
:1011B000011AB7EE002A31EE021A21EE811AF0EE82
:1011C000410A1DE0594DB5FBF0F501EE105AF8EE5D
:1011D000411A9FED571A80EE012A534D18352D689C
:1011E000C5F3080501EE105AB8EE411A32EE011AA5
:1011F000B7EE002A31EE021A21EE811AF0EE410A12
:101200005EE04C4DB5FBF0F501EE105AB8EE412A08
:101210009FED471AC0EE011A434D18352D68C5F3EE
:10122000080501EE105AB8EE411A31EE811AF7EEB8
:10123000001A31EE211A22EE011AF0EE410A3FE0C7
:101240003D4DB5FBF0F501EE105AF8EE411A9FED59
:10125000381A80EE012A344D18352D68C5F308057B
:1012600001EE105A00E00CE0B8EE411A32EE011A1D
:10127000B7EE002A31EE021A21EE811AF0EE410A91
:101280001EE02C4DB5FBF0F501EE105AB8EE412AE8
:101290009FED271AC0EE011A234D18352D68C5F3AE
:1012A000080501EE105AB8EE411A31EE811AF7EE38
:1012B000001A31EE211A22EE011AF0EE410A00BFA7
:1012C00000BF194D18352D68C5F346256D1C01EE7C
:1012D000105AB8EE411AC0EE811ABCEEE11A81ED47
:1012E000001A114D18352D68C5F306456D1C01EE29
:1012F000105AB8EE411AC0EE811ABCEEE11A81ED27
:10130000011A094D18352D68C5F306656D1C01EEEF
:10131000105AB8EE411AC0EE811ABCEEE11A81ED06
:10132000021A70BD00000000284402580090D0034B
:101330000000004600093D0000127A0070B5044626
:101340000D4600268D48006800F00700A8420ED226
:101350008A48006820F0070028438849086008464A
:10136000006800F00700A84201D0012070BD20787D
:1013700000F00200022807D18148006820F00F0029
:10138000E16808437E490860207800F001000028E9
:1013900051D07B48006820F47060A1680843784908
:1013A00008606068022807D1754818380068C0F3E3
:1013B0004040F8B90120D9E76068032807D1704898
:1013C00018380068C0F34060A0B90120CEE760681B
:1013D000012807D16A4818380068C0F3002048B9CE
:1013E0000120C3E7664818380068C0F3800008B9D8
:1013F0000120BBE762480838006820F007006168F8
:1014000008435F4908390860FFF79EFC064660689C
:10141000022811D108E0FFF797FC801B41F28831C8
:10142000884201D90320A1E755480838006800F038
:1014300038001028EFD13AE06068032811D108E0A5
:10144000FFF782FC801B41F28831884201D90320DA
:101450008CE74B480838006800F038001828EFD1B6
:1014600025E06068012811D108E0FFF76DFC801BC2
:1014700041F28831884201D9032077E74048083893
:10148000006800F038000828EFD110E008E0FFF70E
:101490005BFC801B41F28831884201D9032065E75B
:1014A00037480838006800F038000028EFD133488A
:1014B000006800F00700A8420ED93048006820F00C
:1014C000070028432D4908600846006800F007001F
:1014D000A84201D0012049E7207800F00400042848
:1014E00007D12748006820F070002169084324498B
:1014F0000860207800F00800082809D12048001D65
:10150000006820F07000616908431D49091D0860EA
:10151000207800F01000102809D11948001D00683B
:1015200020F4E060A16908431549091D086020788E
:1015300000F02000202809D111480830006820F070
:101540007000E16908430E490831086000F066F850
:101550000B49096801F470614FF4807292FAA2F2AB
:10156000B2FA82F2D140074A515CC840064908608D
:101570000F20FFF7FDFB0020F8E6000000200052DE
:1015800018440258925800081000002410B5FFF7C4
:1015900077FC0949096801F00F01012292FAA2F2D1
:1015A000B2FA82F2D140054A515CC8400449086051
:1015B0000846006810BD0000184402589258000800
:1015C0001400002410B5FFF7E1FF0749096801F096
:1015D0007001102292FAA2F2B2FA82F2D140034ACA
:1015E000515CC84010BD00001C44025892580008CD
:1015F00010B5FFF7CBFF0749096801F4E0614FF42C
:10160000807292FAA2F2B2FA82F2D140024A515C9E
:10161000C84010BD1C4402589258000870B50125FE
:1016200000EE905A0022012100230024DFED861AEB
:10163000B0EE610ADFED841AB0EE611A0020834D2E
:101640002D6805F0380535B1082D15D0102D15D0B1
:10165000182D7CD114E07D4D103D2D68C5F340154B
:1016600045B17A4D103D2D68C5F3C106784D25FA78
:1016700006F000E07648E5E07648E3E07648E1E011
:10168000724D18352D6805F00302704D18352D6820
:10169000C5F305116D4D1C352D6805F001036B4D2B
:1016A00024352D68C5F3CC0515FB03F501EE905AE2
:1016B000F8EE611AB0EE610A22B1012A4FD0022A77
:1016C0007DD16BE0614D103D2D68C5F340152DB304
:1016D0005E4D103D2D68C5F3C1065D4D25FA06F43B
:1016E000B4FBF1F501EE905AB8EE612ADFED5B1A1A
:1016F000C0EE212A554D20352D68C5F3080501EEB1
:10170000905AF8EE611A72EEA11AF7EE002A71EE05
:10171000A21A62EE211AB0EE611A1FE04C4DB5FB21
:10172000F1F501EE905AB8EE612ADFED4C1AC0EEE9
:10173000212A464D20352D68C5F3080501EE905A43
:10174000F8EE611A72EEA11AF7EE002A00E077E0D7
:1017500071EEA21A62EE211AB0EE611A5EE03D4D02
:10176000B5FBF1F501EE905AB8EE612ADFED3B1AB8
:10177000C0EE212A354D20352D68C5F3080501EE50
:10178000905AF8EE611A72EEA11AF7EE002A71EE85
:10179000A21A62EE211AB0EE611A3FE02E4DB5FB9F
:1017A000F1F501EE905AB8EE612ADFED2C1AC0EE89
:1017B000212A264D20352D68C5F3080500E00EE0EE
:1017C00001EE905AF8EE611A72EEA11AF7EE002AB5
:1017D00071EEA21A62EE211AB0EE611A1EE01D4DE2
:1017E000B5FBF1F501EE905AF8EE612ADFED1B1A18
:1017F00080EE212A154D20352D68C5F3080501EE30
:10180000905AF8EE611A72EE211AB7EE002A71EEC4
:10181000821A62EEA11AB0EE611A00BF00BF0B4D32
:1018200020352D68C5F346256D1C00EE905AF8EE64
:10183000601A81EE212AFCEEC21A11EE900A01E034
:10184000044800BF00BF70BD0000000010440258F3
:101850000090D00300093D0000127A00000000460D
:1018600070B504460025207800F00100002872D0F1
:10187000F948006800F0380010280CD0F6480068DD
:1018800000F03800182812D1F3481830006800F032
:10189000030002280BD1F04810380068C0F3404024
:1018A00000286DD0606800286AD1012070BD00BF9B
:1018B0006068B0F5803F08D1E7481038006840F410
:1018C0008030E549103908602EE0606868B9E24868
:1018D0001038006820F48030DF491039086008466D
:1018E000006820F4802008601EE06068B0F5A02F3A
:1018F0000DD1D9481038006840F48020D6491039FD
:1019000008600846006840F4803008600CE0D24867
:101910001038006820F48030CF491039086008463C
:10192000006820F48020086000BF6068A0B1FFF765
:101930000BFA054608E0FFF707FA401B41F2883131
:10194000884201D90320B1E7C34810380068C0F3CA
:1019500040400028EFD013E0FFF7F6F9054608E015
:10196000FFF7F2F9401B41F28831884201D9032088
:101970009CE7B94810380068C0F340400028EFD118
:10198000207800F00200022847D1B348006800F038
:10199000380058B1B048006800F0380018283ED12F
:1019A000AD481830006800F00300B8BBAA481038F2
:1019B0000068C0F3800018B1E06808B9012075E73D
:1019C000A5481038006820F01900E1680843A249D2
:1019D00010390860FFF7B8F9054606E0FFF7B4F9DB
:1019E000401B022801D9032060E79B48103800689B
:1019F000C0F380000028F1D097480C38006820F42C
:101A00007C304FF47C3292FAA2F2B2FA82F221696F
:101A10009140084390490C3908604AE0FFE7E068CC
:101A200068B38D481038006820F01900E168084359
:101A3000894910390860FFF787F9054606E0FFF786
:101A400083F9401B022801D903202FE78248103870
:101A50000068C0F380000028F1D07F480C3800688F
:101A600020F47C304FF47C3292FAA2F2B2FA82F285
:101A700021699140084378490C39086019E076489B
:101A80001038006820F00100734910390860FFF732
:101A90005BF9054606E0FFF757F9401B022801D91C
:101AA000032003E76C4810380068C0F3800000286A
:101AB000F1D1207800F01000102877D16648006836
:101AC00000F0380008280CD06348006800F03800A7
:101AD000182823D160481830006800F0030001285E
:101AE0001CD15D4810380068C0F3002020B1E069C7
:101AF000802801D00120D9E657480C38006820F032
:101B0000F8404FF0F84292FAA2F2B2FA82F2216A59
:101B10009140084350490C39086047E0E06958B3E8
:101B20004D481038006840F080004B49103908607B
:101B3000FFF70AF9054606E0FFF706F9401B022801
:101B400001D90320B2E6444810380068C0F30020F1
:101B50000028F1D040480C38006820F0F8404FF0E1
:101B6000F84292FAA2F2B2FA82F2216A9140084354
:101B700039490C39086019E037481038006820F0FE
:101B80008000354910390860FFF7DEF8054606E0A9
:101B9000FFF7DAF8401B022801D9032086E62E4819
:101BA00010380068C0F300200028F1D1207800F040
:101BB0000800082836D16069D0B127486430006831
:101BC00040F00100244964310860FFF7BDF8054684
:101BD00006E0FFF7B9F8401B022801D9032065E6AB
:101BE0001D4864300068C0F340000028F1D019E0BF
:101BF00019486430006820F001001749643108601A
:101C0000FFF7A2F8054606E0FFF79EF8401B022802
:101C100001D903204AE6104864300068C0F3400050
:101C20000028F1D1207800F02000202834D1A069CC
:101C3000D8B109481038006840F48050064910397E
:101C40000860FFF781F8054608E0FFF77DF8401BC4
:101C5000022803D9032029E610440258AF4800683F
:101C6000C0F340300028F0D016E0AC48006820F403
:101C70008050AA490860FFF767F8054606E0FFF7BD
:101C800063F8401B022801D903200FE6A34800682F
:101C9000C0F340300028F2D1207800F0040004287E
:101CA0007DD19F48006840F480709D490860FFF72F
:101CB0004BF8054606E0FFF747F8401B642801D9BA
:101CC0000320F3E59648006800F480700028F2D005
:101CD00000BFA068012808D190487030006840F02B
:101CE00001008E49703108602DE0A06868B98B480A
:101CF0007030006820F001008849703108600846A3
:101D0000006820F0040008601DE0A06805280DD1DF
:101D100082487030006840F00400804970310860EB
:101D20000846006840F0010008600CE07B48703015
:101D3000006820F0010079497031086008460068A9
:101D400020F00400086000BFA068A0B1FEF7FCFF0F
:101D5000054608E0FEF7F8FF401B41F28831884253
:101D600001D90320A2E56D4870300068C0F340003F
:101D70000028EFD013E0FEF7E7FF054608E0FEF786
:101D8000E3FF401B41F28831884201D903208DE5F1
:101D9000624870300068C0F340000028EFD1606AEC
:101DA00000287CD05D481030006800F0380018280A
:101DB00076D0606A022874D15848006820F080709C
:101DC00056490860FEF7C0FF054606E0FEF7BCFF77
:101DD000401B022801D9032068E550480068C0F381
:101DE00040600028F2D100BFD4E90A1041EA001097
:101DF0004A492831096840F2F33291430843474980
:101E000028310860208E401EC0F30800616B491E17
:101E10004FF47E4202EA41210843218F491ED2013C
:101E200002EA014108433C21095D491E120202EA0F
:101E30000161084339493031086000BF081D00685E
:101E40004FF6F87188434FF6F87292FAA2F2B2FA9E
:101E500082F2A16C914008433049343108602F4828
:101E60002C30006820F00C00216C08432B492C31E9
:101E700008600846006820F00200616C08432749AA
:101E80002C3108600846006840F48030086008463D
:101E9000006840F4003008600846006802E03BE05B
:101EA00038E01FE040F4802008600846006840F0F9
:101EB000010008601948006840F080701749086008
:101EC000FEF742FF054606E0FEF73EFF401B0228F4
:101ED00001D90320EAE411480068C0F340600028FB
:101EE000F2D019E00D48006820F080700B490860BE
:101EF000FEF72AFF054606E0FEF726FF401B0228F4
:101F000001D90320D2E405480068C0F340600028EE
:101F1000F2D101E00120C9E40020C7E400440258E6
:101F200000480258042808D14FF0E021096941F027
:101F300004014FF0E022116107E04FF0E021096950
:101F400021F004014FF0E0221161704770B50446A2
:101F50002546681EB0F1807F01D301200FE0681E86
:101F60004FF0E02148610F214FF0FF3001F0C0FA3F
:101F700000204FF0E021886107200861002070BD3B
:101F80007047704701460022002391F8792091F8AC
:101F90007A3042EA030070472DE9F0410446206898
:101FA000C569206807682068866805F00F08B8F1E1
:101FB000000F0DD105F0200050B107F0200010B93E
:101FC00006F0805020B1204600F0D1FCBDE8F08141
:101FD000B8F1000F72D05D48304018B907F4907026
:101FE00000287AD005F0010048B107F4807030B1C4
:101FF000012021680862E06F40F00100E06705F011
:10200000020048B106F0010030B1022021680862E8
:10201000E06F40F00400E06705F0040048B106F00E
:10202000010030B1042021680862E06F40F0020036
:10203000E06705F0080078B107F0200028B906F045
:10204000805010B906F0010030B108202168086204
:10205000E06F40F00800E067E06F70B305F020002B
:1020600040B107F0200010B906F0805010B12046B2
:1020700000F07DFCE06F00F0080020B92068806867
:1020800000F0400018B3204600F051FC2068806842
:1020900000F04000B8B12068806820F0400021685E
:1020A0008860606F58B12A48616F0865606FFEF7FD
:1020B00095FC10B1606F016D88470DE00DE0204682
:1020C000FFF75FFF08E02046FFF75BFF04E02046D4
:1020D000FFF757FF0020E06778E705F4801078B13C
:1020E00006F4800060B14FF480102168086220205F
:1020F00084F8790084F87A002046FFF741FF65E70D
:1021000005F0800048B107F0800010B906F4000027
:1021100018B1204601F042F958E705F0400030B10F
:1021200007F0400018B1204600F011FC4EE705F41E
:10213000000040B107F0804028B12068006820F01E
:1021400080402168086000BF40E7000001000010E7
:102150001729000810B504460CB9012010BDA0696C
:1021600000B100E000BF94F8790028B9002084F89D
:102170007800204600F02AF8242084F879002068AE
:10218000006820F0010021680860204600F034FC5F
:10219000012800D1E2E7606B10B1204600F00CFB93
:1021A0002068406820F4904021684860206880687A
:1021B00020F02A00216888602068006840F0010053
:1021C00021680860204600F06CFBC7E710B586B0B8
:1021D00004462149206888423BD100BF1F4800685F
:1021E00040F001001D4908600846006800F0010049
:1021F000009000BF00BF00BF18481030006840F0DA
:1022000010001649103108600846006800F0100000
:10221000009000BF00BF4FF40070019002200290B8
:1022200001200390022004900720059001A90C488A
:10223000FEF75AFC4FF48060019001A90848FEF7B0
:1022400053FC2520FEF7BBFD032211462520FEF797
:10225000C6FD06B010BD000000100140E044025869
:102260000000025810B5034693F87A00202867D181
:1022700001B10AB9012010BD00BF93F87800012810
:1022800001D10220F7E7012083F8780000BF5966EA
:10229000A3F86820A3F86A2000BF9868B0F5805FB3
:1022A0000AD1186920B940F2FF10A3F86C001CE0B5
:1022B000FF20A3F86C0018E0986848B9186918B9AD
:1022C000FF20A3F86C0010E07F20A3F86C000CE066
:1022D0009868B0F1805F08D1186918B97F20A3F819
:1022E0006C0002E03F20A3F86C0000BF0020D8671C
:1022F000222083F87A0000BF002083F8780000BF16
:102300001868806840F001001C68A06018680068C8
:1023100000F0005060B11868006840F480701C68DC
:1023200020601868806840F080501C68A06005E05C
:102330001868006840F490701C68206000209AE7DC
:10234000022098E71D4A0168914236D11C4909884C
:1023500001F4004189BB1A49098801F4804171B137
:10236000184909780A2903D00021154A118024E070
:102370001349098841F40041114A11801DE01149B7
:1023800009780D2906D10E49098841F480410C4A8B
:10239000118012E00B490978094A1288C2F30D0234
:1023A000094B995406490988491C054A1180114670
:1023B0000988C72901DD0021118070470010014004
:1023C0002400002426000024A8000024704700BF39
:1023D000FEE700000BE006A0FEF7ACF84FF400614A
:1023E0000548FEF7A7FC4FF4FA7002F033F9F2E764
:1023F00068656C6C310D0A000004025814E00BA0F3
:10240000FEF798F800224FF480610A48FEF796FC28
:10241000C82002F01FF9012291020648FEF78EFC47
:102420004FF4487002F016F9E9E7000068656C6C3B
:102430006F0D0A000004025800B587B000BF1248B3
:10244000006840F00200104908600846006800F08B
:102450000200019000BF00BF4FF4406002900120D5
:10246000039004900320059002A90848FEF73CFB66
:10247000012291020548FEF761FC0122D1020348C6
:10248000FEF75CFC07B000BDE044025800040258AF
:1024900000BFFEE77047000010B50023234C236007
:1024A00000BF00BF00BFBFF34F8F00BF00BF00BF22
:1024B000231F1868C0F34E3100BFC0F3C90200BF2C
:1024C00043F6E07303EA41134FF0404404EA827498
:1024D0002343174C236000BF00BF131EA2F101026B
:1024E000EED10B1EA1F10101E7D100BF00BF00BF7B
:1024F000BFF34F8F00BF00BF00BF0C4B703B1B688A
:1025000043F48033094C703C236000BF00BF00BF20
:10251000BFF34F8F00BF00BF00BF00BF00BF00BFB1
:10252000BFF36F8F00BF00BF00BF10BD84ED00E0A0
:1025300060EF00E000BF00BF00BFBFF34F8F00BFE0
:1025400000BF00BF00BF00BF00BFBFF36F8F00BF61
:1025500000BF00BF00201449086000BF00BF00BFDB
:10256000BFF34F8F00BF00BF00BF00BF00BF00BF61
:10257000BFF36F8F00BF00BF00BF0C48006840F47E
:1025800000300A49086000BF00BF00BFBFF34F8F93
:1025900000BF00BF00BF00BF00BF00BFBFF36F8F11
:1025A00000BF00BF00BF704750EF00E014ED00E037
:1025B0001CB5044601F0D2FE0D4802210023322250
:1025C000CDE900100BA10E4802F06EFE0D4803216C
:1025D00000233222CDE900100BA10E4802F064FE68
:1025E0000D48006802F070F801F000FF1CBD00000B
:1025F000040000244C4544305461736B000000001B
:10260000D5230008080000244C4544315461736B05
:1026100000000000FD230008000000242DE9F04127
:102620009CB080460C4615461E4600273748006879
:1026300020F004003549086000BF002000903348B6
:102640000C30006840F4404030490C3108600846C6
:10265000006800F44040009000BF00BF00BF2B485E
:102660000C30006800F40050B0F5005FF7D1012095
:1026700001900004029000200490089002200A902B
:1026800002210B91CDF834800C940E950F96002109
:1026900012910821119101A8FFF7E2F807460FB146
:1026A00000BFFEE73F2014900320159000201690F5
:1026B000082017904020199000011A90402018908F
:1026C00050201B90022114A8FEF738FE07460FB1D8
:1026D00000BFFEE70E48006840F080000C4908602B
:1026E00000BF0B48F430006840F002000849F431A4
:1026F00008600846006800F00200009000BF00BFBC
:10270000FEF7E8F91CB0BDE8F08100000C48025863
:102710000044025810B502F0F7FD012801D002F084
:1027200075FA10BD2048006840F470001E4908602A
:102730001E48006840F001001C49086000201B4949
:1027400010310860194800681949084017490860A5
:102750000020164918310860091D0860091D08602D
:10276000124928310860091D0860091D0860091D0B
:102770000860091D0860091D0860091D0860091D21
:1027800008600A48006820F480200849086000209A
:10279000064960310860012006490860C006024908
:1027A000803908607047000088ED00E0004402585E
:1027B0007FEDF6EA0881005190F8341001F0010134
:1027C00039B10168496821F40031826B1143026814
:1027D000516090F8341001F0020139B10168496884
:1027E00021F48031C26B11430268516090F83410BB
:1027F00001F0040139B10168496821F48021026CBB
:1028000011430268516090F8341001F0080139B1A9
:102810000168496821F40041426C1143026851602B
:1028200090F8341001F0100139B10168896821F481
:102830008051826C11430268916090F8341001F06D
:10284000200139B10168896821F40051C26C11433B
:102850000268916090F8341001F0400199B101686C
:10286000496821F48011026D114302685160016DC5
:10287000B1F5801F07D10168496821F4C001426D9C
:1028800011430268516090F8341001F0800139B1B1
:102890000168496821F40021826D1143026851608A
:1028A000704738B5044600250020E067FEF74CFA73
:1028B00005462068006800F0080008280CD16FF079
:1028C0007E402B4600224FF400110090204600F07D
:1028D000A6FD08B1032038BD2068006800F00400A0
:1028E00004280CD16FF07E402B4600224FF480016B
:1028F0000090204600F093FD08B10320EBE7202074
:1029000084F8790084F87A0000BF002084F8780009
:1029100000BF00BFDFE770B50546AC6B0020A4F830
:102920006A00A4F862002046FFF72BFB70BD016827
:10293000096821F49071026811600168896821F0CA
:10294000010102689160202180F87A10704710B56B
:1029500004462068006820F04000216808602020BC
:1029600084F879002046FFF731FD002010BD2DE9E5
:10297000F0410446B4F86C7094F87A00222833D100
:102980002068858CA068B0F5805F09D1206938B9CE
:10299000666E05EA07003080606E801C606605E0A8
:1029A000F8B22840626E511C61661070B4F86A007B
:1029B000401E80B2A4F86A00A0B92068006820F424
:1029C0009070216808602068806820F0010021680C
:1029D0008860202084F87A002046FFF7B3FC0020AE
:1029E000BDE8F0810020FBE72068008B40F0080084
:1029F000216808830220F3E72DE9F04F89B00446EF
:102A000000254FF08008A946AA4600200890FA4900
:102A10002068884201D1012000E0002000B100E0E0
:102A200000BFA06AB0F1005F00D100BF2169A068BB
:102A3000084361690843E16940EA0105A06A05436A
:102A400020680068ED490840284321680860206834
:102A5000406820F44050E168084321684860A56957
:102A6000E5492068884201D1012000E0002008B932
:102A7000206A0543A06AB0F1005F03D1D4E90B01DD
:102A80000843054320688068DD49084028432168E1
:102A900088602068C06A20F00F00616A08432168DE
:102AA000C86200BFD7492068884224D1D648006850
:102AB00000F03800182814D005DC48B108280AD0E6
:102AC000102817D10AE020280ED0282812D10EE0B5
:102AD0004FF001080EE04FF004080BE04FF0400803
:102AE00008E04FF0080805E04FF0100802E04FF052
:102AF000200800BF17E1C549206888421DD1C2489F
:102B0000006800F00700062816D2DFE800F0030690
:102B1000090C0F124FF000080EE04FF004080BE014
:102B20004FF0400808E04FF0080805E04FF01008AB
:102B300002E04FF0200800BFF5E0B5492068884268
:102B40001DD1B148006800F00700062816D2DFE862
:102B500000F00306090C0F124FF000080EE04FF0D2
:102B600004080BE04FF0400808E04FF0080805E0CB
:102B70004FF0100802E04FF0200800BFD3E0A54955
:102B8000206888421DD1A048006800F00700062890
:102B900016D2DFE800F00306090C0F124FF0000810
:102BA0000EE04FF004080BE04FF0400808E04FF053
:102BB000080805E04FF0100802E04FF0200800BFC1
:102BC000B1E09549206888421DD18F48006800F027
:102BD0000700062816D2DFE800F00306090C0F12E2
:102BE0004FF000080EE04FF004080BE04FF04008F3
:102BF00008E04FF0080805E04FF0100802E04FF041
:102C0000200800BF8FE085492068884224D17E4893
:102C1000006800F03800182814D005DC48B10828F6
:102C20000AD0102817D10AE020280ED0282812D167
:102C30000EE04FF001080EE04FF004080BE04FF0FB
:102C4000400808E04FF0080805E04FF0100802E0E7
:102C50004FF0200800BF66E07149206888421DD10E
:102C60006948006800F00700062816D2DFE800F087
:102C70000306090C0F124FF000080EE04FF0040895
:102C80000BE04FF0400808E04FF0080805E04FF077
:102C9000100802E04FF0200800BF44E061492068BE
:102CA00088421DD15848006800F00700062816D257
:102CB000DFE800F00306090C0F124FF000080EE0E9
:102CC0004FF004080BE04FF0400808E04FF0080810
:102CD00005E04FF0100802E04FF0200800BF22E0AE
:102CE0004549206888421ED14748001D006800F011
:102CF0000700062816D2DFE800F00306090C0F12C1
:102D00004FF002080EE04FF004080BE04FF04008CF
:102D100008E04FF0080805E04FF0100802E04FF01F
:102D2000200800BF00BF00BF33492068884201D19E
:102D3000012000E0002000285DD00025B8F1100F30
:102D400033D009DCB8F1020F10D0B8F1040F11D064
:102D5000B8F1080F2ED117E0B8F1200F27D0B8F145
:102D6000400F0CD0B8F1800F24D124E0FEF7A4F876
:102D7000054623E005A8FEF7B5F8069D1EE002A86B
:102D8000FEF7C6F9039D19E01F4854380068C0F3E8
:102D9000401040B11C4854380068C0F3C1012248BB
:102DA00020FA01F500E0204D08E0204D06E04FF448
:102DB000004503E000BF0120089000BF00BF002DC8
:102DC0000AD0606800EB4000A84203D860680003A6
:102DD000A84202D201200890D4E2B8F1100F7CD0B2
:102DE00026DCB8F1020F2DD0B8F1040F52D0B8F1A3
:102DF000080F73D19EE03FE1000C0058F369FFCF4C
:102E0000FFF4FF11001001405444025800440040F8
:102E100000480040004C00400050004000140140B9
:102E200000780040007C00400090D00300093D0085
:102E3000B8F1200F7DD0B8F1400F54D0B8F1800F19
:102E4000D7D109E1FEF738F800270646FB49606A4A
:102E500031F810C062463B4630463946FDF7F2FA7B
:102E60004FF4807600220346A3FB060701FB0671A0
:102E700003FB021361684908064671185A41CDE9FF
:102E8000001266683246002308460199FDF7DAFA17
:102E90000546E4E005A8FEF725F8DDF818C0E74987
:102EA000606A31F810B05A46002360461946FDF7B3
:102EB000C9FA4FF4807C0022A0FB0C3B01FB0CB153
:102EC00000FB0210616849085E1840EB0201D4F86B
:102ED00004C062460023304601E079E0BBE0FDF724
:102EE000B1FA0546BBE002A8FEF712F9DDF80CC006
:102EF000D249606A31F810B05A460023604619463C
:102F0000FDF7A0FA4FF4807C0022A0FB0C3B01FBF4
:102F10000CB100FB0210616849085E1840EB020129
:102F2000D4F804C0624600233046FDF78BFA05460C
:102F300095E06EE0C2480068C0F3401038B3C04866
:102F40000068C0F3C101BF4820FA01FCBB49606AB8
:102F500031F810B05A46002360461946FDF772FA60
:102F60004FF4807C0022A0FB0C3B01FB0CB100FB6A
:102F70000210616849085E1840EB0201D4F804C0F1
:102F8000624600233046FDF75DFA05461FE0AB4977
:102F9000606A31F810C062460023AA481946FDF75E
:102FA00051FA4FF4807C0022A0FB0C3B01FB0CB1DA
:102FB00000FB0210616849085E1840EB0201D4F87A
:102FC00004C0624600233046FDF73CFA054646E061
:102FD0009A49606A31F810C0624600239A4819463F
:102FE000FDF730FA4FF4807C0022A0FB0C3B01FB84
:102FF0000CB100FB0210616849085E1840EB020149
:10300000D4F804C0624600233046FDF71BFA05469B
:1030100025E08A49606A31F810C0624600234FF407
:1030200000401946FDF70EFA4FF4807C0022A0FB09
:103030000C3B01FB0CB100FB0210616849085E18F3
:1030400040EB0201D4F804C0624600233046FDF78D
:10305000F9F9054603E000BF0120089000BF00BF5A
:10306000B5F5407F05D3B5F5801F02D22068C56055
:1030700088E10120089085E1E069B0F5004F7CD13E
:10308000B8F1100F7AD00CDCB8F1000F13D0B8F102
:10309000010F21D0B8F1040F2FD0B8F1080F6ED175
:1030A00051E0B8F1200F6BD0B8F1400F38D0B8F133
:1030B000800F64D197E0FEF785FA604A616A32F8C2
:1030C0001110B0FBF1F04000616800EB5100B0FB63
:1030D000F1F01FFA80FA89E0FEF78AFA574A616A2E
:1030E00032F81110B0FBF1F04000616800EB5100C4
:1030F000B0FBF1F01FFA80FA78E005A8FDF7F2FEC8
:1031000006994E4A606A32F81000B1FBF0F04000B8
:10311000616800EB5100B0FBF1F01FFA80FA65E046
:1031200002A8FDF7F5FF0399444A606A32F81000DF
:10313000B1FBF0F04000616800EB5100B0FBF1F032
:103140001FFA80FA52E03E480068C0F34010C0B158
:103150003B480068C0F3C1013A48C840374A616A39
:1031600032F81110B0FBF1F04000616800EB510043
:10317000B0FBF1F01FFA80FA12E044E011E031E018
:103180001FE02E49606A31F810002E49B1FBF0F0C3
:103190004000616800EB5100B0FBF1F01FFA80FACB
:1031A00024E02649606A31F810002749B1FBF0F0AD
:1031B0004000616800EB5100B0FBF1F01FFA80FAAB
:1031C00014E01E49606A31F810004FF40041B1FB71
:1031D000F0F04000616800EB5100B0FBF1F01FFA25
:1031E00080FA03E000BF0120089000BF00BF4FF647
:1031F000F0700AEA0009CAF3420049EA00092068AF
:10320000C0F80C90BEE0B8F1100F7CD00CDCB8F127
:10321000000F1BD0B8F1010F29D0B8F1040F37D03F
:10322000B8F1080F70D159E0B8F1200F6DD0B8F1A6
:10323000400F40D0B8F1800F66D19FE0A25800083F
:10324000004402580090D00300093D00FEF7BAF98F
:103250004E4A616A32F81110B0FBF1F0616800EB80
:103260005100B0FBF1F080B22168C86089E0FEF740
:10327000BFF9464A616A32F81110B0FBF1F061689B
:1032800000EB5100B0FBF1F080B22168C86078E03B
:1032900005A8FDF727FE06993C4A606A32F810003F
:1032A000B1FBF0F0616800EB5100B0FBF1F080B2CF
:1032B0002168C86065E002A8FDF72AFF0399334A38
:1032C000606A32F81000B1FBF0F0616800EB510069
:1032D000B0FBF1F080B22168C86052E02C48006871
:1032E000C0F34010C0B12A480068C0F3C1012948AA
:1032F000C840264A616A32F81110B0FBF1F06168EB
:1033000000EB510002E017E037E025E0B0FBF1F000
:1033100080B22168C8600EE01C49606A31F8100074
:103320001C49B1FBF0F0616800EB5100B0FBF1F01B
:1033300080B22168C86024E01449606A31F8100046
:103340001549B1FBF0F0616800EB5100B0FBF1F002
:1033500080B22168C86014E00C49606A31F810003E
:103360004FF40041B1FBF0F0616800EB5100B0FB9D
:10337000F1F080B22168C86003E000BF012008902E
:1033800000BF00BF089809B0BDE8F08FA258000840
:10339000004402580090D00300093D00014691F816
:1033A0007900212839D1B1F86200C8B908680068ED
:1033B00000F0005030B10868806820F400000B680D
:1033C000986005E00868006820F080000B681860CD
:1033D0000868006840F040000B68186000207047E3
:1033E0008868B0F5805F0BD1086948B9CA6D10884C
:1033F000C0F308000B681885C86D801CC86505E01F
:10340000CB6D581CC86518780B681885B1F8620038
:10341000401EA1F862000020E1E70220DFE72DE96D
:10342000F04104460D4617469846069E21E0701C62
:10343000F8B12EB1FDF788FCA0EB0800B04218D916
:103440002068006820F4D0702168086020688068D7
:1034500020F0010021688860202084F8790084F839
:103460007A0000BF002084F8780000BF0320BDE888
:10347000F0812068C0692840A84201D1012000E005
:103480000020B842D3D00020F1E7000070B500243E
:103490000F4D1048FEF780FD00BF03E0641CAC42F6
:1034A00000D904E00B48FEF76DFD2028F6D100BFDF
:1034B000002403E0641CAC4200D906E00122064966
:1034C0000448FEF7CFFE0028F4D100BF70BD000015
:1034D000FFFF0100700100242600002400BFFEE76A
:1034E00002480068C0F30220704700000CED00E0C5
:1034F00010B5002804DB0A07130E054A135406E032
:103500000A07140E034A00F00F031B1FD45410BD0A
:1035100000E400E018ED00E000BF704770B504461D
:103520000420FEF7FFFC0C48046025464FF47A7037
:1035300045430120094908804FF0E020006940F030
:1035400002004FF0E021086108464561006940F043
:103550000100086170BD0000180000241C00002458
:1035600000BF054AD26902F04002002AF9D0C2B277
:10357000014B1A8570470000001001401CB5002463
:10358000FDF71CFAFDF7E6FB042302220521A0202B
:10359000FFF744F84FF4C870FFF7C0FF4FF4E13075
:1035A00000F076FEFEF748FF08A0FCF7C3FF0B48CB
:1035B000012100238022CDE9001009A10B4801F070
:1035C00073FE01F0E3F900201CBD00005379737411
:1035D000656D2073746172740D0A00000000002490
:1035E00053746172745461736B000000B12500085C
:1035F0002DE9F04105460E461C4807681C48006846
:10360000001D00F061FE50B91948006890F82C10B8
:103610000120884017490968814316480160681CE9
:1036200038B936B112480168091D134800F08AFE06
:103630001AE07C190E4800684460BC4207D20C486E
:103640000168091D0D48006800F062FE0CE00848A2
:103650000168091D0A48006800F05AFE0948006820
:10366000844201D207480460BDE8F081480000248C
:10367000340000244C000024000500243C000024F9
:10368000380000246400002410B5044600F066FEF3
:1036900024480068401C234908602348006840B95A
:1036A000214804600846006801280DD100F0EEF9B9
:1036B0000AE01E48006838B91B480068C06AE16A21
:1036C000884201D81848046019480068401C18490D
:1036D000086008460068606494F82C100120884057
:1036E00014490968084313490860E16A01EB810144
:1036F000114A02EB8100211D00F024FE00F076FE4D
:103700000A48006868B108480068C06AE16A8842EF
:1037100007D24FF0805009490860BFF34F8FBFF3C5
:103720006F8F10BD4400002434000024500000249A
:10373000600000244C0000243002002404ED00E06E
:1037400010B500F00BFE10480068D0B90F4800F02B
:10375000CFFD0F4800F0CCFD0C480E4908600C4826
:103760000D49086000221021052001F06BFA06497E
:1037700008600846006820B108A10348006800F00E
:103780002DFF00F033FE10BD780000241405002446
:10379000280500247000002474000024546D725128
:1037A0000000000070B523E001F048F913480068FC
:1037B00008B9012000E00020054601F031FFBDB945
:1037C00000F0CCFD0D48C068C468201D00F07CFDF1
:1037D0000B480068401E0A4908600A480068401EFD
:1037E0000849086000F002FE204600F060F800BFC3
:1037F000044800680028D7D170BD0000EC04002404
:10380000440000244000002470B504460D46206C9E
:1038100070B1216CE0680844E0606168E06888424B
:1038200001D32068E0602846226CE168FCF728FF9D
:1038300070BD2DE9F04104460F4615464FF00008D3
:10384000A66B206C40B9206860BB606801F022FE66
:1038500080460020606025E07DB93946226CA06872
:10386000FCF70EFF216CA0680844A060D4E90110A9
:10387000884217D32068A06014E03946226CE068C3
:10388000FCF7FEFE216CE068401AE0602168E06809
:10389000884203D2216C6068401AE060022D01D199
:1038A00006B1761E701CA0634046BDE8F08110B5DD
:1038B0000446206B00F0D4FD204600F0D1FD10BD81
:1038C0000146084A126812680AB9012200E0002283
:1038D0000A600A6822B9034A1268D268106800E0D8
:1038E000002070477000002430B54FF4A043174803
:1038F00000F007042CB1C01D20F00700134C041B7E
:103900001B1B0246124C22600024114D6C60D01823
:10391000083820F007000F4C206000240D4D2D6862
:103920006C600C4D2D682C601146441A4C60094C9B
:1039300024680C60084D4C682C60084D4C682C6065
:103940004FF00044064D2C6030BD00003C050024C3
:103950009000002498000024A00000249C00002473
:10396000A400002400BFFFF71DFF064800680128DF
:10397000F9D94FF0805004490860BFF34F8FBFF36F
:103980006F8FF0E73002002404ED00E02DE9F041F4
:1039900006460D4617469846069C0DB9246000E081
:1039A0002760E66325640121204601F069FA84F866
:1039B00050800020A064BDE8F08100002DE9F05F98
:1039C00082460F4690469B460A9E0C9C4FEA880111
:1039D000A522206BFCF799FEA8F10100216B01EBF9
:1039E000800929F0070909F0070008B9012000E063
:1039F000002028B940F22B321BA120A0FCF79AFD31
:103A0000002507E0795D04F134004155785D00B987
:103A100002E06D1C102DF5D300BF0021432001559D
:103A2000202E00D31F26E662E66400202065201DBC
:103A300000F06BFC04F1180000F067FC2461C6F193
:103A40002000A06164620020606584F858005A4636
:103A50005146484600F006FC20600B9808B10B98D0
:103A60000460BDE8F09F00002E2E5C467265655232
:103A7000544F535C7461736B732E63004572726FA5
:103A8000723A25732C25640D0A00000010B500243D
:103A900007E004EB84010F4A02EB810000F028FCF0
:103AA000641C202CF5D30C4800F022FC0B4800F0DD
:103AB0001FFC0B4800F01CFC0A4800F019FC0A48E7
:103AC00000F016FC044809490860044808490860E9
:103AD00010BD000030020024B0040024C4040024FF
:103AE000D8040024EC04002400050024380000243D
:103AF0003C00002410B50146164800E00068036849
:103B00008B42FBD30246436813448B4204D1436883
:103B10004C682344436001460A464B6813440468DA
:103B2000A34211D10C4C03682468A34208D04B680F
:103B30000468646823444B6003681B680B6005E0FD
:103B4000054B1B680B6001E003680B60884200D0E6
:103B5000016010BD90000024980000242DE9F04180
:103B600004460D4616461F464FF000086560246166
:103B7000B5420CD8F01BA169884202D34FF001086E
:103B800011E0211D0948006800F0C2FB0BE0BE42B5
:103B900004D2BD4202D34FF0010804E0211D0448C5
:103BA000006800F0B5FB4046BDE8F08174000024D9
:103BB0007000002470B5054600F0D0FBA86B08B972
:103BC000012400E0002400F011FC204670BD70B517
:103BD000054600F0C3FBA86BE96B884201D10124C4
:103BE00000E0002400F002FC204670BD2DE9F34106
:103BF0000D460098846C00272CB940F6CE121AA10D
:103C00001EA0FCF797FCA06BE16B884201D201205B
:103C100000E0002028B940F6CF1213A117A0FCF74E
:103C200089FCA06BE16B88421BD294F945602A465F
:103C300069462046FFF7FDFD0746701C60B9606AC3
:103C400008B9012000E0002050B904F1240001F07F
:103C50008DFC28B1012703E0701C40B284F84500B8
:103C600000BF3846BDE8FC812E2E5C467265655269
:103C7000544F535C71756575652E63004572726FA4
:103C8000723A25732C25640D0A000000F8B505462C
:103C90000F4613480068C068C468201D00F014FB7C
:103CA000E069012818D1A06941192B463A462046FF
:103CB000FFF754FF80B1002003462A4601460090DA
:103CC000204601F077FD06462EB94FF4027205A199
:103CD0000AA0FCF72FFC00BF2046616A8847F8BDA8
:103CE000700000242E2E5C4672656552544F535C62
:103CF00074696D6572732E63000000004572726F07
:103D0000723A25732C25640D0A000000F0B587B0C7
:103D100070E0039800280CDA04AE2EB940F2E722D6
:103D20003AA140A0FCF706FCD6E90020B168904714
:103D300000BF039800285DDB059C606908B901207D
:103D400000E0002010B9201D00F0BEFA02A800F02B
:103D5000C7F8054603980A284AD2DFE800F00905AB
:103D6000072C2E4506082D2F00BF00BF00BF00BF47
:103D70000498A269811803462A462046FFF7EEFE02
:103D8000C0B12046616A8847E069012812D100204D
:103D900000900498A169421800231946204601F0BA
:103DA00009FD07462FB940F2213218A11DA0FCF7EA
:103DB000C1FB00BF1DE000BF1BE000BF0498A06175
:103DC000A06908B1012000E0002028B94FF44E722C
:103DD0000EA114A0FCF7AEFBA06941192B462A46A0
:103DE0002046FFF7BBFE04E0204600F039FB00E070
:103DF00000BF00BF00231A4603A90E48006800F068
:103E00005BFF002885D107B0F0BD00002E2E5C4678
:103E100072656552544F535C74696D6572732E639D
:103E2000000000004572726F723A25732C25640DF4
:103E30000A00000078000024F8B505460C4600F0A2
:103E4000FDFD684600F04CF80646009820BB44B9DA
:103E5000B54206D801F0E4FB31462846FFF716FFCD
:103E60001CE03CB10E480068006808B9012000E081
:103E700000200446A91B22460A48006800F0C4FB43
:103E800001F0CEFB50B94FF0805007490860BFF3F6
:103E90004F8FBFF36F8F01E001F0C2FBF8BD000050
:103EA000740000247800002404ED00E00A49096849
:103EB000096809B9012100E0002121B14FF0FF316B
:103EC000064A116006E004490968C968C868034ADF
:103ED000416811607047000038000024640000242D
:103EE00070B5044601F020FA05460748006885428F
:103EF00004D200F00BF80120206001E000202060D7
:103F000001480560284670BD800000242DE9F84373
:103F10002DE021480068C06805681F480068C06837
:103F2000C468201D00F0D0F92046616A8847E06926
:103F300001281CD1A0694619AE4207D966602461E8
:103F4000211D1548006800F0E3F910E00020034649
:103F50002A4601460090204601F02CFC07462FB966
:103F600040F292320DA113A0FCF7E4FA00BF0A4818
:103F70000068006808B9012000E000200028C8D0CF
:103F80000548D0F800800F480068034908600D48D4
:103F9000C0F80080BDE8F883700000242E2E5C4637
:103FA00072656552544F535C74696D6572732E630C
:103FB000000000004572726F723A25732C25640D63
:103FC0000A000000740000240D480068401C08B975
:103FD000012000E0002028B940F2091209A115A033
:103FE000FCF7A8FA00BF502072B680F31188BFF327
:103FF0004F8FBFF36F8F62B600BF00BFFEE70000B8
:10400000840000242E2E5C4672656552544F535C2A
:10401000706F727461626C655C525644535C4152BD
:104020004D5F434D375C723070315C706F72742E2F
:10403000630000004572726F723A25732C25640D7F
:104040000A00000008B500BF6846FFF739FC0446C7
:1040500020460099FFF7F0FEFFF758FEF4E770B531
:10406000044600F07BF994F945501AE0A06C38B191
:1040700000212046FFF7BAFD88B100F0ABFB0EE04F
:10408000606A08B9012000E0002038B904F124007A
:1040900001F06CFA18B100F09DFB00E003E0681E2F
:1040A00045B2002DE2DC00BFFF2084F8450000F09F
:1040B0009DF900F053F994F9445010E0206908B9D3
:1040C000012000E0002048B904F1100001F04EFA90
:1040D00008B100F07FFB681E45B200E001E0002D52
:1040E000ECDC00BFFF2084F8440000F07FF970BDD5
:1040F0002DE9F04104464FF0000800F09FFC3E48D7
:10410000006808B9FFF7F0FB3C4800682040002831
:104110005FD1A4B1083404F0070080B104F00700B7
:10412000C0F10800044404F0070008B9012000E0D1
:10413000002020B9BF2232A13BA0FCF7FBF9002CE4
:1041400047D03D480068844243D83C4E304605681D
:1041500001E02E462D686868A04202D22868002837
:10416000F7D125480068854233D0306800F108084F
:10417000286830606868001B102813D92F1907F0D1
:10418000070008B9012000E0002020B9EC221CA1A2
:1041900025A0FCF7CFF96868001B78606C60384692
:1041A000FFF7A8FC244968680968081A22490860D2
:1041B0000846006822490968884203D21E48006800
:1041C0001F4908600D496868096808436860002055
:1041D000286001F025FA08F0070008B9012000E086
:1041E000002028B94FF4967205A10FA0FCF7A2F9A0
:1041F0004046BDE8F081000098000024A40000249F
:104200002E2E5C4672656552544F535C706F72740B
:1042100061626C655C4D656D4D616E675C68656182
:10422000705F342E630000004572726F723A25731E
:104230002C25640D0A0000009C000024900000243E
:10424000A00000240648006830B10549096801F162
:104250005000096D491C016001480068704700006A
:1042600034000024001F4FF080730360001F21F012
:1042700001030360001F054B036014380260001F38
:104280006FF002030360203870470000C93F000848
:1042900010B5044609480A490860084644600021F0
:1042A0008160C160016181610C214161FDF752FFB4
:1042B000012204490248FDF7D5FF10BD001001405E
:1042C000700100242600002401460A69D1E901306A
:1042D0009860D1E9010358605068884201D188682C
:1042E0005060002008611068401E10601068704720
:1042F00000F1080141604FF0FF31816000F10801D9
:10430000C1600161002101607047002101617047B7
:1043100010B502460B685C1C0CB9106907E002F18D
:10432000080000E04068446824689C42FAD9446868
:104330004C604C68A160886041600A611468641C2C
:10434000146010BD42684A6093688B60936859603E
:104350009160086103685B1C0360704710B500BF83
:10436000502072B680F31188BFF34F8FBFF36F8F69
:1043700062B600BF0B480068401C0A490860084646
:10438000006801280DD108480068C0B208B90120B2
:1043900000E0002028B940F2A91204A10FA0FCF708
:1043A000C9F810BD8400002404ED00E02E2E5C4608
:1043B00072656552544F535C706F727461626C65C4
:1043C0005C525644535C41524D5F434D375C7230F2
:1043D00070315C706F72742E630000004572726FF2
:1043E000723A25732C25640D0A00000010B50B48A5
:1043F000006828B94FF4D87209A115A0FCF79AF803
:1044000006480068401E054908600846006820B953
:10441000002080F3118800BF00BF10BD840000247D
:104420002E2E5C4672656552544F535C706F7274E9
:1044300061626C655C525644535C41524D5F434D22
:10444000375C723070315C706F72742E63000000E4
:104450004572726F723A25732C25640D0A000000B4
:1044600070B506463546002E35D0083D2C461A4913
:1044700060680968084008B1012000E0002028B900
:104480004FF4A07215A11FA0FCF754F8206808B9DA
:10449000012000E0002028B940F241120FA119A02C
:1044A000FCF748F80C4960680968084098B1206832
:1044B00088B90949606809688843606000F0BEFAFD
:1044C0001449606809680844124908602046FFF7EB
:1044D00011FB01F0A5F870BDA40000242E2E5C464F
:1044E00072656552544F535C706F727461626C6593
:1044F0005C4D656D4D616E675C686561705F342E03
:10450000630000004572726F723A25732C25640DAA
:104510000A0000009C000024064800684FF47A71ED
:10452000B0FBF1F0401E4FF0E02148610720086128
:10453000704700001000002470B5FBF75FFF0546D0
:10454000102D11D305F1E02090F8F04310480078C9
:10455000844201DB012000E0002028B940F2F22271
:104560000CA118A0FBF7E6FF1A48006800F4E06011
:1045700019490968884201D8012000E0002028B9C3
:1045800040F2023203A10FA0FBF7D4FF70BD000080
:10459000880000242E2E5C4672656552544F535C91
:1045A000706F727461626C655C525644535C415228
:1045B0004D5F434D375C723070315C706F72742E9A
:1045C000630000004572726F723A25732C25640DEA
:1045D0000A0000000CED00E08C00002402460020E0
:1045E0000BE0084B53F8303033B9064B43F830102A
:1045F00003EBC0035A6002E0401C0828F1D300BF5F
:1046000070470000F00100242DE9F04105460E46F8
:1046100017462C46FFF7A2FE94F94400401C10B93F
:10462000002084F8440094F94500401C10B9002093
:1046300084F84500FFF7DAFEA06B28B93A46314608
:1046400004F1240000F0F6F82046FFF708FDBDE86D
:10465000F081000070B504460025ACB10F48006839
:1046600008B9012000E0002028B940F2CF420CA197
:1046700010A0FBF75FFF00F0E1F900212046FEF7F4
:10468000B7FF00F0CDFF05463DB94FF080500D4912
:104690000860BFF34F8FBFF36F8F70BD6C000024B5
:1046A0002E2E5C4672656552544F535C7461736B79
:1046B000732E63004572726F723A25732C25640D58
:1046C0000A00000004ED00E070B50546FFF746FE65
:1046D00015B92D48006800E028460446201DFFF764
:1046E000F3FD78B9E06A00EB8000284951F820001A
:1046F00040B994F82C10012088402549096881436D
:1047000023480160A06A18B104F11800FFF7DCFD2E
:1047100020480068401C1F4908601B48006884420C
:1047200009D1211D1C48FFF70DFE1C480068401CE4
:104730001A49086009E01A480068401E18490860D4
:104740002046FFF7B4F8FFF7B1FBFFF74FFE15481F
:104750000068C0B10C480068844214D11248006857
:1047600008B9012000E0002028B940F265420FA1FD
:1047700013A0FBF7DFFE4FF0805015490860BFF330
:104780004F8FBFF36F8F70BD3400002430020024C0
:104790004C00002460000024EC04002440000024AD
:1047A00044000024500000246C0000242E2E5C469F
:1047B00072656552544F535C7461736B732E630062
:1047C0004572726F723A25732C25640D0A00000041
:1047D00004ED00E001200149086070475800002402
:1047E00070B504460D462CB940F6063207A10CA060
:1047F000FBF7A0FE0E48016818312046FFF788FD40
:1048000001212846FEF7F4FE70BD00002E2E5C4606
:1048100072656552544F535C7461736B732E630001
:104820004572726F723A25732C25640D0A000000E0
:104830003400002470B505460E4614462DB940F6E6
:10484000313209A10DA0FBF775FE1048016818313F
:104850002846FFF777FD0CB14FF0FF362146304672
:10486000FEF7C6FE70BD00002E2E5C4672656552D6
:10487000544F535C7461736B732E63004572726F97
:10488000723A25732C25640D0A00000034000024C0
:1048900070B505462C46002D4BD02649E06A0968C4
:1048A000C96A884245D2A06900F0004028B9214871
:1048B0000068C06AC0F12000A061E16A01EB8101DB
:1048C0001D4A02EB81016069884201D1012000E0AC
:1048D000002050B3201DFFF7F7FC78B9E06A00EB29
:1048E0008000154951F8200040B994F82C1001209F
:1048F0008840124909688143104801600D480068EA
:10490000C06AE06294F82C10012088400B490968C5
:1049100008430A490860E16A01EB8101064A02EB9B
:104920008100211DFFF70EFD03E002480068C06A08
:10493000E06270BD34000024300200244C000024EA
:1049400010B504462CB940F6C13205A109A0FBF709
:10495000F1FD0C48006820600B480068606010BDE5
:104960002E2E5C4672656552544F535C7461736BB6
:10497000732E63004572726F723A25732C25640D95
:104980000A0000005C000024480000241CB51B48FD
:1049900000210B468222CDE9001019A11A4800F02F
:1049A00083FC0446012C02D100F0CAFE0446012C0F
:1049B00017D100BF502072B680F31188BFF34F8F1C
:1049C000BFF36F8F62B600BF4FF0FF300F49086032
:1049D00001200F49086000200E49086000F08AF8A5
:1049E0000BE0601C08B1012000E0002028B940F273
:1049F000847209A10DA0FBF79DFD1CBD6800002479
:104A000049444C450000000065390008640000245A
:104A100050000024480000242E2E5C46726565522A
:104A2000544F535C7461736B732E63004572726FE5
:104A3000723A25732C25640D0A00000002480068B4
:104A4000401C0149086070476C00002410B51B48E9
:104A5000006818B101201A4908602DE000201849AB
:104A6000086018480068B0FA80F0C0F11F0404EB39
:104A70008400154951F8200008B1012000E0002011
:104A800028B940F6F62211A115A0FBF753FD04EB5F
:104A900084010D4A02EB810041684968416000F1E0
:104AA000080142688A4202D1416849684160416810
:104AB000C9680F4A116000BF10BD00006C000024DF
:104AC000580000244C000024300200242E2E5C46A6
:104AD00072656552544F535C7461736B732E63003F
:104AE0004572726F723A25732C25640D0A0000001E
:104AF000340000241CB52F4C204600780190FF2084
:104B0000214608700846007800909DF8000000F0EB
:104B1000F0009DF80010884201D1012000E0002043
:104B200028B940F2631224A12FA0FBF703FD9DF8E2
:104B3000000000F050003049087007202F4908603D
:104B400009E02E480068401E2C4908609DF80000CE
:104B50004006000E00909DF8000000F080008028C4
:104B6000EFD0264800680002244908600846008803
:104B700000F4E06008600F49019808702048006860
:104B800040F470001E4908600846006840F070401C
:104B90000860FFF7C1FC00201A490860FBF7F4FB2E
:104BA0001948006840F0404017490860FBF7DCFBFB
:104BB00000201CBD00E400E02E2E5C4672656552AC
:104BC000544F535C706F727461626C655C525644F2
:104BD000535C41524D5F434D375C723070315C70B5
:104BE0006F72742E630000004572726F723A257303
:104BF0002C25640D0A000000880000248C0000248D
:104C000020ED00E08400002434EF00E010B500BF88
:104C1000502072B680F31188BFF34F8FBFF36F8FB0
:104C200062B600BF00F086FB18B14FF08050044917
:104C3000086000BF002080F3118800BF10BD000095
:104C400004ED00E02DE9F84305460E4690460DB10F
:104C5000012000E0002028B94FF4C4720DA112A079
:104C6000FBF768FC0EB9002701E005FB06F707F12A
:104C70005400FFF73DFA044644B104F15409434699
:104C80004A46314628460094FEF780FE2046BDE89D
:104C9000F88300002E2E5C4672656552544F535CBB
:104CA00071756575652E63004572726F723A257372
:104CB0002C25640D0A0000002DE9FF4782B005464F
:104CC0000E461F464FF0000A2C462CB940F2DC423B
:104CD00061A166A0FBF72EFC0EB9206C08B901207B
:104CE00000E0002028B940F2DD425BA15FA0FBF7A5
:104CF00021FC00F009FB08B9049808B9012000E084
:104D0000002028B94FF49C6253A158A0FBF712FC75
:104D100000BFFFF723FBD4F83890B9F1000F3DD066
:104D2000D4F80C8031462046FEF76EFDDFB9A9F1BC
:104D30000100A063206810B9FFF784FA6060206961
:104D400008B9012000E0002010BB04F1100000F0C1
:104D50000DFCE8B14FF0805048490860BFF34F8F19
:104D6000BFF36F8F14E0C4F80C80606A08B90120AB
:104D700000E0002060B904F1240000F0F7FB38B136
:104D80004FF080503D490860BFF34F8FBFF36F8FE6
:104D9000FFF72CFB012006B0BDE8F087049818B996
:104DA000FFF724FB0020F6E7BAF1000F04D16846B4
:104DB000FFF7C6FD4FF0010AFFF718FBFFF73EFEB5
:104DC000FFF7CCFA94F94400401C10B9002084F895
:104DD000440094F94500401C10B9002084F84500B7
:104DE000FFF704FB04A9684600F00EFA40BB20461A
:104DF000FEF7E0FEF0B1206830B9FFF7AFFA606867
:104E0000FFF746FDFFF7F2FA04F124000499FFF7DB
:104E1000E7FC2046FFF723F900F002FC00287FF4AE
:104E200078AF4FF0805015490860BFF34F8FBFF344
:104E30006F8F6EE72046FFF712F900F0F1FB68E78D
:104E40002046FFF70CF900F0EBFB2046FEF7B2FE20
:104E50000028EED000209EE72E2E5C46726565523B
:104E6000544F535C71756575652E63004572726FA2
:104E7000723A25732C25640D0A00000004ED00E051
:104E800070B505460E462C462CB940F21B121EA1E9
:104E900022A0FBF74FFBFFF761FAD4E90F1220685D
:104EA00001FB020060600020A0632068A060E06B4E
:104EB000401E226C216800FB0210E060FF2084F895
:104EC000440084F845009EB9206908B9012000E03B
:104ED0000020A8B904F1100000F048FB80B14FF0A9
:104EE000805012490860BFF34F8FBFF36F8F07E008
:104EF00004F11000FFF7FCF904F12400FFF7F8F9C2
:104F0000FFF774FA012070BD2E2E5C467265655263
:104F1000544F535C71756575652E63004572726FF1
:104F2000723A25732C25640D0A00000004ED00E0A0
:104F30002DE9FF4383B0064688461D464FF0000921
:104F400034462CB940F2D92260A165A0FBF7F2FAF1
:104F5000B8F1000F01D1206C08B9012000E0002059
:104F600028B940F2DA2259A15DA0FBF7E3FA022D3D
:104F700002D1E06B012801D1012000E0002028B916
:104F800040F2DB2251A156A0FBF7D4FA00F0BCF9A5
:104F900008B9059808B9012000E0002028B940F2BE
:104FA000DE224AA14EA0FBF7C5FA00BFFFF7D6F9F3
:104FB000A06BE16B884201D3022D38D12A464146CD
:104FC0002046FEF736FC0746A06C68B1294620460D
:104FD000FEF70CFE28B34FF0805045490860BFF340
:104FE0004F8FBFF36F8F1CE0606A08B9012000E0AB
:104FF000002068B904F1240000F0B8FA88B14FF03D
:1050000080503B490860BFF34F8FBFF36F8F08E0BC
:105010003FB14FF0805036490860BFF34F8FBFF368
:105020006F8FFFF7E3F9012007B0BDE8F083059823
:1050300018B9FFF7DBF90020F6E7B9F1000F04D14A
:1050400001A8FFF77DFC4FF00109FFF7CFF9FFF74B
:10505000F5FCFFF783F994F94400401C10B90020D7
:1050600084F8440094F94500401C10B9002084F8ED
:105070004500FFF7BBF905A901A800F0C5F8F0B994
:105080002046FEF7A4FDA0B104F110000599FFF73A
:10509000A7FB2046FEF7E3FF00F0C2FA002885D107
:1050A0004FF0805012490860BFF34F8FBFF36F8FEE
:1050B0007CE72046FEF7D3FF00F0B2FA76E7204601
:1050C000FEF7CDFF00F0ACFA0020ADE72E2E5C46D7
:1050D00072656552544F535C71756575652E63003A
:1050E0004572726F723A25732C25640D0A00000018
:1050F00004ED00E02DE9F05F80468A4615461E4625
:1051000044462CB940F29F3236A13BA0FBF712FA7D
:10511000BAF1000F01D1206C08B9012000E0002095
:1051200028B94FF468722FA133A0FBF703FA022EBF
:1051300002D1E06B012801D1012000E0002028B954
:1051400040F2A13227A12CA0FBF7F4F9FFF7F4F904
:1051500000BF5021EFF3118072B681F31188BFF3C5
:105160004F8FBFF36F8F62B600BF0746A06BE16B36
:10517000884201D3022E2BD194F945B032465146D4
:105180002046FEF756FB0BF10100C8B9A06C40B1F8
:1051900031462046FEF72AFDB8B1B5B1012028609E
:1051A00013E0606A08B9012000E0002068B904F14A
:1051B000240000F0DBF940B13DB10120286004E09B
:1051C0000BF1010040B284F845004FF0010901E005
:1051D0004FF0000900BF87F3118800BF4846BDE8C3
:1051E000F09F00002E2E5C4672656552544F535C52
:1051F00071756575652E63004572726F723A25731D
:105200002C25640D0A0000002DE9F04104460D46EE
:105210002CB940F6CB3219A11DA0FBF78BF92DB9A3
:1052200040F6CC3215A11AA0FBF784F9FFF796F8E7
:105230001B4807682868401C08B9002619E019496E
:1052400020680968884204D06068B84201D8012605
:105250000FE06068381A2968884209D228686168B6
:10526000791A401A28602046FFF76AFB002600E002
:105270000126FFF7BBF83046BDE8F0812E2E5C46D4
:1052800072656552544F535C7461736B732E630087
:105290004572726F723A25732C25640D0A00000066
:1052A000480000245C0000242DE9FF4F85B08046B3
:1052B00089461746DDE912ABB800FEF719FF06462E
:1052C00056B15C20FEF714FF04460CB1266304E0DF
:1052D0003046FFF7C5F800E000247CB10020CDE99E
:1052E00000ABCDE902403A4649464046089BFEF7EE
:1052F00065FB2046FEF7C8F9012501E04FF0FF35B8
:10530000284609B0BDE8F08F0549096809B90120B0
:1053100005E00449096809B9022000E0002070474F
:10532000500000246C000024014908687047000008
:10533000480000242DE9F0414FF000084148006882
:10534000002872D140480068451C3F480560EDB90F
:105350003E480068006808B9012000E0002028B934
:1053600040F6D9123AA13FA0FBF7E4F837480768A6
:1053700040480068354908603E4807603E4800687C
:10538000401C3D490860FEF791FD00BF3B480068A6
:1053900085423CD300BF2D480068006808B9012051
:1053A00000E0002020B14FF0FF30344908602DE0CC
:1053B00026480068C068C4686668B54202D22F48B3
:1053C000066023E0201DFEF77FFFA06A18B104F1FC
:1053D0001800FEF779FF94F82C1001208840284926
:1053E0000968084326490860E16A01EB8101254A02
:1053F00002EB8100211DFEF7A5FF2349E06A096841
:10540000C96A8842C7D34FF00108C4E700BF1E48ED
:105410000068C06A00EB80001A4951F8200001289A
:1054200001D94FF0010805E0FFE718480068401C6B
:10543000164908601648006808B14FF00108404658
:10544000BDE8F0816C0000244800002438000024EE
:105450002E2E5C4672656552544F535C7461736BBB
:10546000732E63004572726F723A25732C25640D9A
:105470000A0000003C0000245C00002464000024BA
:105480004C00002430020024340000245400002486
:105490005800002470B505462C460026002D4BD040
:1054A00026480068844201D1012000E0002028B98C
:1054B00040F6C76222A127A0FBF73CF8206D28B96F
:1054C00040F6C9621EA123A0FBF734F8206D401EF0
:1054D0002065E16CE06A88422ED0206D60BB201D03
:1054E000FEF7F2FE78B9E06A00EB80001D4951F842
:1054F000200040B994F82C10012088401A4909680E
:10550000814319480160E06CE062E06AC0F120006C
:10551000A06194F82C1001208840134909680843C1
:1055200011490860E16A01EB81010E4A02EB81003A
:10553000211DFEF707FF0126304670BD3400002410
:105540002E2E5C4672656552544F535C7461736BCA
:10555000732E63004572726F723A25732C25640DA9
:105560000A000000300200244C00002470B50646FA
:10557000F068C4682CB940F661321AA11EA0FAF78F
:10558000D9FF04F11800FEF79FFE1F480068A8B974
:10559000201DFEF799FE94F82C10012088401B492D
:1055A0000968084319490860E16A01EB8101184A5A
:1055B00002EB8100211DFEF7C5FE04E004F1180195
:1055C0001448FEF7BFFE1449E06A0968C96A8842B8
:1055D00004D9012501201149086000E00025284672
:1055E00070BD00002E2E5C4672656552544F535CB0
:1055F0007461736B732E63004572726F723A257318
:105600002C25640D0A0000006C0000244C000024CE
:1056100030020024D8040024340000245800002460
:1056200070B5002400263448006828B94FF4FD62A4
:1056300032A137A0FAF77EFFFEF790FE2E480068F1
:10564000401E2D4908600846006800284FD13448A4
:10565000006800284BD024E03248C068C46804F1D8
:105660001800FEF731FE201DFEF72EFE94F82C10D8
:10567000012088402C49096808432B490860E16AE9
:1056800001EB8101294A02EB8100211DFEF75AFE40
:105690002749E06A0968C96A884202D3012025497E
:1056A00008602048006808B9012000E000200028B8
:1056B000D2D00CB1FEF7FAFB1F48056865B100BFF8
:1056C000FFF738FE10B101201A4908606D1E002D49
:1056D000F6D10020184908601648006838B1012644
:1056E000300716490860BFF34F8FBFF36F8FFEF787
:1056F0007DFE304670BD00006C0000242E2E5C46FE
:1057000072656552544F535C7461736B732E630002
:105710004572726F723A25732C25640D0A000000E1
:1057200044000024D80400244C000024300200244B
:1057300034000024580000245400002404ED00E04C
:105740001CB50024FDF7FCFF0B48006858B10B485E
:105750001F2100234FF48272CDE9001008A10A48EE
:10576000FFF7A2FD04462CB940F2331207A10DA0A9
:10577000FAF7E0FE20461CBD780000247C000024DF
:10578000546D722053766300454000082E2E5C460F
:1057900072656552544F535C74696D6572732E6304
:1057A000000000004572726F723A25732C25640D5B
:1057B0000A0000002DE9FF4704460D4616461F4625
:1057C000DDF830804FF000092CB94FF4D37217A1E7
:1057D0001CA0FAF7AFFE1F48006810B300950196B1
:1057E0000294062D15DAFFF78FFD022808D1002359
:1057F0004246694617480068FFF79AFB814610E069
:1058000000231A46694613480068FFF791FB81465A
:1058100007E000233A4669460E480068FFF76AFC35
:105820008146484604B0BDE8F08700002E2E5C4655
:1058300072656552544F535C74696D6572732E6363
:10584000000000004572726F723A25732C25640DBA
:105850000A000000780000244FF04070E1EE100ACA
:105860007047010002000400060008000A000C0056
:105870001000200040008000000101000200040030
:10588000060008000A000C00100020004000800004
:1058900000010000000001020304010203040607E6
:1058A0000809010002000400060008000A000C00BC
:1058B00010002000400080000001010002000400F0
:1058C000060008000A000C001000200040008000C4
:1058D00000010000F458000800000024A8000000A7
:1058E000D40200089C590008A8000024F85A0000BF
:1058F000F0020008000000000000000000000000AE
:10590000000000000090D0030090D00300000000D1
:105910000000000000000000000000000000000087
:105920001000000001000000000000000000000066
:105930000000000000000000000000000000000067
:105940000000000000000000000000000000000057
:105950000000000000000000000000000000000047
:105960000000000000000000000000000000000037
:105970000000000000000000AAAAAAAA000000007F
:105980000000000000000000000000000000000017
:0C5990000000000000000000000000000B
:040000050800029954
:00000001FF
