:020000040800F2
:1000000050600024050400089D2C0008B728000853
:10001000992C0008B5090008213E000800000000E6
:10002000000000000000000000000000490300087C
:10003000110A0008000000009D0300085930000864
:100040001F0400081F0400081F0400081F04000804
:100050001F0400081F0400081F0400081F040008F4
:100060001F0400081F0400081F0400081F040008E4
:100070001F0400081F0400081F0400081F040008D4
:100080001F0400081F0400081F0400081F040008C4
:100090001F0400081F0400081F0400081F040008B4
:1000A0001F0400081F0400081F0400081F040008A4
:1000B0001F0400081F0400081F0400081F04000894
:1000C0001F0400081F0400081F0400081F04000884
:1000D0001F040008D13D00081F0400081F04000889
:1000E0001F0400081F040008000000001F0400088F
:1000F0001F0400081F0400081F0400081F04000854
:100100001F0400081F0400081F0400081F04000843
:100110001F0400081F0400081F0400081F04000833
:100120001F0400081F0400081F0400081F04000823
:100130001F0400081F0400081F0400081F04000813
:1001400000000000000000000000000000000000AF
:100150001F0400081F0400081F0400081F040008F3
:100160001F0400081F0400081F0400081F040008E3
:100170001F0400081F0400081F0400081F040008D3
:100180001F0400081F0400081F0400081F040008C3
:100190001F0400081F0400081F0400081F040008B3
:1001A0001F0400081F0400081F0400081F040008A3
:1001B0001F0400081F0400081F0400081F04000893
:1001C0001F0400081F0400081F0400081F04000883
:1001D0001F0400081F0400081F0400081F04000873
:1001E0001F0400081F0400081F0400081F04000863
:1001F0001F0400081F0400081F0400081F04000853
:100200001F0400081F0400081F0400081F04000842
:100210001F0400081F0400081F0400081F04000832
:100220001F0400081F0400081F040008000000004D
:100230001F0400081F040008000000001F0400083D
:100240001F0400081F0400081F0400081F04000802
:100250001F0400081F0400081F0400081F040008F2
:100260001F0400081F0400081F0400081F040008E2
:100270001F0400081F0400081F04000800000000FD
:100280001F0400081F0400081F04000800000000ED
:10029000000000001F04000800F002F800F044F81D
:1002A0000AA090E8000C82448344AAF10107DA45D1
:1002B00001D100F039F8AFF2090EBAE80F0013F0DF
:1002C000010F18BFFB1A43F00103184788670000AD
:1002D000A8670000103A24BF78C878C1FAD852073E
:1002E00024BF30C830C144BF04680C6070470000B0
:1002F0000023002400250026103A28BF78C1FBD82F
:10030000520728BF30C148BF0B607047642900F016
:100310007B81732900F0AE82002070471FB506F084
:100320005BFB1FBD10B510BD00F012FB1146FFF7BF
:10033000F5FF04F0D1F800F030FB03B4FFF7F2FF53
:1003400003BC03F08BFD00002B4B19680868B0E874
:10035000F04F80F30988BFF36F8F4FF0000080F3F8
:10036000118870470000000006480068006880F3AC
:10037000088862B661B6BFF34F8FBFF36F8F00DF9F
:1003800000BF00BF08ED00E0DFF80C00016841F499
:1003900070010160704700BF88ED00E0EFF3098055
:1003A000BFF36F8F144B1A681EF0100F08BF20EDBB
:1003B000108A20E9F04F106008B44FF0500072B678
:1003C00080F31188BFF34F8FBFF36F8F62B605F0D4
:1003D000FDFB4FF0000080F3118808BC1968086825
:1003E000B0E8F04F1EF0100F08BFB0EC108A80F399
:1003F0000988BFF36F8F704750000024EFF305802A
:10040000704700000948804709480047FEE7FEE7BB
:10041000FEE7FEE7FEE7FEE7FEE7FEE7FEE7FEE7B4
:1004200004480549054A064B70470000693000083A
:1004300099020008505A002450600024505C0024A7
:10044000505C002453EA020C00F069802DE9F04B67
:100450004FF00006002B1FBFB3FA83F503FA05F433
:1004600024FA05F65E4012BF1643B2FA82F502FA8C
:1004700005F4C5F120051EBF22FA05FC44EA0C0470
:10048000203556EA044C4FEA144418BF641C4FF060
:1004900000084FF00009904271EB030C39D300299A
:1004A00019BFB1FA81F701FA07F6B0FA80F700FA3E
:1004B00007F6C7F120071EBF20FA07FC46EA0C0624
:1004C0002037B6FBF4FCA7EB0507103F07F01F0B26
:1004D000CBF120060CFA0BFB2CFA06F644BFB34610
:1004E0000026202FA4BF5E464FF0000B5BEA060CEF
:1004F00008BF4FF0010B19EB0B09ABFB027C48EB7B
:100500000608C01B06FB02CC0BFB03CC71EB0C01F5
:10051000C1E70B46024641464846BDE8F08B13B59D
:100520004FF000004FF00001AFF30080BDE81C4029
:10053000704700000FB4044910B503AA029800F0F8
:100540009DF910BC5DF814FB3C0000242DE9F0413E
:100550000E460446002020622046E168884730B3FA
:10056000252805D0D4E901219047206A401CF2E7F4
:10057000E168204600278847050018D0A5F1410012
:10058000192802D820354FF4006732462946204604
:100590002760FFF7BBFE40B1012804D0F61D26F00E
:1005A00007060836D8E7361DD6E72846DAE7206A78
:1005B000BDE8F08170B50C460546012A05D02878C3
:1005C000800600D5EA69002302E0012305E05B1CF8
:1005D000934202D2E05C0028F9D1A869E618C01A5B
:1005E000A861286A184428622846AFF3008004E016
:1005F000D5E9012114F8010B9047B442F8D32846FD
:10060000AFF3008070BD00002DE9F04106460024E4
:1006100010687529314616A510D0AFF30080002868
:1006200002DA404213A507E031688A0701D512A516
:1006300002E0490704D511A5012401E0AFF30080D1
:1006400000210A2206F1240709E0B0FBF2FCB0FB0E
:10065000F2F302FB1C00303078541846491C002885
:10066000F3D123462A463046BDE8F04100F07FB87A
:10067000000000002D0000002B0000002000000002
:10068000032A40F2308010F0030C00F0158011F8BE
:10069000013BBCF1020F624498BF11F801CB00F896
:1006A000013B38BF11F8013BA2F1040298BF00F8EA
:1006B00001CB38BF00F8013B11F0030300F0F080DC
:1006C000083AC0F0088051F8043B083A51F804CBCE
:1006D000A0E80810F5E7121D5CBF51F8043B40F894
:1006E000043BAFF30080D20724BF11F8013B11F89F
:1006F00001CB48BF11F8012B24BF00F8013B00F8E3
:1007000001CB48BF00F8012B704702F0FF0343EA1A
:10071000032242EA024200F0F7B84FF0000200B5AF
:10072000134694469646203922BFA0E80C50A0E814
:100730000C50B1F12001BFF4F7AF090728BFA0E8C2
:100740000C5048BF0CC05DF804EB890028BF40F88E
:10075000042B08BF704748BF20F8022B11F0804FD0
:1007600018BF00F8012B70477047704770472DE99C
:10077000F0470D4699469246044600F12408016868
:10078000880604D5E06921F01001216000E0012015
:10079000A84201DD471B00E00027A1697A1902EB9E
:1007A0000900081AA0612078C00602D42046AFF3E1
:1007B0000080002608E0D4E901211AF806009047DD
:1007C000206A401C761C20624E45F4DB2078C0066F
:1007D0000AD52046AFF3008006E0D4E9012130209D
:1007E0009047206A401C2062381EA7F10107F4DC04
:1007F00007E0D4E9012118F805009047206A401C61
:100800002062281EA5F10105F3DC2046AFF300802D
:100810002078000602D50220BDE8F0870120FBE722
:1008200001694A1C02610878704700B58FB0CDE9B4
:1008300001310021059105497944CDE903101146A4
:100840006846FFF783FE0FB000BD0000E5FFFFFF25
:1008500010B5436913B1AFF3008001E0FFF7AAFEC2
:10086000012010BD127800F124010A7000224A70A4
:100870000122EDE711684FF0FF32E9E7074B70B551
:100880000D467B44FFF7D1FF0446284600F05CF894
:1008900010B14FF0FF3070BD204670BDE73600004C
:1008A00010B5203AC0F00B80B1E81850203AA0E80B
:1008B0001850B1E81850A0E81850BFF4F5AF5FEA3F
:1008C000027C24BFB1E81850A0E8185044BF18C9F2
:1008D00018C0BDE810405FEA827C24BF51F8043B99
:1008E00040F8043B08BF7047D20728BF31F8023BED
:1008F00048BF11F8012B28BF20F8023B48BF00F881
:10090000012B70474FF000020429C0F0128010F054
:10091000030C3FF404AFCCF1040CBCF1020F18BF80
:1009200000F8012BA8BF20F8022BA1EB0C01FFF768
:10093000F6BE5FEAC17C24BF00F8012B00F8012B52
:1009400048BF00F8012B7047007B00F08000704723
:10095000754600F02BF8AE4605006946534620F078
:100960000700854618B020B5FFF75AFDBDE82040C6
:100970004FF000064FF000074FF000084FF0000B5B
:1009800021F00701AC46ACE8C009ACE8C009ACE80E
:10099000C009ACE8C0098D46704710B50446AFF3F6
:1009A00000802046BDE81040FFF7C7BC00487047F4
:1009B000F059002400BFFEE730B502460B464FF663
:1009C000FF70002112E0555C684000240AE000F04E
:1009D000010525B14AF2010585EA600000E04010FA
:1009E000651CECB2082CF2DB4D1CE9B29942EADB43
:1009F00030BD000010B502F0A1F902F051F9034832
:100A0000006840F004000149086010BD9CEF00E060
:100A10007047000010B504460CB9012010BD94F8D1
:100A20003500022803D0802060650120F6E73449B4
:100A30002068884205D333492068884201D80120C4
:100A400000E00020C0B1042084F835002C49206863
:100A500088420AD32B492068884206D8206800685B
:100A600020F001002168086048E02068006820F05C
:100A700001002168086041E02068006820F00E0055
:100A8000216808601E49206888420AD31D492068F1
:100A9000884206D82068006820F0010021680860BC
:100AA00005E02068006820F0010021680860206EE1
:100AB000006820F48070216E086094F85C100120BA
:100AC000884011490860D4E919104860E06E40B1CF
:100AD000E06E006820F48070E16E0860D4E91C10BC
:100AE000486000BF002084F8340000BF012084F873
:100AF0003500206D10B12046216D884700208DE71C
:100B000010000240B8040240045402580348006830
:100B100040F00100014908607047000020040058BF
:100B2000F8B502460B460021002600240020824D25
:100B300000BFFCE0012707FA01F61F6807EA060478
:100B4000B4427CD15F68022F02D05F68122F1AD1A5
:100B50004FEAD10C02F1200757F82C004F074FEA5B
:100B6000D76C0F2707FA0CF7B8434FEA417C4FEADE
:100B7000DC6C1F6907FA0CF738434FEAD10C02F11D
:100B8000200747F82C0010684FEA410C032707FAAA
:100B90000CF7B8431F7907F003074FEA410C07FA37
:100BA0000CF7384310605F68012F08D05F68022F90
:100BB00005D05F68112F02D05F68122F17D190689F
:100BC0004FEA410C032707FA0CF7B8434FEA410CF0
:100BD000DF6807FA0CF738439060506801278F40B0
:100BE000B8431F79C7F300178F4038435060D0686F
:100BF0004FEA410C032707FA0CF7B8434FEA410CC0
:100C00009F6807FA0CF73843D0605F6807F0805799
:100C1000B7F1805F95D100BF484F3F6847F00207AA
:100C2000DFF818C1CCF8007067463F6807F002078C
:100C3000009700BF00BF424F4FEA910C00E075E003
:100C400057F82C008F074FEA177C0F2707FA0CF78D
:100C5000B8433C4FBA4201D100272DE03A4FBA4287
:100C600001D1012728E0394FBA4201D1022723E000
:100C7000374FBA4201D103271EE0364FBA4201D1A5
:100C8000042719E0344FBA4201D1052714E0334F4D
:100C9000BA4201D106270FE0314FBA4201D10727EE
:100CA0000AE0304FBA4201D1082705E02E4FBA4280
:100CB00001D1092700E00A274FEA817C4FEA1C7C1A
:100CC00007FA0CF738431E4F4FEA910C47F82C00F7
:100CD0002868A0435F6807F48037B7F5803F00D1EC
:100CE000204328606868A0435F6807F40037B7F5C1
:100CF000003F00D1204368604FF0B0473868A04300
:100D00005F6807F48017B7F5801F00D120434FF0CC
:100D1000B04738607868A0435F6807F40017B7F5FC
:100D2000001F00D120434FF0B0477860491C1029C4
:100D3000FFF400AFF8BD000080000058F4440258F2
:100D40000804005800000258000402580008025825
:100D5000000C0258001002580014025800180258E3
:100D6000001C025800200258002402580AB10183D6
:100D700000E04183704700000148006870470000B0
:100D80004400002410B504460CB9012010BD94F8AD
:100D9000410028B9002084F84000204600F00EFAF7
:100DA000242084F841002068006820F001002168B8
:100DB0000860606820F070602168086120688068C1
:100DC00020F4004021688860E068012805D1A0680F
:100DD00040F400402168886004E0A06840F40440CA
:100DE00021688860E068022802D18002216848609A
:100DF0002068406813490843216848602068C0683B
:100E000020F400402168C860D4E904010843A169C6
:100E100040EA01202168C860D4E90701084321683D
:100E200008602068006840F0010021680860002028
:100E30006064202084F841000020206384F8420090
:100E400000BFA3E7008000022DE9FC5F044689464D
:100E500092469B46DDE90C780E9E002594F84100F1
:100E600020287DD117B1B8F1000F02D10120BDE8D3
:100E7000FC9F00BF94F84000012801D10220F6E752
:100E8000012084F8400000BFFFF776FF05461923D4
:100E90000122D1032046009501F014FE08B1032081
:100EA000E5E7222084F84100402084F84200002039
:100EB00060646762A4F82A8060635B4652464946D4
:100EC0002046CDE9006501F053FD80B1606C042837
:100ED00006D100BF002084F8400000BF0120C6E713
:100EE00000BF002084F8400000BF0320BFE7608DF2
:100EF000FF280CD9FF2020854048009094F8282036
:100F00004FF080734946204601F0C2FD0BE0608D32
:100F100020853A48009094F828204FF00073494605
:100F2000204601F0B5FD00BF3346002204212046D3
:100F3000009501F0C7FD08B1032098E72068406ADA
:100F4000C1B2626A501C60621170208D401E208503
:100F5000608D401E6085208D48BB608D38B300E0F9
:100F600049E03346002280212046009501F0AAFD89
:100F700008B103207BE7608DFF280CD9FF20208576
:100F80000020009094F828204FF0807349462046B6
:100F900001F07EFD0BE0608D20850020009094F82C
:100FA00028204FF000734946204601F071FD608D06
:100FB0000028B9D12A463146204601F0AEFD30B1B5
:100FC000606C042801D1012051E703204FE7202065
:100FD0002168C86120684068094908402168486064
:100FE000202084F84100002084F8420000BF84F8EB
:100FF000400000BF3BE7022039E7000000240080EA
:1010000000E800FE2DE9FC5F0446894692469B46B7
:10101000DDE90C780E9E002594F8410020286ED161
:1010200017B1B8F1000F02D10120BDE8FC9F00BF4D
:1010300094F84000012801D10220F6E7012084F84D
:10104000400000BFFFF798FE054619230122D10397
:101050002046009501F036FD08B10320E5E7212088
:1010600084F84100402084F84200002060646762F8
:10107000A4F82A8060635B46524649462046CDE983
:10108000006501F0BDFC80B1606C042806D100BF92
:10109000002084F8400000BF0120C6E700BF002008
:1010A00084F8400000BF0320BFE7608DFF280CD903
:1010B000FF2020850020009094F828204FF08073B6
:1010C0004946204601F0E4FC0BE0608D20850020BD
:1010D000009094F828204FF000734946204601F014
:1010E000D7FC00BF2A463146204601F041FD38B109
:1010F000606C042801D1012097E7032095E759E0AF
:10110000616A481C6062087821688862608D401EB0
:101110006085208D401E2085208D38BB608D28B3D2
:101120003346002280212046009501F0CBFC08B117
:1011300003207AE7608DFF280CD9FF20208500204E
:10114000009094F828204FF080734946204601F023
:101150009FFC0BE0608D20850020009094F82820F3
:101160004FF000734946204601F092FC608D002844
:10117000B8D12A463146204601F0CFFC30B1606C30
:10118000042801D1012050E703204EE720202168E8
:10119000C8612068406808490840216848602020EC
:1011A00084F84100002084F8420000BF84F8400029
:1011B00000BF3AE7022038E700E800FE10B586B02D
:1011C0000446142101A8FFF7A8FA194920688842AB
:1011D0002CD100BF1748006840F002001549086094
:1011E0000846006800F00200009000BF00BF4FF406
:1011F000407001901220029001200390032004907F
:101200000420059001A90C48FFF78AFC00BF09489B
:101210000830006840F400100649083108600846AC
:10122000006800F40010009000BF00BF06B010BDC1
:1012300000540040E04402580004025810B5032056
:1012400000F07EF80F2000F007F808B1012010BD73
:1012500000F028F80020FAE770B504460E48007840
:101260004FF47A71B1FBF0F00C490968B1FBF0F56D
:10127000284601F0DFF808B1012070BD102C07D21C
:1012800000222146501E00F01EF80548046001E0CF
:101290000120F2E70020F0E74C0000242C0000249D
:1012A00048000024704701460846002809DB00F08A
:1012B0001F0301229A4043099B0003F1E023C3F876
:1012C000002100BF70472DE9F05F80460D461646AD
:1012D00002F0A8FD074639462A46334601F00700CA
:1012E000C0F1070ABAF1040F02D94FF0040A01E075
:1012F000C0F1070AD14600F1040ABAF1070F02D281
:101300004FF0000A01E0A0F1030AD4464FF0010AB1
:101310000AFA09FAAAF1010A0AEA020A0AFA0CFA16
:101320004FF0010B0BFA0CFBABF1010B0BEA030BBB
:101330004AEA0B042146404602F07CFDBDE8F09FDE
:1013400000BF00F00702064B19684FF6FF03194073
:10135000044B0B4343EA0221014B196000BF704765
:101360000CED00E00000FA0510B500F0CBFB0949D8
:10137000096801F470614FF4807292FAA2F2B2FA35
:1013800082F2D140044A515CC840044908600846D2
:10139000006810BD18440258126A00082C0000248E
:1013A00010B500F067FB0749096801F070011022D1
:1013B00092FAA2F2B2FA82F2D140034A515CC840DA
:1013C00010BD000020440258126A000870B50146A2
:1013D00000220120002300249FED811AB0EE410A73
:1013E0009FED7F1AF0EE410A7E4D2D6805F0030255
:1013F0007C4D2D68C5F305307A4D2D1D2D6805F007
:101400001003784D14352D68C5F3CC0515FB03F595
:1014100001EE105AB8EE411AB0EE410A22B1012A8B
:101420004DD0022A7DD169E06E4D283D2D68C5F36F
:1014300040152DB36B4D283D2D68C5F3C1066A4D8F
:1014400025FA06F4B4FBF0F501EE105AF8EE411A55
:101450009FED661A80EE012A624D10352D68C5F3A6
:10146000080501EE105AB8EE411A32EE011AB7EE35
:10147000002A31EE021A21EE811AF0EE410A1DE037
:10148000594DB5FBF0F501EE105AF8EE411A9FEDFB
:10149000571A80EE012A534D10352D68C5F3080503
:1014A00001EE105AB8EE411A32EE011AB7EE002AD8
:1014B00031EE021A21EE811AF0EE410A5EE04C4D47
:1014C000B5FBF0F501EE105AB8EE412A9FED471A30
:1014D000C0EE011A434D10352D68C5F3080501EE25
:1014E000105AB8EE411A31EE811AF7EE001A31EEB9
:1014F000211A22EE011AF0EE410A3FE03D4DB5FB04
:10150000F0F501EE105AF8EE411A9FED381A80EE10
:10151000012A344D10352D68C5F3080501EE105A27
:1015200000E00CE0B8EE411A32EE011AB7EE002AE4
:1015300031EE021A21EE811AF0EE410A1EE02C4D26
:10154000B5FBF0F501EE105AB8EE412A9FED271ACF
:10155000C0EE011A234D10352D68C5F3080501EEC4
:10156000105AB8EE411A31EE811AF7EE001A31EE38
:10157000211A22EE011AF0EE410A00BF00BF194DF8
:1015800010352D68C5F346256D1C01EE105AB8EED6
:10159000411AC0EE811ABCEEE11A81ED001A114D1C
:1015A00010352D68C5F306456D1C01EE105AB8EED6
:1015B000411AC0EE811ABCEEE11A81ED011A094D03
:1015C00010352D68C5F306656D1C01EE105AB8EE96
:1015D000411AC0EE811ABCEEE11A81ED021A70BD0B
:1015E00000000000284402580090D003000000468C
:1015F00000093D0000127A0070B50146002201206A
:10160000002300249FED811AB0EE410A9FED7F1A5E
:10161000F0EE410A7E4D2D6805F003027C4D2D68E9
:10162000C5F305507A4D2D1D2D6805F48073784D56
:101630001C352D68C5F3CC0515FB03F501EE105ADA
:10164000B8EE411AB0EE410A22B1012A4DD0022A69
:101650007DD169E06E4D283D2D68C5F340152DB351
:101660006B4D283D2D68C5F3C1066A4D25FA06F479
:10167000B4FBF0F501EE105AF8EE411A9FED661A30
:1016800080EE012A624D18352D68C5F3080501EE7C
:10169000105AB8EE411A32EE011AB7EE002A31EEB6
:1016A000021A21EE811AF0EE410A1DE0594DB5FBF8
:1016B000F0F501EE105AF8EE411A9FED571A80EE40
:1016C000012A534D18352D68C5F3080501EE105A4F
:1016D000B8EE411A32EE011AB7EE002A31EE021AC4
:1016E00021EE811AF0EE410A5EE04C4DB5FBF0F5BB
:1016F00001EE105AB8EE412A9FED471AC0EE011ACA
:10170000434D18352D68C5F3080501EE105AB8EEA3
:10171000411A31EE811AF7EE001A31EE211A22EE4B
:10172000011AF0EE410A3FE03D4DB5FBF0F501EE48
:10173000105AF8EE411A9FED381A80EE012A344D06
:1017400018352D68C5F3080501EE105A00E00CE0CD
:10175000B8EE411A32EE011AB7EE002A31EE021A43
:1017600021EE811AF0EE410A1EE02C4DB5FBF0F59A
:1017700001EE105AB8EE412A9FED271AC0EE011A69
:10178000234D18352D68C5F3080501EE105AB8EE43
:10179000411A31EE811AF7EE001A31EE211A22EECB
:1017A000011AF0EE410A00BF00BF194D18352D682F
:1017B000C5F346256D1C01EE105AB8EE411AC0EE75
:1017C000811ABCEEE11A81ED001A114D18352D6811
:1017D000C5F306456D1C01EE105AB8EE411AC0EE75
:1017E000811ABCEEE11A81ED011A094D18352D68F8
:1017F000C5F306656D1C01EE105AB8EE411AC0EE35
:10180000811ABCEEE11A81ED021A70BD00000000E1
:10181000284402580090D0030000004600093D0013
:1018200000127A0070B504460D4600268D48006807
:1018300000F00700A8420ED28A48006820F0070096
:101840002843884908600846006800F00700A8425D
:1018500001D0012070BD207800F00200022807D1DD
:101860008148006820F00F00E16808437E49086065
:10187000207800F00100002851D07B48006820F457
:101880007060A1680843784908606068022807D141
:10189000754818380068C0F34040F8B90120D9E70E
:1018A0006068032807D1704818380068C0F34060AA
:1018B000A0B90120CEE76068012807D16A4818382E
:1018C0000068C0F3002048B90120C3E76648183813
:1018D0000068C0F3800008B90120BBE762480838FF
:1018E000006820F00700616808435F490839086014
:1018F000FFF742FA06466068022811D108E0FFF7B8
:101900003BFA801B41F28831884201D90320A1E7CC
:1019100055480838006800F038001028EFD13AE048
:101920006068032811D108E0FFF726FA801B41F216
:101930008831884201D903208CE74B480838006879
:1019400000F038001828EFD125E06068012811D197
:1019500008E0FFF711FA801B41F28831884201D973
:10196000032077E740480838006800F0380008286E
:10197000EFD110E008E0FFF7FFF9801B41F288315A
:10198000884201D9032065E737480838006800F02D
:1019900038000028EFD13348006800F00700A84263
:1019A0000ED93048006820F0070028432D49086010
:1019B0000846006800F00700A84201D0012049E76E
:1019C000207800F00400042807D12748006820F0A0
:1019D00070002169084324490860207800F008005D
:1019E000082809D12048001D006820F070006169B6
:1019F00008431D49091D0860207800F010001028D8
:101A000009D11948001D006820F4E060A16908436D
:101A10001549091D0860207800F02000202809D110
:101A200011480830006820F07000E16908430E4951
:101A30000831086000F066F80B49096801F470612C
:101A40004FF4807292FAA2F2B2FA82F2D140074ABF
:101A5000515CC840064908600F20FFF7FDFB0020DD
:101A6000F8E600000020005218440258126A0008EC
:101A70002C00002410B5FFF777FC0949096801F034
:101A80000F01012292FAA2F2B2FA82F2D140054A83
:101A9000515CC840044908600846006810BD000059
:101AA00018440258126A00083000002410B5FFF7ED
:101AB000E1FF0749096801F07001102292FAA2F2D1
:101AC000B2FA82F2D140034A515CC84010BD000016
:101AD0001C440258126A000810B5FFF7CBFF0749F3
:101AE000096801F4E0614FF4807292FAA2F2B2FA4E
:101AF00082F2D140024A515CC84010BD1C440258D9
:101B0000126A000870B5012500EE905A00220121EA
:101B100000230024DFED861AB0EE610ADFED841A9F
:101B2000B0EE611A0020834D2D6805F0380535B1FF
:101B3000082D15D0102D15D0182D7CD114E07D4D19
:101B4000103D2D68C5F3401545B17A4D103D2D6807
:101B5000C5F3C106784D25FA06F000E07648E5E0C9
:101B60007648E3E07648E1E0724D18352D6805F0DF
:101B70000302704D18352D68C5F305116D4D1C35E8
:101B80002D6805F001036B4D24352D68C5F3CC0598
:101B900015FB03F501EE905AF8EE611AB0EE610AFA
:101BA00022B1012A4FD0022A7DD16BE0614D103D58
:101BB0002D68C5F340152DB35E4D103D2D68C5F35E
:101BC000C1065D4D25FA06F4B4FBF1F501EE905A1D
:101BD000B8EE612ADFED5B1AC0EE212A554D2035A3
:101BE0002D68C5F3080501EE905AF8EE611A72EE01
:101BF000A11AF7EE002A71EEA21A62EE211AB0EED7
:101C0000611A1FE04C4DB5FBF1F501EE905AB8EEAC
:101C1000612ADFED4C1AC0EE212A464D20352D6891
:101C2000C5F3080501EE905AF8EE611A72EEA11A9A
:101C3000F7EE002A00E077E071EEA21A62EE211AB8
:101C4000B0EE611A5EE03D4DB5FBF1F501EE905A44
:101C5000B8EE612ADFED3B1AC0EE212A354D203562
:101C60002D68C5F3080501EE905AF8EE611A72EE80
:101C7000A11AF7EE002A71EEA21A62EE211AB0EE56
:101C8000611A3FE02E4DB5FBF1F501EE905AB8EE2A
:101C9000612ADFED2C1AC0EE212A264D20352D6851
:101CA000C5F3080500E00EE001EE905AF8EE611A67
:101CB00072EEA11AF7EE002A71EEA21A62EE211A54
:101CC000B0EE611A1EE01D4DB5FBF1F501EE905A24
:101CD000F8EE612ADFED1B1A80EE212A154D203522
:101CE0002D68C5F3080501EE905AF8EE611A72EE00
:101CF000211AB7EE002A71EE821A62EEA11AB0EE36
:101D0000611A00BF00BF0B4D20352D68C5F3462575
:101D10006D1C00EE905AF8EE601A81EE212AFCEE5E
:101D2000C21A11EE900A01E0044800BF00BF70BD66
:101D300000000000104402580090D00300093D004C
:101D400000127A000000004670B504460025207895
:101D500000F00100002872D0F948006800F0380057
:101D600010280CD0F648006800F03800182812D16E
:101D7000F3481830006800F0030002280BD1F04847
:101D800010380068C0F3404000286DD0606800281B
:101D90006AD1012070BD00BF6068B0F5803F08D1F6
:101DA000E7481038006840F48030E5491039086091
:101DB0002EE0606868B9E2481038006820F480308E
:101DC000DF49103908600846006820F48020086068
:101DD0001EE06068B0F5A02F0DD1D948103800681A
:101DE00040F48020D649103908600846006840F465
:101DF000803008600CE0D2481038006820F4803051
:101E0000CF49103908600846006820F48020086037
:101E100000BF6068A0B1FEF7AFFF054608E0FEF71F
:101E2000ABFF401B41F28831884201D90320B1E762
:101E3000C34810380068C0F340400028EFD013E0DA
:101E4000FEF79AFF054608E0FEF796FF401B41F2B9
:101E50008831884201D903209CE7B94810380068CE
:101E6000C0F340400028EFD1207800F002000228A3
:101E700047D1B348006800F0380058B1B048006856
:101E800000F0380018283ED1AD481830006800F046
:101E90000300B8BBAA4810380068C0F3800018B12E
:101EA000E06808B9012075E7A5481038006820F0FF
:101EB0001900E1680843A24910390860FEF75CFF89
:101EC000054606E0FEF758FF401B022801D9032013
:101ED00060E79B4810380068C0F380000028F1D00C
:101EE00097480C38006820F47C304FF47C3292FA2A
:101EF000A2F2B2FA82F221699140084390490C396A
:101F000008604AE0FFE7E06868B38D481038006871
:101F100020F01900E1680843894910390860FEF78C
:101F20002BFF054606E0FEF727FF401B022801D9DC
:101F300003202FE7824810380068C0F38000002893
:101F4000F1D07F480C38006820F47C304FF47C32AC
:101F500092FAA2F2B2FA82F22169914008437849DA
:101F60000C39086019E076481038006820F001004C
:101F7000734910390860FEF7FFFE054606E0FEF7DC
:101F8000FBFE401B022801D9032003E76C481038F0
:101F90000068C0F380000028F1D1207800F0100024
:101FA000102877D16648006800F0380008280CD067
:101FB0006348006800F03800182823D160481830C2
:101FC000006800F0030001281CD15D48103800684B
:101FD000C0F3002020B1E069802801D00120D9E6BB
:101FE00057480C38006820F0F8404FF0F84292FA59
:101FF000A2F2B2FA82F2216A9140084350490C39A8
:10200000086047E0E06958B34D481038006840F078
:1020100080004B4910390860FEF7AEFE054606E029
:10202000FEF7AAFE401B022801D90320B2E644486D
:1020300010380068C0F300200028F1D040480C3868
:10204000006820F0F8404FF0F84292FAA2F2B2FA9B
:1020500082F2216A9140084339490C39086019E03D
:1020600037481038006820F0800035491039086082
:10207000FEF782FE054606E0FEF77EFE401B0228C4
:1020800001D9032086E62E4810380068C0F30020EE
:102090000028F1D1207800F00800082836D16069C6
:1020A000D0B127486430006840F001002449643111
:1020B0000860FEF761FE054606E0FEF75DFE401B88
:1020C000022801D9032065E61D4864300068C0F38A
:1020D00040000028F1D019E019486430006820F071
:1020E0000100174964310860FEF746FE054606E028
:1020F000FEF742FE401B022801D903204AE61048A1
:1021000064300068C0F340000028F1D1207800F06E
:102110002000202834D1A069D8B1094810380068BF
:1021200040F48050064910390860FEF725FE054648
:1021300008E0FEF721FE401B022803D9032029E610
:1021400010440258AF480068C0F340300028F0D077
:1021500016E0AC48006820F48050AA490860FEF7F9
:102160000BFE054606E0FEF707FE401B022801D9DC
:1021700003200FE6A3480068C0F340300028F2D1E6
:10218000207800F0040004287DD19F48006840F4C6
:1021900080709D490860FEF7EFFD054606E0FEF7FA
:1021A000EBFD401B642801D90320F3E59648006845
:1021B00000F480700028F2D000BFA068012808D188
:1021C00090487030006840F001008E49703108601E
:1021D0002DE0A06868B98B487030006820F00100DD
:1021E0008849703108600846006820F004000860E3
:1021F0001DE0A06805280DD182487030006840F0CD
:1022000004008049703108600846006840F0010011
:1022100008600CE07B487030006820F001007949CC
:10222000703108600846006820F00400086000BFB4
:10223000A068A0B1FEF7A0FD054608E0FEF79CFDF2
:10224000401B41F28831884201D90320A2E56D4844
:1022500070300068C0F340000028EFD013E0FEF7B4
:102260008BFD054608E0FEF787FD401B41F28831F3
:10227000884201D903208DE5624870300068C0F3C0
:1022800040000028EFD1606A00287CD05D48103003
:10229000006800F03800182876D0606A022874D1EF
:1022A0005848006820F0807056490860FEF764FDC9
:1022B000054606E0FEF760FD401B022801D9032019
:1022C00068E550480068C0F340600028F2D100BFC4
:1022D000D4E90A1041EA00104A492831096840F25D
:1022E000F33291430843474928310860208E401E4D
:1022F000C0F30800616B491E4FF47E4202EA41219F
:102300000843218F491ED20102EA014108433C21C2
:10231000095D491E120202EA016108433949303160
:10232000086000BF081D00684FF6F87188434FF63B
:10233000F87292FAA2F2B2FA82F2A16C91400843CA
:102340003049343108602F482C30006820F00C00F0
:10235000216C08432B492C3108600846006820F0A6
:102360000200616C084327492C3108600846006868
:1023700040F4803008600846006840F4003008608F
:102380000846006802E03BE038E01FE040F48020AF
:1023900008600846006840F00100086019480068BD
:1023A00040F0807017490860FEF7E6FC054606E03D
:1023B000FEF7E2FC401B022801D90320EAE41148A1
:1023C0000068C0F340600028F2D019E00D480068B2
:1023D00020F080700B490860FEF7CEFC054606E051
:1023E000FEF7CAFC401B022801D90320D2E40548AD
:1023F0000068C0F340600028F2D101E00120C9E488
:102400000020C7E40044025800480258042808D1BC
:102410004FF0E021096941F004014FF0E022116121
:1024200007E04FF0E021096921F004014FF0E022BC
:102430001161704770B504462546681EB0F1807F73
:1024400001D301200FE0681E4FF0E02148610F2109
:102450004FF0FF3001F0EEFC00204FF0E0218861EA
:1024600007200861002070BD7047704701460022B8
:10247000002391F8792091F87A3042EA03007047FE
:102480002DE9F04104462068C56920680768206886
:10249000866805F00F08B8F1000F0DD105F0200097
:1024A00050B107F0200010B906F0805020B120464E
:1024B00000F0FFFEBDE8F081B8F1000F72D05D487A
:1024C000304018B907F4907000287AD005F0010068
:1024D00048B107F4807030B1012021680862E06FD4
:1024E00040F00100E06705F0020048B106F001008D
:1024F00030B1022021680862E06F40F00400E0671C
:1025000005F0040048B106F0010030B10420216854
:102510000862E06F40F00200E06705F0080078B163
:1025200007F0200028B906F0805010B906F001002D
:1025300030B1082021680862E06F40F00800E067D1
:10254000E06F70B305F0200040B107F0200010B933
:1025500006F0805010B1204600F0ABFEE06F00F0B6
:10256000080020B92068806800F0400018B32046B9
:1025700000F07FFE2068806800F04000B8B120685D
:10258000806820F0400021688860606F58B12A4858
:10259000616F0865606FFEF73DFA10B1606F016D05
:1025A00088470DE00DE02046FFF75FFF08E020467A
:1025B000FFF75BFF04E02046FFF757FF0020E067CE
:1025C00078E705F4801078B106F4800060B14FF42C
:1025D000801021680862202084F8790084F87A004D
:1025E0002046FFF741FF65E705F0800048B107F09E
:1025F000800010B906F4000018B1204601F070FB0D
:1026000058E705F0400030B107F0400018B120460F
:1026100000F03FFE4EE705F4000040B107F08040B7
:1026200028B12068006820F080402168086000BF61
:1026300040E70000010000105B32000810B50446BE
:102640000CB9012010BDA06900B100E000BF94F8F2
:10265000790028B9002084F87800204600F02AF894
:10266000242084F879002068006820F001002168A7
:102670000860204600F062FE012800D1E2E7606BAE
:1026800010B1204600F03AFD2068406820F49040E8
:10269000216848602068806820F02A0021688860EE
:1026A0002068006840F0010021680860204600F0C2
:1026B0009AFDC7E710B586B00446214920688842D4
:1026C0003BD100BF1F48006840F001001D49086071
:1026D0000846006800F00100009000BF00BF00BF86
:1026E00018481030006840F010001649103108609A
:1026F0000846006800F01000009000BF00BF4FF4D3
:1027000000700190022002900120039002200490AA
:102710000720059001A90C48FEF702FA4FF48060EB
:10272000019001A90848FEF7FBF92520FEF7BBFD43
:10273000032211462520FEF7C6FD06B010BD00009D
:1027400000100140E04402580000025810B5034652
:1027500093F87A00202867D101B10AB9012010BD91
:1027600000BF93F87800012801D10220F7E701208B
:1027700083F8780000BF5966A3F86820A3F86A20A0
:1027800000BF9868B0F5805F0AD1186920B940F29F
:10279000FF10A3F86C001CE0FF20A3F86C0018E009
:1027A000986848B9186918B9FF20A3F86C0010E0C0
:1027B0007F20A3F86C000CE09868B0F1805F08D12E
:1027C000186918B97F20A3F86C0002E03F20A3F835
:1027D0006C0000BF0020D867222083F87A0000BF79
:1027E000002083F8780000BF1868806840F001007E
:1027F0001C68A0601868006800F0005060B118689C
:10280000006840F480701C6820601868806840F0A0
:1028100080501C68A06005E01868006840F4907063
:102820001C68206000209AE7022098E71D4A016892
:10283000914236D11C49098801F4004189BB1A49EB
:10284000098801F4804171B1184909780A2903D037
:102850000021154A118024E01349098841F4004100
:10286000114A11801DE0114909780D2906D10E4940
:10287000098841F480410C4A118012E00B49097823
:10288000094A1288C2F30D02094B99540649098876
:10289000491C054A118011460988C72901DD00211C
:1028A00011807047001001404000002442000024C5
:1028B00010050024704700BFFEE701688969C1F375
:1028C000400111B10021026891620168896901F03B
:1028D000010129B90168896941F00101026891612A
:1028E0007047000070B504460D46164620688069A2
:1028F000C0F30010002837D013E0681C88B125B160
:10290000FEF73AFA801BA8420BD9202084F8410038
:10291000002084F8420000BF84F8400000BF03207C
:1029200070BD20688069C0F340100028E5D01020F9
:102930002168C86120202168C8612046FFF7BDFFDB
:1029400020684068094908402168486004206064A4
:10295000202084F84100002084F8420000BF84F861
:10296000400000BF0120DBE70020D9E700E800FEBF
:102970002DE9F8430446894615461E46DDE90878E8
:102980001E48F2B2002349460090204600F080F82D
:1029900042463946204600F0EBF838B1606C042816
:1029A00002D10120BDE8F8830320FBE7012E03D10B
:1029B000E8B22168886213E0C5F3072021688862C5
:1029C00042463946204600F0D3F830B1606C042806
:1029D00001D10120E6E70320E4E7E8B2216888623C
:1029E0003B46002240212046CDF8008000F06AF8E6
:1029F00008B10320D6E70020D4E7000000200080C3
:102A00002DE9F8430446894615461E46DDE9087857
:102A10001E48F2B2C30249460090204600F038F842
:102A200042463946204600F0A3F838B1606C0428CD
:102A300002D10120BDE8F8830320FBE7012E03D17A
:102A4000E8B22168886213E0C5F307202168886234
:102A500042463946204600F08BF830B1606C0428BD
:102A600001D10120E6E70320E4E7E8B221688862AB
:102A70003B46002280212046CDF8008000F022F85D
:102A800008B10320D6E70020D4E700000020008032
:102A9000F0B5059C05686D684FF4806606EA5456EB
:102AA00066F0FC2646F4C046B543C1F309064FF470
:102AB0007F0707EA02473E431E4326433543066825
:102AC0007560F0BD2DE9F04104460E4617461D46DF
:102AD000DDF8188015E0681C98B12DB1FEF74CF9AF
:102AE000A0EB0800A8420CD9202084F84100002067
:102AF00084F8420000BF84F8400000BF0320BDE816
:102B0000F081206880693040B04201D1012000E0AE
:102B10000020B842DFD00020F1E770B504460D4632
:102B200016461DE0324629462046FFF7DBFE08B177
:102B3000012070BD25B1FEF71FF9801BA8420FD9F7
:102B4000606C40F020006064202084F84100002088
:102B500084F8420000BF84F8400000BF0320E8E78B
:102B600020688069C0F340100028DBD00020E0E737
:102B700070B504460D4616461FE0324629462046EB
:102B8000FFF7B0FE08B1012070BD681CA8B125B1E7
:102B9000FEF7F2F8801BA8420FD9606C40F02000CD
:102BA0006064202084F84100002084F8420000BFC7
:102BB00084F8400000BF0320E6E720688069C0F386
:102BC00040000028D9D00020DEE7000011E00022FC
:102BD0004FF480610748FEF7C9F8C82002F0FAFDFB
:102BE000012291020348FEF7C1F84FF4487002F049
:102BF000F1FDECE70004025800B587B000BF1248B1
:102C0000006840F00200104908600846006800F0C3
:102C10000200019000BF00BF4FF44060029001200D
:102C2000039004900320059002A90848FDF778FF5F
:102C3000012291020548FEF799F80122D1020348CA
:102C4000FEF794F807B000BDE044025800040258B3
:102C500010B50A480A49086000210948816001212D
:102C6000C160002101614161C1610162FEF78AF822
:102C700010B104A0FDF75EFC10BD00000054004040
:102C8000A459002469696320696E697420657272B1
:102C90006F720D0A0000000000BFFEE770470000E1
:102CA00010B50023234C236000BF00BF00BFBFF35B
:102CB0004F8F00BF00BF00BF231F1868C0F34E3105
:102CC00000BFC0F3C90200BF43F6E07303EA41133B
:102CD0004FF0404404EA82742343174C236000BF42
:102CE00000BF131EA2F10102EED10B1EA1F10101E2
:102CF000E7D100BF00BF00BFBFF34F8F00BF00BFD1
:102D000000BF0C4B703B1B6843F48033094C703C94
:102D1000236000BF00BF00BFBFF34F8F00BF00BFE5
:102D200000BF00BF00BF00BFBFF36F8F00BF00BF79
:102D300000BF10BD84ED00E060EF00E000BF00BF09
:102D400000BFBFF34F8F00BF00BF00BF00BF00BF79
:102D500000BFBFF36F8F00BF00BF00BF002014494A
:102D6000086000BF00BF00BFBFF34F8F00BF00BFB0
:102D700000BF00BF00BF00BFBFF36F8F00BF00BF29
:102D800000BF0C48006840F400300A49086000BFEA
:102D900000BF00BFBFF34F8F00BF00BF00BF00BF29
:102DA00000BF00BFBFF36F8F00BF00BF00BF704701
:102DB00050EF00E014ED00E02DED028B85E0434A7A
:102DC0004349444801F08AF94048407800F0010046
:102DD000002852D03D484078C0F3400000284CD035
:102DE0003D480021016081800146394801F0CCF85E
:102DF0003949B1F9000001F095F9384880ED000A31
:102E00003549B1F9020001F08DF9344880ED010A2D
:102E10003149B1F9040001F085F9304880ED020A2A
:102E200090ED000A20EE000AD0ED010A90ED011AA3
:102E300000EE810AD0ED020A90ED021A00EE810A3E
:102E4000DFED270A30EE600AB0EE408A9FED250ADA
:102E5000C8EE000AB0EE608AB0EE480A01F022F82F
:102E6000F0EE408ADFED201A9FED1F1AF0EE680A9F
:102E7000B0EE480A02F066FA00BF14480078C0F3CA
:102E8000C000F8B119480021016081800146114855
:102E900001F083FA1549B1F9000001F037F914483F
:102EA00080ED000A1149B1F9020001F02FF9104834
:102EB00080ED010A0D49B1F9040001F027F90C4831
:102EC00080ED020A012002F085FC78E7140000245E
:102ED00004050024F804002400000024EC00002471
:102EE000408469490000C842000000000C00002432
:102EF000040100241CB5044602F0F0FA0D4802213A
:102F000000233222CDE900100BA10E4803F08CFA09
:102F10000D48032100233222CDE900100BA10E48F9
:102F200003F082FA0D48006802F08EFC02F01EFBEE
:102F30001CBD00001C0000244C4544305461736BE0
:102F400000000000B92D0008200000244C45443149
:102F50005461736B00000000CD2B000818000024A2
:102F60002DE9F0419CB080460C4615461E460027D0
:102F70003748006820F004003549086000BF002091
:102F8000009033480C30006840F4404030490C3128
:102F900008600846006800F44040009000BF00BF91
:102FA00000BF2B480C30006800F40050B0F5005F03
:102FB000F7D10120019000040290002004900890B5
:102FC00002200A9002210B91CDF834800C940E95CA
:102FD0000F96002112910821119101A8FEF7B4FE6D
:102FE00007460FB100BFFEE73F2014900320159065
:102FF00000201690082017904020199000011A9088
:103000004020189050201B90022114A8FEF70AFCC3
:1030100007460FB100BFFEE70E48006840F0800091
:103020000C49086000BF0B48F430006840F0020013
:103030000849F43108600846006800F0020000907A
:1030400000BF00BFFDF762FD1CB0BDE8F0810000CD
:103050000C4802580044025810B503F015FA012834
:1030600001D002F093FE10BD2048006840F47000CB
:103070001E4908601E48006840F001001C490860B5
:1030800000201B49103108601948006819490840A0
:10309000174908600020164918310860091D0860AA
:1030A000091D0860124928310860091D0860091DC2
:1030B0000860091D0860091D0860091D0860091DD8
:1030C0000860091D08600A48006820F4802008494B
:1030D0000860002006496031086001200649086048
:1030E000C0060249803908607047000088ED00E0A2
:1030F000004402587FEDF6EA0881005190F8341040
:1031000001F0010139B10168496821F40031826B95
:1031100011430268516090F8341001F0020139B196
:103120000168496821F48031C26B11430268516023
:1031300090F8341001F0040139B10168496821F4B4
:103140008021026C11430268516090F8341001F044
:10315000080139B10168496821F40041426C11430A
:103160000268516090F8341001F0100139B1016823
:10317000896821F48051826C11430268916090F853
:10318000341001F0200139B10168896821F400513F
:10319000C26C11430268916090F8341001F0400154
:1031A00099B10168496821F48011026D11430268E8
:1031B0005160016DB1F5801F07D10168496821F4A4
:1031C000C001426D11430268516090F8341001F063
:1031D000800139B10168496821F40021826D1143F1
:1031E00002685160704738B5044600250020E0674A
:1031F000FDF7C2FD05462068006800F008000828B9
:103200000CD16FF07E402B4600224FF4001100904D
:10321000204600F0A6FD08B1032038BD20680068F4
:1032200000F0040004280CD16FF07E402B460022F1
:103230004FF480010090204600F093FD08B1032078
:10324000EBE7202084F8790084F87A0000BF0020A2
:1032500084F8780000BF00BFDFE770B50546AC6BAF
:103260000020A4F86A00A4F862002046FFF7FDF8E9
:1032700070BD0168096821F49071026811600168ED
:10328000896821F0010102689160202180F87A109C
:10329000704710B504462068006820F0400021689F
:1032A0000860202084F879002046FFF703FB002007
:1032B00010BD2DE9F0410446B4F86C7094F87A0022
:1032C000222833D12068858CA068B0F5805F09D1B1
:1032D000206938B9666E05EA07003080606E801C90
:1032E000606605E0F8B22840626E511C616610709D
:1032F000B4F86A00401E80B2A4F86A00A0B9206841
:10330000006820F49070216808602068806820F0D0
:10331000010021688860202084F87A002046FFF7A9
:1033200085FA0020BDE8F0810020FBE72068008BD3
:1033300040F00800216808830220F3E72DE9F04FF0
:1033400089B0044600254FF08008A946AA4600200F
:103350000890FA492068884201D1012000E000204D
:1033600000B100E000BFA06AB0F1005F00D100BF73
:103370002169A068084361690843E16940EA0105E1
:10338000A06A054320680068ED4908402843216889
:1033900008602068406820F44050E16808432168D4
:1033A0004860A569E5492068884201D1012000E014
:1033B000002008B9206A0543A06AB0F1005F03D17C
:1033C000D4E90B010843054320688068DD490840C3
:1033D0002843216888602068C06A20F00F00616A75
:1033E00008432168C86200BFD7492068884224D1B9
:1033F000D648006800F03800182814D005DC48B121
:1034000008280AD0102817D10AE020280ED0282832
:1034100012D10EE04FF001080EE04FF004080BE06F
:103420004FF0400808E04FF0080805E04FF01008A2
:1034300002E04FF0200800BF17E1C549206888422C
:103440001DD1C248006800F00700062816D2DFE848
:1034500000F00306090C0F124FF000080EE04FF0C9
:1034600004080BE04FF0400808E04FF0080805E0C2
:103470004FF0100802E04FF0200800BFF5E0B5491A
:10348000206888421DD1B148006800F00700062876
:1034900016D2DFE800F00306090C0F124FF0000807
:1034A0000EE04FF004080BE04FF0400808E04FF04A
:1034B000080805E04FF0100802E04FF0200800BFB8
:1034C000D3E0A549206888421DD1A048006800F0DB
:1034D0000700062816D2DFE800F00306090C0F12D9
:1034E0004FF000080EE04FF004080BE04FF04008EA
:1034F00008E04FF0080805E04FF0100802E04FF038
:10350000200800BFB1E09549206888421DD18F484E
:10351000006800F00700062816D2DFE800F0030676
:10352000090C0F124FF000080EE04FF004080BE0FA
:103530004FF0400808E04FF0080805E04FF0100891
:1035400002E04FF0200800BF8FE0854920688842E4
:1035500024D17E48006800F03800182814D005DC1B
:1035600048B108280AD0102817D10AE020280ED028
:10357000282812D10EE04FF001080EE04FF00408A9
:103580000BE04FF0400808E04FF0080805E04FF06E
:10359000100802E04FF0200800BF66E07149206883
:1035A00088421DD16948006800F00700062816D23D
:1035B000DFE800F00306090C0F124FF000080EE0E0
:1035C0004FF004080BE04FF0400808E04FF0080807
:1035D00005E04FF0100802E04FF0200800BF44E083
:1035E0006149206888421DD15848006800F00700F2
:1035F000062816D2DFE800F00306090C0F124FF080
:1036000000080EE04FF004080BE04FF0400808E01F
:103610004FF0080805E04FF0100802E04FF02008D6
:1036200000BF22E04549206888421ED14748001D5E
:10363000006800F00700062816D2DFE800F0030655
:10364000090C0F124FF002080EE04FF004080BE0D7
:103650004FF0400808E04FF0080805E04FF0100870
:1036600002E04FF0200800BF00BF00BF33492068D0
:10367000884201D1012000E0002000285DD0002513
:10368000B8F1100F33D009DCB8F1020F10D0B8F147
:10369000040F11D0B8F1080F2ED117E0B8F1200FA8
:1036A00027D0B8F1400F0CD0B8F1800F24D124E01E
:1036B000FDF776FE054623E005A8FDF787FE069D8B
:1036C0001EE002A8FDF798FF039D19E01F4854383B
:1036D0000068C0F3401040B11C4854380068C0F383
:1036E000C101224820FA01F500E0204D08E0204DFC
:1036F00006E04FF4004503E000BF0120089000BF42
:1037000000BF002D0AD0606800EB4000A84203D83B
:1037100060680003A84202D201200890D4E2B8F108
:10372000100F7CD026DCB8F1020F2DD0B8F1040FB9
:1037300052D0B8F1080F73D19EE03FE1000C005861
:10374000F369FFCFFFF4FF11001001405444025809
:103750000044004000480040004C00400050004041
:103760000014014000780040007C00400090D0032D
:1037700000093D00B8F1200F7DD0B8F1400F54D0C2
:10378000B8F1800FD7D109E1FDF70AFE0027064600
:10379000FB49606A31F810C062463B463046394604
:1037A000FCF750FE4FF4807600220346A3FB060789
:1037B00001FB067103FB0213616849080646711894
:1037C0005A41CDE900126668324600230846019945
:1037D000FCF738FE0546E4E005A8FDF7F7FDDDF847
:1037E00018C0E749606A31F810B05A4600236046B5
:1037F0001946FCF727FE4FF4807C0022A0FB0C3B0F
:1038000001FB0CB100FB0210616849085E1840EB37
:103810000201D4F804C062460023304601E079E09A
:10382000BBE0FCF70FFE0546BBE002A8FDF7E4FE97
:10383000DDF80CC0D249606A31F810B05A46002356
:1038400060461946FCF7FEFD4FF4807C0022A0FB89
:103850000C3B01FB0CB100FB0210616849085E18CB
:1038600040EB0201D4F804C0624600233046FCF766
:10387000E9FD054695E06EE0C2480068C0F34010DF
:1038800038B3C0480068C0F3C101BF4820FA01FC4A
:10389000BB49606A31F810B05A46002360461946A9
:1038A000FCF7D0FD4FF4807C0022A0FB0C3B01FB19
:1038B0000CB100FB0210616849085E1840EB020180
:1038C000D4F804C0624600233046FCF7BBFD054631
:1038D0001FE0AB49606A31F810C062460023AA4875
:1038E0001946FCF7AFFD4FF4807C0022A0FB0C3B97
:1038F00001FB0CB100FB0210616849085E1840EB47
:103900000201D4F804C0624600233046FCF79AFD59
:10391000054646E09A49606A31F810C062460023C5
:103920009A481946FCF78EFD4FF4807C0022A0FBDC
:103930000C3B01FB0CB100FB0210616849085E18EA
:1039400040EB0201D4F804C0624600233046FCF785
:1039500079FD054625E08A49606A31F810C0624663
:1039600000234FF400401946FCF76CFD4FF4807CB7
:103970000022A0FB0C3B01FB0CB100FB02106168B4
:1039800049085E1840EB0201D4F804C062460023E7
:103990003046FCF757FD054603E000BF01200890C4
:1039A00000BF00BFB5F5407F05D3B5F5801F02D23B
:1039B0002068C56088E10120089085E1E069B0F5E4
:1039C000004F7CD1B8F1100F7AD00CDCB8F1000FA9
:1039D00013D0B8F1010F21D0B8F1040F2FD0B8F1F6
:1039E000080F6ED151E0B8F1200F6BD0B8F1400F45
:1039F00038D0B8F1800F64D197E0FEF757F8604AED
:103A0000616A32F81110B0FBF1F04000616800EB20
:103A10005100B0FBF1F01FFA80FA89E0FEF75CF884
:103A2000574A616A32F81110B0FBF1F0400061684A
:103A300000EB5100B0FBF1F01FFA80FA78E005A826
:103A4000FDF7C4FC06994E4A606A32F81000B1FBDB
:103A5000F0F04000616800EB5100B0FBF1F01FFA9C
:103A600080FA65E002A8FDF7C7FD0399444A606A41
:103A700032F81000B1FBF0F04000616800EB51003B
:103A8000B0FBF1F01FFA80FA52E03E480068C0F344
:103A90004010C0B13B480068C0F3C1013A48C8407B
:103AA000374A616A32F81110B0FBF1F040006168EA
:103AB00000EB5100B0FBF1F01FFA80FA12E044E095
:103AC00011E031E01FE02E49606A31F810002E4904
:103AD000B1FBF0F04000616800EB5100B0FBF1F089
:103AE0001FFA80FA24E02649606A31F8100027495D
:103AF000B1FBF0F04000616800EB5100B0FBF1F069
:103B00001FFA80FA14E01E49606A31F810004FF481
:103B10000041B1FBF0F04000616800EB5100B0FBE8
:103B2000F1F01FFA80FA03E000BF0120089000BF07
:103B300000BF4FF6F0700AEA0009CAF3420049EAF2
:103B400000092068C0F80C90BEE0B8F1100F7CD0DE
:103B50000CDCB8F1000F1BD0B8F1010F29D0B8F17F
:103B6000040F37D0B8F1080F70D159E0B8F1200F29
:103B70006DD0B8F1400F40D0B8F1800F66D19FE012
:103B8000226A0008004402580090D00300093D005A
:103B9000FDF78CFF4E4A616A32F81110B0FBF1F06C
:103BA000616800EB5100B0FBF1F080B22168C860A1
:103BB00089E0FDF791FF464A616A32F81110B0FBC7
:103BC000F1F0616800EB5100B0FBF1F080B22168C8
:103BD000C86078E005A8FDF7F9FB06993C4A606AE1
:103BE00032F81000B1FBF0F0616800EB5100B0FB5F
:103BF000F1F080B22168C86065E002A8FDF7FCFC26
:103C00000399334A606A32F81000B1FBF0F0616842
:103C100000EB5100B0FBF1F080B22168C86052E0C7
:103C20002C480068C0F34010C0B12A480068C0F3B7
:103C3000C1012948C840264A616A32F81110B0FB18
:103C4000F1F0616800EB510002E017E037E025E099
:103C5000B0FBF1F080B22168C8600EE01C49606AD8
:103C600031F810001C49B1FBF0F0616800EB510025
:103C7000B0FBF1F080B22168C86024E01449606AAA
:103C800031F810001549B1FBF0F0616800EB51000C
:103C9000B0FBF1F080B22168C86014E00C49606AA2
:103CA00031F810004FF40041B1FBF0F0616800EB17
:103CB0005100B0FBF1F080B22168C86003E000BFA2
:103CC0000120089000BF00BF089809B0BDE8F08F40
:103CD000226A0008004402580090D00300093D0009
:103CE000014691F87900212839D1B1F86200C8B9AC
:103CF0000868006800F0005030B10868806820F45F
:103D000000000B68986005E00868006820F08000FB
:103D10000B6818600868006840F040000B68186085
:103D2000002070478868B0F5805F0BD1086948B9FA
:103D3000CA6D1088C0F308000B681885C86D801C18
:103D4000C86505E0CB6D581CC86518780B681885E8
:103D5000B1F86200401EA1F862000020E1E70220F5
:103D6000DFE72DE9F04104460D4617469846069ECA
:103D700021E0701CF8B12EB1FCF7FEFFA0EB0800AB
:103D8000B04218D92068006820F4D070216808601B
:103D90002068806820F0010021688860202084F875
:103DA000790084F87A0000BF002084F8780000BF12
:103DB0000320BDE8F0812068C0692840A84201D1F5
:103DC000012000E00020B842D3D00020F1E700003D
:103DD00070B500240F4D1048FEF752FB00BF03E002
:103DE000641CAC4200D904E00B48FEF73FFB2028DE
:103DF000F6D100BF002403E0641CAC4200D906E009
:103E0000012206490448FEF7A1FC0028F4D100BFB6
:103E100070BD0000FFFF0100D8050024420000240F
:103E200000BFFEE702480068C0F3022070470000B0
:103E30000CED00E010B5002804DB0A07130E054A5C
:103E4000135406E00A07140E034A00F00F031B1F69
:103E5000D45410BD00E400E018ED00E000BF70474E
:103E600070B504460420FEF7D1FA0C4804602546DC
:103E70004FF4FA7045430020094908804FF0E020D4
:103E8000006940F002004FF0E021086108464561FA
:103E9000006940F00100086170BD0000340000249A
:103EA00038000024F0EE400A274890ED000A274829
:103EB00090ED001A20EE010A254880ED000A254801
:103EC00090ED000A244890ED001A30EE010A2348D4
:103ED00080ED000A90ED000A214890ED001A30EEC6
:103EE000010A1E4890ED001AC1EE001A1D48C0EDEF
:103EF000001A1D4890ED001A1548D0ED001AB0EEDA
:103F0000600A01EE610A90ED001A1648D0ED001A21
:103F100001EE801A0D4880ED001A124890ED001A4B
:103F20001148D0ED001AB7EE000A01EE610A0B4805
:103F300090ED001A20EE010A064880ED000A0348C1
:103F400090ED000A70470000D0000024E00000243B
:103F5000D8000024E4000024C4000024DC00002475
:103F6000C8000024E8000024D400002400BF054A53
:103F7000D26902F04002002AF9D0C2B2014B1A8580
:103F8000704700000010014070B505460C4606233E
:103F900022462821284600F00CFA0646304670BD1D
:103FA0002DE9FC4107460E461446012301AA2221B1
:103FB000304600F0FEF905465DB99DF8040064F353
:103FC00086100190012301AA2221304600F001FA57
:103FD000054635B901236A462421384600F0E9F93F
:103FE00005468DB9E0439DF8001060F3C7110091BC
:103FF0009DF8000064F38610009001236A46242196
:10400000384600F0E6F905462846BDE8FC812DE972
:10401000F04107460C46154601232A460F2120464B
:1040200000F0C7F9064636B901236A1C0F2138464D
:1040300000F0BFF906463046BDE8F0812DE9FC41AD
:1040400007460C46154601236A462221204600F009
:10405000B0F9064676B9012301AA2121384600F0BD
:10406000A8F906469DF80400C0F380009DF80010F2
:10407000084028703046BDE8FC812DE9FC41074628
:104080000E46154601236A462221304600F091F97A
:1040900004465CB99DF8000065F300000090012320
:1040A0006A462221304600F094F9044634B90123CF
:1040B00001AA2121384600F07CF904465CB99DF83C
:1040C000040065F382000190012301AA21213846F2
:1040D00000F07FF904462046BDE8FC812DE9F0415F
:1040E00007460C46154601236A1C1721204600F09E
:1040F00060F9064636B901232A462721384600F0E2
:1041000058F906463046BDE8F081000000EE100A7E
:10411000B8EEC00ADFED020A20EE200A7047000068
:10412000E17A143F00EE100AB8EEC00ADFED020A91
:1041300020EE200A7047000023DBF93DF8B5064663
:104140000C4601236A461221304600F032F905463A
:104150005DB99DF8000064F30300009001236A46F6
:104160001221304600F035F905462846F8BDF8B56D
:1041700006460C4601236A461021304600F019F924
:1041800005465DB99DF8000064F30100009001232D
:104190006A461021304600F01CF905462846F8BD55
:1041A0007CB506460C46012301AA1121304600F0D9
:1041B00000F905465DB99DF8040064F30100019023
:1041C000012301AA1121304600F003F9054635B953
:1041D00001236A461221304600F0EBF8054665B926
:1041E00020099DF8001060F38611009101236A46B2
:1041F0001221304600F0EDF8054628467CBDF8B5A2
:1042000006460C4601236A461021304600F0D1F8DC
:1042100005465DB99DF8000064F3C40000900123D9
:104220006A461021304600F0D4F805462846F8BD0D
:10423000FEB506460C46012302AA1021304600F0C6
:10424000B8F805465DB99DF8080064F34710029080
:10425000012302AA1021304600F0BBF8054635B90B
:10426000012301AA2021304600F0A3F8054665B9D4
:1042700020099DF8041060F347110191012301AA60
:104280002021304600F0A5F8054635B901236A46DD
:104290001221304600F08DF8054665B9E1099DF818
:1042A000000061F3C710009001236A4612213046D6
:1042B00000F08FF805462846FEBDFEB506460C46C2
:1042C000012302AA2021304600F073F80546EDB91B
:1042D000E0089DF8081060F3410102919DF8080084
:1042E00064F38400029020099DF8081060F34611E1
:1042F00002919DF8080020F0800080300290012398
:1043000002AA2021304600F064F8054635B90123A1
:1043100001AA2221304600F04CF8054665B9A109F2
:104320009DF8040061F301000190012301AA2221FC
:10433000304600F04EF8054635B901236A46232180
:10434000304600F036F8054665B920099DF80010A2
:1043500060F38301009101236A462321304600F077
:1043600038F805462846FEBDF8B506460C4601233A
:104370006A462121304600F01CF805465DB99DF8DB
:10438000000064F34610009001236A462121304664
:1043900000F01FF805462846F8BD70B505460C46E6
:1043A000062322462821284600F003F80646304618
:1043B00070BD2DE9F04104460D4616461F463B46AA
:1043C00032462946D4E901C0E04780464046BDE870
:1043D000F0812DE9F04104460D4616461F463B4646
:1043E00032462946D4F800C0A068E04780464046DF
:1043F000BDE8F081F8B506460C4601236A46202147
:104400003046FFF7D6FF05468DB99DF8000064F3EE
:104410000100009020099DF8001060F382010091D6
:1044200001236A4620213046FFF7D3FF0546284680
:10443000F8BDF8B506460C4601236A4621213046F0
:10444000FFF7B7FF054695B9C4F300109DF80010BB
:1044500060F3461100919DF8000064F3C7100090CE
:1044600001236A4621213046FFF7B3FF054628465F
:10447000F8BDF8B506460C4601236A4621213046B0
:10448000FFF797FF05465DB99DF8000064F38200D1
:10449000009001236A4621213046FFF79AFF054626
:1044A0002846F8BDF8B506460C4601236A46202189
:1044B0003046FFF77EFF05465DB99DF8000064F3C6
:1044C000C400009001236A4620213046FFF781FF97
:1044D00005462846F8BD00001CB50024FCF78AFA02
:1044E000FCF7ACFE042302220521A020FEF738FDD4
:1044F0004FF4C870FFF7B4FC4FF4165000F088FF7B
:10450000FEF77AFB38A0FCF715F800F097F83A4868
:104510003A4908603A4848603A48886036483A491B
:1045200008603748486039488860394A3348FFF79F
:104530006EFD37480078682803D1354840783D281B
:1045400001D000BFFEE733A0FBF7F4FF01222E49A4
:104550002A48FFF792FD00BF324A2B492748FFF750
:104560006DFD304800780028F6D101222649234805
:10457000FFF716FD02212448FFF794FF032122488C
:10458000FFF73DFE03211D48FFF7EEFE00211E4808
:10459000FFF730FF10211C48FFF74BFF00211A489E
:1045A000FFF767FF03211848FFF7E1FD05211648D3
:1045B000FFF7C4FD12211448FFF7F2FD66211248EF
:1045C000FFF736FE37210D48FFF777FE1648012129
:1045D00000238022CDE9001014A1174801F024FF28
:1045E00001F094FA00201CBD53797374656D20733B
:1045F000746172740D0A000075460008F804002406
:104600004546000824000024040500242500002459
:104610001200002453797374656D20737461727491
:10462000310D0A0016000024180000245374617232
:10463000745461736B000000F52E000810B5FEF78E
:1046400007FB10BD2DE9FE4304460D4616461F46E6
:10465000A0464FF47A70CDE90067029098F80010F8
:1046600001232A460248FCF7EFFB0020BDE8FE8349
:10467000A45900242DE9FE4304460D4616461F4664
:10468000A0464FF47A70CDE90067029098F80010C8
:1046900001232A460248FCF7B5FC0020BDE8FE8352
:1046A000A45900242DE9F04105460E461C48076830
:1046B0001C480068001D00F0C7FE50B9194800688A
:1046C00090F82C100120884017490968814316484A
:1046D0000160681C38B936B112480168091D1348D9
:1046E00000F0F0FE1AE07C190E4800684460BC42FD
:1046F00007D20C480168091D0D48006800F0C8FE8B
:104700000CE008480168091D0A48006800F0C0FE76
:1047100009480068844201D207480460BDE8F0817E
:10472000640000245000002468000024680900246C
:1047300058000024540000248000002410B50446D2
:1047400000F0CCFE24480068401C23490860234840
:10475000006840B9214804600846006801280DD16E
:1047600000F0EEF90AE01E48006838B91B480068FE
:10477000C06AE16A884201D8184804601948006894
:10478000401C1849086008460068606494F82C10C2
:104790000120884014490968084313490860E16A08
:1047A00001EB8101114A02EB8100211D00F08AFE1C
:1047B00000F0DCFE0A48006868B108480068C06A7A
:1047C000E16A884207D24FF0805009490860BFF380
:1047D0004F8FBFF36F8F10BD600000245000002486
:1047E0006C0000247C00002468000024980600244B
:1047F00004ED00E010B500F071FE10480068D0B97B
:104800000F4800F035FE0F4800F032FE0C480E490C
:1048100008600C480D49086000221021052001F0B5
:10482000D1FA064908600846006820B108A103488B
:10483000006800F093FF00F099FE10BD9400002482
:104840007C090024900900248C000024900000249E
:10485000546D72510000000070B523E001F0AEF914
:104860001348006808B9012000E00020054601F067
:1048700097FFBDB900F032FE0D48C068C468201D26
:1048800000F0E2FD0B480068401E0A4908600A4833
:104890000068401E0849086000F068FE204600F0ED
:1048A00060F800BF044800680028D7D170BD000040
:1048B00054090024600000245C00002470B5044604
:1048C0000D46206C70B1216CE0680844E0606168BE
:1048D000E068884201D32068E0602846226CE168E5
:1048E000FBF7CEFE70BD2DE9F04104460F4615469C
:1048F0004FF00008A66B206C40B9206860BB606870
:1049000001F088FE80460020606025E07DB93946D0
:10491000226CA068FBF7B4FE216CA0680844A0607C
:10492000D4E90110884217D32068A06014E039460A
:10493000226CE068FBF7A4FE216CE068401AE0609E
:104940002168E068884203D2216C6068401AE06008
:10495000022D01D106B1761E701CA0634046BDE851
:10496000F08110B50446206B00F03AFE204600F0BE
:1049700037FE10BD0146084A126812680AB90122C2
:1049800000E000220A600A6822B9034A1268D2686D
:10499000106800E0002070478C00002430B54FF410
:1049A000A043174800F007042CB1C01D20F00700F9
:1049B000134C041B1B1B0246124C22600024114D99
:1049C0006C60D018083820F007000F4C20600024DD
:1049D0000D4D2D686C600C4D2D682C601146441AED
:1049E0004C60094C24680C60084D4C682C60084DE4
:1049F0004C682C604FF00044064D2C6030BD000028
:104A0000A4090024AC000024B4000024BC0000244D
:104A1000B8000024C000002400BFFFF71DFF0648B7
:104A200000680128F9D94FF0805004490860BFF3AD
:104A30004F8FBFF36F8FF0E79806002404ED00E07E
:104A40002DE9F04106460D4617469846069C0DB9DD
:104A5000246000E02760E66325640121204601F020
:104A6000CFFA84F850800020A064BDE8F0810000F7
:104A70002DE9F05F82460F4690469B460A9E0C9CAD
:104A80004FEA8801A522206BFBF73FFEA8F1010049
:104A9000216B01EB800929F0070909F0070008B92B
:104AA000012000E0002028B940F22B321BA120A0F9
:104AB000FBF740FD002507E0795D04F13400415526
:104AC000785D00B902E06D1C102DF5D300BF002108
:104AD00043200155202E00D31F26E662E664002005
:104AE0002065201D00F0D1FC04F1180000F0CDFC81
:104AF0002461C6F12000A06164620020606584F832
:104B000058005A465146484600F006FC20600B9873
:104B100008B10B980460BDE8F09F00002E2E5C46A3
:104B200072656552544F535C7461736B732E6300EE
:104B30004572726F723A25732C25640D0A000000CD
:104B400010B5002407E004EB84010F4A02EB81005A
:104B500000F08EFC641C202CF5D30C4800F088FC7F
:104B60000B4800F085FC0B4800F082FC0A4800F07E
:104B70007FFC0A4800F07CFC0448094908600448AE
:104B80000849086010BD0000980600241809002498
:104B90002C09002440090024540900246809002439
:104BA000540000245800002410B50146164800E0C7
:104BB000006803688B42FBD30246436813448B4270
:104BC00004D143684C682344436001460A464B685D
:104BD00013440468A34211D10C4C03682468A34217
:104BE00008D04B680468646823444B6003681B6802
:104BF0000B6005E0054B1B680B6001E003680B6070
:104C0000884200D0016010BDAC000024B400002434
:104C10002DE9F04104460D4616461F464FF00008A8
:104C200065602461B5420CD8F01BA169884202D3AB
:104C30004FF0010811E0211D0948006800F028FC30
:104C40000BE0BE4204D2BD4202D34FF0010804E0A3
:104C5000211D0448006800F01BFC4046BDE8F081BF
:104C6000900000248C00002470B5054600F036FC4E
:104C7000A86B08B9012400E0002400F077FC20466E
:104C800070BD70B5054600F029FCA86BE96B884241
:104C900001D1012400E0002400F068FC204670BD32
:104CA0002DE9F3410D460098846C00272CB940F69D
:104CB000CE121AA11EA0FBF73DFCA06BE16B88424F
:104CC00001D2012000E0002028B940F6CF1213A144
:104CD00017A0FBF72FFCA06BE16B88421BD294F965
:104CE00045602A4669462046FFF7FDFD0746701CD1
:104CF00060B9606A08B9012000E0002050B904F1F1
:104D0000240001F0F3FC28B1012703E0701C40B23D
:104D100084F8450000BF3846BDE8FC812E2E5C4675
:104D200072656552544F535C71756575652E6300ED
:104D30004572726F723A25732C25640D0A000000CB
:104D4000F8B505460F4613480068C068C468201DC2
:104D500000F07AFBE069012818D1A06941192B46BF
:104D60003A462046FFF754FF80B1002003462A460A
:104D700001460090204601F0DDFD06462EB94FF4B5
:104D8000027205A10AA0FBF7D5FB00BF2046616AAD
:104D90008847F8BD8C0000242E2E5C467265655253
:104DA000544F535C74696D6572732E63000000008C
:104DB0004572726F723A25732C25640D0A0000004B
:104DC000F0B587B070E0039800280CDA04AE2EB975
:104DD00040F2E7223AA140A0FBF7ACFBD6E9002065
:104DE000B168904700BF039800285DDB059C6069AF
:104DF00008B9012000E0002010B9201D00F024FBBC
:104E000002A800F0C7F8054603980A284AD2DFE84E
:104E100000F00905072C2E4506082D2F00BF00BF06
:104E200000BF00BF0498A269811803462A462046A5
:104E3000FFF7EEFEC0B12046616A8847E0690128AD
:104E400012D1002000900498A1694218002319464D
:104E5000204601F06FFD07462FB940F2213218A11C
:104E60001DA0FBF767FB00BF1DE000BF1BE000BFFC
:104E70000498A061A06908B1012000E0002028B9D1
:104E80004FF44E720EA114A0FBF754FBA069411918
:104E90002B462A462046FFF7BBFE04E0204600F0E2
:104EA0009FFB00E000BF00BF00231A4603A90E4885
:104EB000006800F0C1FF002885D107B0F0BD0000F8
:104EC0002E2E5C4672656552544F535C74696D6555
:104ED00072732E63000000004572726F723A257380
:104EE0002C25640D0A00000094000024F8B5054646
:104EF0000C4600F063FE684600F04CF80646009849
:104F000020BB44B9B54206D801F04AFC31462846D8
:104F1000FFF716FF1CE03CB10E480068006808B9B6
:104F2000012000E000200446A91B22460A48006830
:104F300000F02AFC01F034FC50B94FF080500749D2
:104F40000860BFF34F8FBFF36F8F01E001F028FCC3
:104F5000F8BD0000900000249400002404ED00E05F
:104F60000A490968096809B9012100E0002121B155
:104F70004FF0FF31064A116006E004490968C9682C
:104F8000C868034A4168116070470000540000245B
:104F90008000002470B5044601F086FA05460748F3
:104FA0000068854204D200F00BF80120206001E087
:104FB0000020206001480560284670BD9C00002448
:104FC0002DE9F8432DE021480068C06805681F48B6
:104FD0000068C068C468201D00F036FA2046616A87
:104FE0008847E06901281CD1A0694619AE4207D95B
:104FF00066602461211D1548006800F049FA10E040
:10500000002003462A4601460090204601F092FC0B
:1050100007462FB940F292320DA113A0FBF78AFA8E
:1050200000BF0A480068006808B9012000E00020BD
:105030000028C8D00548D0F800800F480068034910
:1050400008600D48C0F80080BDE8F8838C0000249B
:105050002E2E5C4672656552544F535C74696D65C3
:1050600072732E63000000004572726F723A2573EE
:105070002C25640D0A000000900000240D480068F3
:10508000401C08B9012000E0002028B940F20912B4
:1050900009A115A0FBF74EFA00BF502072B680F3AD
:1050A0001188BFF34F8FBFF36F8F62B600BF00BF91
:1050B000FEE70000A00000242E2E5C4672656552BB
:1050C000544F535C706F727461626C655C525644ED
:1050D000535C41524D5F434D375C723070315C70B0
:1050E0006F72742E630000004572726F723A2573FE
:1050F0002C25640D0A00000008B500BF6846FFF7C4
:1051000039FC044620460099FFF7F0FEFFF758FEF1
:10511000F4E770B5044600F0E1F994F945501AE05F
:10512000A06C38B100212046FFF7BAFD88B100F02D
:1051300011FC0EE0606A08B9012000E0002038B9D7
:1051400004F1240001F0D2FA18B100F003FC00E0F1
:1051500003E0681E45B2002DE2DC00BFFF2084F8AA
:10516000450000F003FA00F0B9F994F9445010E05A
:10517000206908B9012000E0002048B904F11000BE
:1051800001F0B4FA08B100F0E5FB681E45B200E09A
:1051900001E0002DECDC00BFFF2084F8440000F0AB
:1051A000E5F970BD2DE9F04104464FF0000800F02C
:1051B00005FD3E48006808B9FFF7F0FB3C48006871
:1051C000204000285FD1A4B1083404F0070080B16A
:1051D00004F00700C0F10800044404F0070008B917
:1051E000012000E0002020B9BF2232A13BA0FBF744
:1051F000A1F9002C47D03D480068844243D83C4E7A
:105200003046056801E02E462D686868A04202D24B
:1052100028680028F7D125480068854233D03068D7
:1052200000F10808286830606868001B102813D94E
:105230002F1907F0070008B9012000E0002020B96D
:10524000EC221CA125A0FBF775F96868001B7860AB
:105250006C603846FFF7A8FC244968680968081A9A
:10526000224908600846006822490968884203D23A
:105270001E4800681F4908600D49686809680843AE
:1052800068600020286001F08BFA08F0070008B978
:10529000012000E0002028B94FF4967205A10FA06C
:1052A000FBF748F94046BDE8F0810000B400002457
:1052B000C00000242E2E5C4672656552544F535C2C
:1052C000706F727461626C655C4D656D4D616E6787
:1052D0005C686561705F342E630000004572726F18
:1052E000723A25732C25640D0A000000B8000024D2
:1052F000AC000024BC0000240648006830B1054919
:10530000096801F15000096D491C016001480068FD
:105310007047000050000024001F4FF080730360AE
:10532000001F21F001030360001F054B03601438C8
:105330000260001F6FF00203036020387047000016
:105340007D50000830B58BB0002007900890099080
:105350000A900390049005900690009001900290AE
:105360000025BDEEC02A8DED072A07980390BDEEFB
:10537000E02A8DED082A08980490BDEEC12A8DED33
:10538000092A09980590BDEEE12A8DED0A2A0A98AE
:105390000690002410E003A810F824000DF8140073
:1053A00003A830F82400C0F30720012101EB4401D9
:1053B0000DF80100601CC4B2042CECDB0821684627
:1053C000FBF7FAFA05462846E91705EB11610912C1
:1053D000A5EB0121C9B28DF80810E91705EB1161A1
:1053E000090A8DF8091000240CE000BF0748C069C5
:1053F00000F040000028F9D01DF80400034908859A
:10540000601CC4B20A2CF0DB0BB030BD00100140B0
:1054100010B5044609480A4908600846446000215E
:105420008160C160016181610C214161FDF706F974
:10543000012204490248FDF789F910BD001001401E
:10544000D80500244200002401460A69D1E9013050
:105450009860D1E9010358605068884201D188689A
:105460005060002008611068401E1060106870478E
:1054700000F1080141604FF0FF31816000F1080147
:10548000C160016100210160704700210161704726
:1054900010B502460B685C1C0CB9106907E002F1FC
:1054A000080000E04068446824689C42FAD94468D7
:1054B0004C604C68A160886041600A611468641C9B
:1054C000146010BD42684A6093688B6093685960AD
:1054D0009160086103685B1C0360704710B500BFF2
:1054E000502072B680F31188BFF34F8FBFF36F8FD8
:1054F00062B600BF0B480068401C0A4908600846B5
:10550000006801280DD108480068C0B208B9012020
:1055100000E0002028B940F2A91204A10FA0FBF777
:1055200009F810BDA000002404ED00E02E2E5C461A
:1055300072656552544F535C706F727461626C6532
:105540005C525644535C41524D5F434D375C723060
:1055500070315C706F72742E630000004572726F60
:10556000723A25732C25640D0A00000010B50B4813
:10557000006828B94FF4D87209A115A0FAF7DAFF2C
:1055800006480068401E054908600846006820B9C2
:10559000002080F3118800BF00BF10BDA0000024D0
:1055A0002E2E5C4672656552544F535C706F727458
:1055B00061626C655C525644535C41524D5F434D91
:1055C000375C723070315C706F72742E6300000053
:1055D0004572726F723A25732C25640D0A00000023
:1055E00070B506463546002E35D0083D2C461A4982
:1055F00060680968084008B1012000E0002028B96F
:105600004FF4A07215A11FA0FAF794FF206808B903
:10561000012000E0002028B940F241120FA119A09A
:10562000FAF788FF0C4960680968084098B120685B
:1056300088B90949606809688843606000F0BEFA6B
:105640001449606809680844124908602046FFF759
:10565000ABFA01F0A5F870BDC00000242E2E5C4608
:1056600072656552544F535C706F727461626C6501
:105670005C4D656D4D616E675C686561705F342E71
:10568000630000004572726F723A25732C25640D19
:105690000A000000B8000024064800684FF4FA61D0
:1056A000B0FBF1F0401E4FF0E02148610720086197
:1056B000704700002C00002470B5FAF79FFE0546E5
:1056C000102D11D305F1E02090F8F0431048007838
:1056D000844201DB012000E0002028B940F2F222E0
:1056E0000CA118A0FAF726FF1A48006800F4E06041
:1056F00019490968884201D8012000E0002028B932
:1057000040F2023203A10FA0FAF714FF70BD0000AF
:10571000A40000242E2E5C4672656552544F535CE3
:10572000706F727461626C655C525644535C415296
:105730004D5F434D375C723070315C706F72742E08
:10574000630000004572726F723A25732C25640D58
:105750000A0000000CED00E0A80000240246002032
:105760000BE0084B53F8303033B9064B43F8301098
:1057700003EBC0035A6002E0401C0828F1D300BFCD
:1057800070470000580600242DE9F04105460E46FA
:1057900017462C46FFF7A2FE94F94400401C10B9AE
:1057A000002084F8440094F94500401C10B9002002
:1057B00084F84500FFF7DAFEA06B28B93A46314677
:1057C00004F1240000F0F6F82046FFF7A2FCBDE843
:1057D000F081000070B504460025ACB10F480068A8
:1057E00008B9012000E0002028B940F2CF420CA106
:1057F00010A0FAF79FFE00F0E1F900212046FEF725
:1058000051FF00F0CDFF05463DB94FF080500D49E6
:105810000860BFF34F8FBFF36F8F70BD8800002407
:105820002E2E5C4672656552544F535C7461736BE7
:10583000732E63004572726F723A25732C25640DC6
:105840000A00000004ED00E070B50546FFF746FED3
:1058500015B92D48006800E028460446201DFFF7D2
:10586000F3FD78B9E06A00EB8000284951F8200088
:1058700040B994F82C1001208840254909688143DB
:1058800023480160A06A18B104F11800FFF7DCFD9D
:1058900020480068401C1F4908601B48006884427B
:1058A00009D1211D1C48FFF70DFE1C480068401C53
:1058B0001A49086009E01A480068401E1849086043
:1058C0002046FFF74EF8FFF74BFBFFF74FFE15485A
:1058D0000068C0B10C480068844214D112480068C6
:1058E00008B9012000E0002028B940F265420FA16C
:1058F00013A0FAF71FFE4FF0805015490860BFF360
:105900004F8FBFF36F8F70BD5000002498060024A6
:10591000680000247C000024540900245C0000245A
:10592000600000246C000024880000242E2E5C46B9
:1059300072656552544F535C7461736B732E6300D0
:105940004572726F723A25732C25640D0A000000AF
:1059500004ED00E001200149086070477400002454
:1059600070B504460D462CB940F6063207A10CA0CE
:10597000FAF7E0FD0E48016818312046FFF788FD70
:1059800001212846FEF78EFE70BD00002E2E5C46DB
:1059900072656552544F535C7461736B732E630070
:1059A0004572726F723A25732C25640D0A0000004F
:1059B0005000002470B505460E4614462DB940F639
:1059C000313209A10DA0FAF7B5FD10480168183170
:1059D0002846FFF777FD0CB14FF0FF3621463046E1
:1059E000FEF760FE70BD00002E2E5C4672656552AB
:1059F000544F535C7461736B732E63004572726F06
:105A0000723A25732C25640D0A0000005000002412
:105A100070B505462C46002D4BD02649E06A096832
:105A2000C96A884245D2A06900F0004028B92148DF
:105A30000068C06AC0F12000A061E16A01EB810149
:105A40001D4A02EB81016069884201D1012000E01A
:105A5000002050B3201DFFF7F7FC78B9E06A00EB97
:105A60008000154951F8200040B994F82C1001200D
:105A70008840124909688143104801600D48006858
:105A8000C06AE06294F82C10012088400B49096834
:105A900008430A490860E16A01EB8101064A02EB0A
:105AA0008100211DFFF70EFD03E002480068C06A77
:105AB000E06270BD500000249806002468000024B5
:105AC00010B504462CB940F6C13205A109A0FAF779
:105AD00031FD0C48006820600B480068606010BD14
